{"abi":[{"type":"constructor","inputs":[{"name":"_maker","type":"address","internalType":"address"},{"name":"_taker","type":"address","internalType":"address"},{"name":"_hashlock","type":"bytes32","internalType":"bytes32"},{"name":"_timelock","type":"uint256","internalType":"uint256"},{"name":"_tokenAddress","type":"address","internalType":"address"},{"name":"_amount","type":"uint256","internalType":"uint256"}],"stateMutability":"nonpayable"},{"type":"function","name":"amount","inputs":[],"outputs":[{"name":"","type":"uint256","internalType":"uint256"}],"stateMutability":"view"},{"type":"function","name":"cancel","inputs":[],"outputs":[],"stateMutability":"nonpayable"},{"type":"function","name":"canceled","inputs":[],"outputs":[{"name":"","type":"bool","internalType":"bool"}],"stateMutability":"view"},{"type":"function","name":"hashlock","inputs":[],"outputs":[{"name":"","type":"bytes32","internalType":"bytes32"}],"stateMutability":"view"},{"type":"function","name":"lock","inputs":[],"outputs":[],"stateMutability":"nonpayable"},{"type":"function","name":"locked","inputs":[],"outputs":[{"name":"","type":"bool","internalType":"bool"}],"stateMutability":"view"},{"type":"function","name":"maker","inputs":[],"outputs":[{"name":"","type":"address","internalType":"address"}],"stateMutability":"view"},{"type":"function","name":"taker","inputs":[],"outputs":[{"name":"","type":"address","internalType":"address"}],"stateMutability":"view"},{"type":"function","name":"timelock","inputs":[],"outputs":[{"name":"","type":"uint256","internalType":"uint256"}],"stateMutability":"view"},{"type":"function","name":"tokenAddress","inputs":[],"outputs":[{"name":"","type":"address","internalType":"address"}],"stateMutability":"view"},{"type":"function","name":"withdraw","inputs":[{"name":"secret","type":"bytes32","internalType":"bytes32"}],"outputs":[],"stateMutability":"nonpayable"},{"type":"function","name":"withdrawn","inputs":[],"outputs":[{"name":"","type":"bool","internalType":"bool"}],"stateMutability":"view"}],"bytecode":{"object":"0x608060405234801561000f575f5ffd5b50604051611393380380611393833981810160405281019061003191906101d4565b855f5f6101000a81548173ffffffffffffffffffffffffffffffffffffffff021916908373ffffffffffffffffffffffffffffffffffffffff1602179055508460015f6101000a81548173ffffffffffffffffffffffffffffffffffffffff021916908373ffffffffffffffffffffffffffffffffffffffff16021790555083600581905550826003819055508160025f6101000a81548173ffffffffffffffffffffffffffffffffffffffff021916908373ffffffffffffffffffffffffffffffffffffffff1602179055508060048190555050505050505061025d565b5f5ffd5b5f73ffffffffffffffffffffffffffffffffffffffff82169050919050565b5f61013d82610114565b9050919050565b61014d81610133565b8114610157575f5ffd5b50565b5f8151905061016881610144565b92915050565b5f819050919050565b6101808161016e565b811461018a575f5ffd5b50565b5f8151905061019b81610177565b92915050565b5f819050919050565b6101b3816101a1565b81146101bd575f5ffd5b50565b5f815190506101ce816101aa565b92915050565b5f5f5f5f5f5f60c087890312156101ee576101ed610110565b5b5f6101fb89828a0161015a565b965050602061020c89828a0161015a565b955050604061021d89828a0161018d565b945050606061022e89828a016101c0565b935050608061023f89828a0161015a565b92505060a061025089828a016101c0565b9150509295509295509295565b6111298061026a5f395ff3fe608060405234801561000f575f5ffd5b50600436106100b2575f3560e01c8063aa8c217c1161006f578063aa8c217c14610168578063c80ec52214610186578063cf309012146101a4578063d33219b4146101c2578063ea8a1af0146101e0578063f83d08ba146101ea576100b2565b80633f9942ff146100b657806350655d8c146100d4578063782b3602146100f25780638e19899e146101105780639d76ea581461012c578063a782086e1461014a575b5f5ffd5b6100be6101f4565b6040516100cb9190610a7d565b60405180910390f35b6100dc610207565b6040516100e99190610ad5565b60405180910390f35b6100fa61022b565b6040516101079190610ad5565b60405180910390f35b61012a60048036038101906101259190610b25565b610250565b005b610134610566565b6040516101419190610ad5565b60405180910390f35b61015261058b565b60405161015f9190610b5f565b60405180910390f35b610170610591565b60405161017d9190610b90565b60405180910390f35b61018e610597565b60405161019b9190610a7d565b60405180910390f35b6101ac6105a9565b6040516101b99190610a7d565b60405180910390f35b6101ca6105bc565b6040516101d79190610b90565b60405180910390f35b6101e86105c2565b005b6101f261081c565b005b600660019054906101000a900460ff1681565b5f5f9054906101000a900473ffffffffffffffffffffffffffffffffffffffff1681565b60015f9054906101000a900473ffffffffffffffffffffffffffffffffffffffff1681565b60015f9054906101000a900473ffffffffffffffffffffffffffffffffffffffff1673ffffffffffffffffffffffffffffffffffffffff163373ffffffffffffffffffffffffffffffffffffffff16146102df576040517f08c379a00000000000000000000000000000000000000000000000000000000081526004016102d690610c03565b60405180910390fd5b60065f9054906101000a900460ff161580156103085750600660019054906101000a900460ff16155b610347576040517f08c379a000000000000000000000000000000000000000000000000000000000815260040161033e90610c6b565b60405180910390fd5b600660029054906101000a900460ff16610396576040517f08c379a000000000000000000000000000000000000000000000000000000000815260040161038d90610cd3565b60405180910390fd5b6005546002826040516020016103ac9190610d11565b6040516020818303038152906040526040516103c89190610d7d565b602060405180830381855afa1580156103e3573d5f5f3e3d5ffd5b5050506040513d601f19601f820116820180604052508101906104069190610da7565b14610446576040517f08c379a000000000000000000000000000000000000000000000000000000000815260040161043d90610e1c565b60405180910390fd5b600160065f6101000a81548160ff0219169083151502179055505f60025f9054906101000a900473ffffffffffffffffffffffffffffffffffffffff1673ffffffffffffffffffffffffffffffffffffffff1663a9059cbb60015f9054906101000a900473ffffffffffffffffffffffffffffffffffffffff166004546040518363ffffffff1660e01b81526004016104e0929190610e3a565b6020604051808303815f875af11580156104fc573d5f5f3e3d5ffd5b505050506040513d601f19601f820116820180604052508101906105209190610e8b565b905080610562576040517f08c379a000000000000000000000000000000000000000000000000000000000815260040161055990610f00565b60405180910390fd5b5050565b60025f9054906101000a900473ffffffffffffffffffffffffffffffffffffffff1681565b60055481565b60045481565b60065f9054906101000a900460ff1681565b600660029054906101000a900460ff1681565b60035481565b5f5f9054906101000a900473ffffffffffffffffffffffffffffffffffffffff1673ffffffffffffffffffffffffffffffffffffffff163373ffffffffffffffffffffffffffffffffffffffff1614610650576040517f08c379a000000000000000000000000000000000000000000000000000000000815260040161064790610f68565b60405180910390fd5b60065f9054906101000a900460ff161580156106795750600660019054906101000a900460ff16155b6106b8576040517f08c379a00000000000000000000000000000000000000000000000000000000081526004016106af90610c6b565b60405180910390fd5b6003544210156106fd576040517f08c379a00000000000000000000000000000000000000000000000000000000081526004016106f490610fd0565b60405180910390fd5b6001600660016101000a81548160ff0219169083151502179055505f60025f9054906101000a900473ffffffffffffffffffffffffffffffffffffffff1673ffffffffffffffffffffffffffffffffffffffff1663a9059cbb5f5f9054906101000a900473ffffffffffffffffffffffffffffffffffffffff166004546040518363ffffffff1660e01b8152600401610797929190610e3a565b6020604051808303815f875af11580156107b3573d5f5f3e3d5ffd5b505050506040513d601f19601f820116820180604052508101906107d79190610e8b565b905080610819576040517f08c379a000000000000000000000000000000000000000000000000000000000815260040161081090611038565b60405180910390fd5b50565b5f5f9054906101000a900473ffffffffffffffffffffffffffffffffffffffff1673ffffffffffffffffffffffffffffffffffffffff163373ffffffffffffffffffffffffffffffffffffffff16146108aa576040517f08c379a00000000000000000000000000000000000000000000000000000000081526004016108a190610f68565b60405180910390fd5b60065f9054906101000a900460ff161580156108d35750600660019054906101000a900460ff16155b610912576040517f08c379a000000000000000000000000000000000000000000000000000000000815260040161090990610c6b565b60405180910390fd5b600660029054906101000a900460ff1615610962576040517f08c379a0000000000000000000000000000000000000000000000000000000008152600401610959906110a0565b60405180910390fd5b6001600660026101000a81548160ff0219169083151502179055505f60025f9054906101000a900473ffffffffffffffffffffffffffffffffffffffff1673ffffffffffffffffffffffffffffffffffffffff166323b872dd33306004546040518463ffffffff1660e01b81526004016109de939291906110be565b6020604051808303815f875af11580156109fa573d5f5f3e3d5ffd5b505050506040513d601f19601f82011682018060405250810190610a1e9190610e8b565b905080610a60576040517f08c379a0000000000000000000000000000000000000000000000000000000008152600401610a5790610f00565b60405180910390fd5b50565b5f8115159050919050565b610a7781610a63565b82525050565b5f602082019050610a905f830184610a6e565b92915050565b5f73ffffffffffffffffffffffffffffffffffffffff82169050919050565b5f610abf82610a96565b9050919050565b610acf81610ab5565b82525050565b5f602082019050610ae85f830184610ac6565b92915050565b5f5ffd5b5f819050919050565b610b0481610af2565b8114610b0e575f5ffd5b50565b5f81359050610b1f81610afb565b92915050565b5f60208284031215610b3a57610b39610aee565b5b5f610b4784828501610b11565b91505092915050565b610b5981610af2565b82525050565b5f602082019050610b725f830184610b50565b92915050565b5f819050919050565b610b8a81610b78565b82525050565b5f602082019050610ba35f830184610b81565b92915050565b5f82825260208201905092915050565b7f4f6e6c792074616b6572000000000000000000000000000000000000000000005f82015250565b5f610bed600a83610ba9565b9150610bf882610bb9565b602082019050919050565b5f6020820190508181035f830152610c1a81610be1565b9050919050565b7f457363726f7720696e61637469766500000000000000000000000000000000005f82015250565b5f610c55600f83610ba9565b9150610c6082610c21565b602082019050919050565b5f6020820190508181035f830152610c8281610c49565b9050919050565b7f546f6b656e73206e6f74206c6f636b65642079657400000000000000000000005f82015250565b5f610cbd601583610ba9565b9150610cc882610c89565b602082019050919050565b5f6020820190508181035f830152610cea81610cb1565b9050919050565b5f819050919050565b610d0b610d0682610af2565b610cf1565b82525050565b5f610d1c8284610cfa565b60208201915081905092915050565b5f81519050919050565b5f81905092915050565b8281835e5f83830152505050565b5f610d5782610d2b565b610d618185610d35565b9350610d71818560208601610d3f565b80840191505092915050565b5f610d888284610d4d565b915081905092915050565b5f81519050610da181610afb565b92915050565b5f60208284031215610dbc57610dbb610aee565b5b5f610dc984828501610d93565b91505092915050565b7f496e76616c6964207365637265740000000000000000000000000000000000005f82015250565b5f610e06600e83610ba9565b9150610e1182610dd2565b602082019050919050565b5f6020820190508181035f830152610e3381610dfa565b9050919050565b5f604082019050610e4d5f830185610ac6565b610e5a6020830184610b81565b9392505050565b610e6a81610a63565b8114610e74575f5ffd5b50565b5f81519050610e8581610e61565b92915050565b5f60208284031215610ea057610e9f610aee565b5b5f610ead84828501610e77565b91505092915050565b7f546f6b656e207472616e73666572206661696c656400000000000000000000005f82015250565b5f610eea601583610ba9565b9150610ef582610eb6565b602082019050919050565b5f6020820190508181035f830152610f1781610ede565b9050919050565b7f4f6e6c79206d616b6572000000000000000000000000000000000000000000005f82015250565b5f610f52600a83610ba9565b9150610f5d82610f1e565b602082019050919050565b5f6020820190508181035f830152610f7f81610f46565b9050919050565b7f546f6f206561726c7920746f2063616e63656c000000000000000000000000005f82015250565b5f610fba601383610ba9565b9150610fc582610f86565b602082019050919050565b5f6020820190508181035f830152610fe781610fae565b9050919050565b7f526566756e6420746f206d616b6572206661696c6564000000000000000000005f82015250565b5f611022601683610ba9565b915061102d82610fee565b602082019050919050565b5f6020820190508181035f83015261104f81611016565b9050919050565b7f416c7265616479206c6f636b65640000000000000000000000000000000000005f82015250565b5f61108a600e83610ba9565b915061109582611056565b602082019050919050565b5f6020820190508181035f8301526110b78161107e565b9050919050565b5f6060820190506110d15f830186610ac6565b6110de6020830185610ac6565b6110eb6040830184610b81565b94935050505056fea26469706673582212204eb3f8862055a98ccd9bc831b0b0ea45a14d0e74538b1fda38237f7dd7b3bc2d64736f6c634300081c0033","linkReferences":{}},"methodIdentifiers":{"amount()":"aa8c217c","cancel()":"ea8a1af0","canceled()":"3f9942ff","hashlock()":"a782086e","lock()":"f83d08ba","locked()":"cf309012","maker()":"50655d8c","taker()":"782b3602","timelock()":"d33219b4","tokenAddress()":"9d76ea58","withdraw(bytes32)":"8e19899e","withdrawn()":"c80ec522"},"id":16}