{"abi":[{"type":"constructor","inputs":[{"name":"_maker","type":"address","internalType":"address"},{"name":"_taker","type":"address","internalType":"address"},{"name":"_hashlock","type":"bytes32","internalType":"bytes32"},{"name":"_timelock","type":"uint256","internalType":"uint256"},{"name":"_tokenAddress","type":"address","internalType":"address"},{"name":"_amount","type":"uint256","internalType":"uint256"}],"stateMutability":"nonpayable"},{"type":"function","name":"amount","inputs":[],"outputs":[{"name":"","type":"uint256","internalType":"uint256"}],"stateMutability":"view"},{"type":"function","name":"cancel","inputs":[],"outputs":[],"stateMutability":"nonpayable"},{"type":"function","name":"canceled","inputs":[],"outputs":[{"name":"","type":"bool","internalType":"bool"}],"stateMutability":"view"},{"type":"function","name":"hashlock","inputs":[],"outputs":[{"name":"","type":"bytes32","internalType":"bytes32"}],"stateMutability":"view"},{"type":"function","name":"maker","inputs":[],"outputs":[{"name":"","type":"address","internalType":"address"}],"stateMutability":"view"},{"type":"function","name":"taker","inputs":[],"outputs":[{"name":"","type":"address","internalType":"address"}],"stateMutability":"view"},{"type":"function","name":"timelock","inputs":[],"outputs":[{"name":"","type":"uint256","internalType":"uint256"}],"stateMutability":"view"},{"type":"function","name":"tokenAddress","inputs":[],"outputs":[{"name":"","type":"address","internalType":"address"}],"stateMutability":"view"},{"type":"function","name":"withdraw","inputs":[{"name":"secret","type":"bytes32","internalType":"bytes32"}],"outputs":[],"stateMutability":"nonpayable"},{"type":"function","name":"withdrawn","inputs":[],"outputs":[{"name":"","type":"bool","internalType":"bool"}],"stateMutability":"view"}],"bytecode":{"object":"0x608060405234801561000f575f5ffd5b50604051610fa7380380610fa7833981810160405281019061003191906101d4565b855f5f6101000a81548173ffffffffffffffffffffffffffffffffffffffff021916908373ffffffffffffffffffffffffffffffffffffffff1602179055508460015f6101000a81548173ffffffffffffffffffffffffffffffffffffffff021916908373ffffffffffffffffffffffffffffffffffffffff16021790555083600581905550826003819055508160025f6101000a81548173ffffffffffffffffffffffffffffffffffffffff021916908373ffffffffffffffffffffffffffffffffffffffff1602179055508060048190555050505050505061025d565b5f5ffd5b5f73ffffffffffffffffffffffffffffffffffffffff82169050919050565b5f61013d82610114565b9050919050565b61014d81610133565b8114610157575f5ffd5b50565b5f8151905061016881610144565b92915050565b5f819050919050565b6101808161016e565b811461018a575f5ffd5b50565b5f8151905061019b81610177565b92915050565b5f819050919050565b6101b3816101a1565b81146101bd575f5ffd5b50565b5f815190506101ce816101aa565b92915050565b5f5f5f5f5f5f60c087890312156101ee576101ed610110565b5b5f6101fb89828a0161015a565b965050602061020c89828a0161015a565b955050604061021d89828a0161018d565b945050606061022e89828a016101c0565b935050608061023f89828a0161015a565b92505060a061025089828a016101c0565b9150509295509295509295565b610d3d8061026a5f395ff3fe608060405234801561000f575f5ffd5b506004361061009c575f3560e01c8063a782086e11610064578063a782086e14610134578063aa8c217c14610152578063c80ec52214610170578063d33219b41461018e578063ea8a1af0146101ac5761009c565b80633f9942ff146100a057806350655d8c146100be578063782b3602146100dc5780638e19899e146100fa5780639d76ea5814610116575b5f5ffd5b6100a86101b6565b6040516100b59190610796565b60405180910390f35b6100c66101c9565b6040516100d391906107ee565b60405180910390f35b6100e46101ed565b6040516100f191906107ee565b60405180910390f35b610114600480360381019061010f919061083e565b610212565b005b61011e6104d9565b60405161012b91906107ee565b60405180910390f35b61013c6104fe565b6040516101499190610878565b60405180910390f35b61015a610504565b60405161016791906108a9565b60405180910390f35b61017861050a565b6040516101859190610796565b60405180910390f35b61019661051c565b6040516101a391906108a9565b60405180910390f35b6101b4610522565b005b600660019054906101000a900460ff1681565b5f5f9054906101000a900473ffffffffffffffffffffffffffffffffffffffff1681565b60015f9054906101000a900473ffffffffffffffffffffffffffffffffffffffff1681565b60015f9054906101000a900473ffffffffffffffffffffffffffffffffffffffff1673ffffffffffffffffffffffffffffffffffffffff163373ffffffffffffffffffffffffffffffffffffffff16146102a1576040517f08c379a00000000000000000000000000000000000000000000000000000000081526004016102989061091c565b60405180910390fd5b60065f9054906101000a900460ff161580156102ca5750600660019054906101000a900460ff16155b610309576040517f08c379a000000000000000000000000000000000000000000000000000000000815260040161030090610984565b60405180910390fd5b60055460028260405160200161031f91906109c2565b60405160208183030381529060405260405161033b9190610a2e565b602060405180830381855afa158015610356573d5f5f3e3d5ffd5b5050506040513d601f19601f820116820180604052508101906103799190610a58565b146103b9576040517f08c379a00000000000000000000000000000000000000000000000000000000081526004016103b090610acd565b60405180910390fd5b600160065f6101000a81548160ff0219169083151502179055505f60025f9054906101000a900473ffffffffffffffffffffffffffffffffffffffff1673ffffffffffffffffffffffffffffffffffffffff1663a9059cbb60015f9054906101000a900473ffffffffffffffffffffffffffffffffffffffff166004546040518363ffffffff1660e01b8152600401610453929190610aeb565b6020604051808303815f875af115801561046f573d5f5f3e3d5ffd5b505050506040513d601f19601f820116820180604052508101906104939190610b3c565b9050806104d5576040517f08c379a00000000000000000000000000000000000000000000000000000000081526004016104cc90610bb1565b60405180910390fd5b5050565b60025f9054906101000a900473ffffffffffffffffffffffffffffffffffffffff1681565b60055481565b60045481565b60065f9054906101000a900460ff1681565b60035481565b5f5f9054906101000a900473ffffffffffffffffffffffffffffffffffffffff1673ffffffffffffffffffffffffffffffffffffffff163373ffffffffffffffffffffffffffffffffffffffff16146105b0576040517f08c379a00000000000000000000000000000000000000000000000000000000081526004016105a790610c19565b60405180910390fd5b60065f9054906101000a900460ff161580156105d95750600660019054906101000a900460ff16155b610618576040517f08c379a000000000000000000000000000000000000000000000000000000000815260040161060f90610984565b60405180910390fd5b60035442101561065d576040517f08c379a000000000000000000000000000000000000000000000000000000000815260040161065490610c81565b60405180910390fd5b6001600660016101000a81548160ff0219169083151502179055505f60025f9054906101000a900473ffffffffffffffffffffffffffffffffffffffff1673ffffffffffffffffffffffffffffffffffffffff1663a9059cbb5f5f9054906101000a900473ffffffffffffffffffffffffffffffffffffffff166004546040518363ffffffff1660e01b81526004016106f7929190610aeb565b6020604051808303815f875af1158015610713573d5f5f3e3d5ffd5b505050506040513d601f19601f820116820180604052508101906107379190610b3c565b905080610779576040517f08c379a000000000000000000000000000000000000000000000000000000000815260040161077090610ce9565b60405180910390fd5b50565b5f8115159050919050565b6107908161077c565b82525050565b5f6020820190506107a95f830184610787565b92915050565b5f73ffffffffffffffffffffffffffffffffffffffff82169050919050565b5f6107d8826107af565b9050919050565b6107e8816107ce565b82525050565b5f6020820190506108015f8301846107df565b92915050565b5f5ffd5b5f819050919050565b61081d8161080b565b8114610827575f5ffd5b50565b5f8135905061083881610814565b92915050565b5f6020828403121561085357610852610807565b5b5f6108608482850161082a565b91505092915050565b6108728161080b565b82525050565b5f60208201905061088b5f830184610869565b92915050565b5f819050919050565b6108a381610891565b82525050565b5f6020820190506108bc5f83018461089a565b92915050565b5f82825260208201905092915050565b7f4f6e6c792074616b6572000000000000000000000000000000000000000000005f82015250565b5f610906600a836108c2565b9150610911826108d2565b602082019050919050565b5f6020820190508181035f830152610933816108fa565b9050919050565b7f457363726f7720696e61637469766500000000000000000000000000000000005f82015250565b5f61096e600f836108c2565b91506109798261093a565b602082019050919050565b5f6020820190508181035f83015261099b81610962565b9050919050565b5f819050919050565b6109bc6109b78261080b565b6109a2565b82525050565b5f6109cd82846109ab565b60208201915081905092915050565b5f81519050919050565b5f81905092915050565b8281835e5f83830152505050565b5f610a08826109dc565b610a1281856109e6565b9350610a228185602086016109f0565b80840191505092915050565b5f610a3982846109fe565b915081905092915050565b5f81519050610a5281610814565b92915050565b5f60208284031215610a6d57610a6c610807565b5b5f610a7a84828501610a44565b91505092915050565b7f496e76616c6964207365637265740000000000000000000000000000000000005f82015250565b5f610ab7600e836108c2565b9150610ac282610a83565b602082019050919050565b5f6020820190508181035f830152610ae481610aab565b9050919050565b5f604082019050610afe5f8301856107df565b610b0b602083018461089a565b9392505050565b610b1b8161077c565b8114610b25575f5ffd5b50565b5f81519050610b3681610b12565b92915050565b5f60208284031215610b5157610b50610807565b5b5f610b5e84828501610b28565b91505092915050565b7f546f6b656e207472616e73666572206661696c656400000000000000000000005f82015250565b5f610b9b6015836108c2565b9150610ba682610b67565b602082019050919050565b5f6020820190508181035f830152610bc881610b8f565b9050919050565b7f4f6e6c79206d616b6572000000000000000000000000000000000000000000005f82015250565b5f610c03600a836108c2565b9150610c0e82610bcf565b602082019050919050565b5f6020820190508181035f830152610c3081610bf7565b9050919050565b7f546f6f206561726c7920746f2063616e63656c000000000000000000000000005f82015250565b5f610c6b6013836108c2565b9150610c7682610c37565b602082019050919050565b5f6020820190508181035f830152610c9881610c5f565b9050919050565b7f526566756e6420746f206d616b6572206661696c6564000000000000000000005f82015250565b5f610cd36016836108c2565b9150610cde82610c9f565b602082019050919050565b5f6020820190508181035f830152610d0081610cc7565b905091905056fea2646970667358221220355c0c0f1ea9c63bd19fdc515d7f598b54d3fabad4884f7da131320550800c0964736f6c634300081c0033","linkReferences":{}},"methodIdentifiers":{"amount()":"aa8c217c","cancel()":"ea8a1af0","canceled()":"3f9942ff","hashlock()":"a782086e","maker()":"50655d8c","taker()":"782b3602","timelock()":"d33219b4","tokenAddress()":"9d76ea58","withdraw(bytes32)":"8e19899e","withdrawn()":"c80ec522"},"id":16}