{"abi":[{"type":"receive","stateMutability":"payable"},{"type":"function","name":"cancel","inputs":[],"outputs":[],"stateMutability":"nonpayable"},{"type":"function","name":"canceled","inputs":[],"outputs":[{"name":"","type":"bool","internalType":"bool"}],"stateMutability":"view"},{"type":"function","name":"hashlock","inputs":[],"outputs":[{"name":"","type":"bytes32","internalType":"bytes32"}],"stateMutability":"view"},{"type":"function","name":"initialize","inputs":[{"name":"_maker","type":"address","internalType":"address"},{"name":"_taker","type":"address","internalType":"address"},{"name":"_hashlock","type":"bytes32","internalType":"bytes32"},{"name":"_timelock","type":"uint256","internalType":"uint256"},{"name":"_tokenAddress","type":"address","internalType":"address"}],"outputs":[],"stateMutability":"nonpayable"},{"type":"function","name":"lock","inputs":[{"name":"amount","type":"uint256","internalType":"uint256"}],"outputs":[],"stateMutability":"nonpayable"},{"type":"function","name":"locked","inputs":[],"outputs":[{"name":"","type":"bool","internalType":"bool"}],"stateMutability":"view"},{"type":"function","name":"maker","inputs":[],"outputs":[{"name":"","type":"address","internalType":"address"}],"stateMutability":"view"},{"type":"function","name":"taker","inputs":[],"outputs":[{"name":"","type":"address","internalType":"address"}],"stateMutability":"view"},{"type":"function","name":"timelock","inputs":[],"outputs":[{"name":"","type":"uint256","internalType":"uint256"}],"stateMutability":"view"},{"type":"function","name":"tokenAddress","inputs":[],"outputs":[{"name":"","type":"address","internalType":"address"}],"stateMutability":"view"},{"type":"function","name":"withdraw","inputs":[{"name":"secret","type":"bytes32","internalType":"bytes32"}],"outputs":[],"stateMutability":"nonpayable"},{"type":"function","name":"withdrawn","inputs":[],"outputs":[{"name":"","type":"bool","internalType":"bool"}],"stateMutability":"view"}],"bytecode":{"object":"0x6080604052348015600e575f5ffd5b506117498061001c5f395ff3fe6080604052600436106100aa575f3560e01c8063c80ec52211610063578063c80ec522146101af578063cf309012146101d9578063d33219b414610203578063dd4670641461022d578063ea8a1af014610255578063fb3a05a01461026b576100b1565b80633f9942ff146100b557806350655d8c146100df578063782b3602146101095780638e19899e146101335780639d76ea581461015b578063a782086e14610185576100b1565b366100b157005b5f5ffd5b3480156100c0575f5ffd5b506100c9610293565b6040516100d69190610f42565b60405180910390f35b3480156100ea575f5ffd5b506100f36102a6565b6040516101009190610f9a565b60405180910390f35b348015610114575f5ffd5b5061011d6102ca565b60405161012a9190610f9a565b60405180910390f35b34801561013e575f5ffd5b5061015960048036038101906101549190610fea565b6102ef565b005b348015610166575f5ffd5b5061016f61070d565b60405161017c9190610f9a565b60405180910390f35b348015610190575f5ffd5b50610199610732565b6040516101a69190611024565b60405180910390f35b3480156101ba575f5ffd5b506101c3610738565b6040516101d09190610f42565b60405180910390f35b3480156101e4575f5ffd5b506101ed61074b565b6040516101fa9190610f42565b60405180910390f35b34801561020e575f5ffd5b5061021761075e565b6040516102249190611055565b60405180910390f35b348015610238575f5ffd5b50610253600480360381019061024e9190611098565b610764565b005b348015610260575f5ffd5b50610269610a3a565b005b348015610276575f5ffd5b50610291600480360381019061028c91906110ed565b610de9565b005b600460159054906101000a900460ff1681565b5f5f9054906101000a900473ffffffffffffffffffffffffffffffffffffffff1681565b60015f9054906101000a900473ffffffffffffffffffffffffffffffffffffffff1681565b60015f9054906101000a900473ffffffffffffffffffffffffffffffffffffffff1673ffffffffffffffffffffffffffffffffffffffff163373ffffffffffffffffffffffffffffffffffffffff161461037e576040517f08c379a0000000000000000000000000000000000000000000000000000000008152600401610375906111be565b60405180910390fd5b600460149054906101000a900460ff161580156103a85750600460159054906101000a900460ff16155b6103e7576040517f08c379a00000000000000000000000000000000000000000000000000000000081526004016103de90611226565b60405180910390fd5b6003546002826040516020016103fd9190611264565b60405160208183030381529060405260405161041991906112d0565b602060405180830381855afa158015610434573d5f5f3e3d5ffd5b5050506040513d601f19601f8201168201806040525081019061045791906112fa565b14610497576040517f08c379a000000000000000000000000000000000000000000000000000000000815260040161048e9061136f565b60405180910390fd5b6001600460146101000a81548160ff0219169083151502179055505f73ffffffffffffffffffffffffffffffffffffffff1660045f9054906101000a900473ffffffffffffffffffffffffffffffffffffffff1673ffffffffffffffffffffffffffffffffffffffff16036105705760015f9054906101000a900473ffffffffffffffffffffffffffffffffffffffff1673ffffffffffffffffffffffffffffffffffffffff166108fc4790811502906040515f60405180830381858888f1935050505015801561056a573d5f5f3e3d5ffd5b5061070a565b5f60045f9054906101000a900473ffffffffffffffffffffffffffffffffffffffff1673ffffffffffffffffffffffffffffffffffffffff166370a08231306040518263ffffffff1660e01b81526004016105cb9190610f9a565b602060405180830381865afa1580156105e6573d5f5f3e3d5ffd5b505050506040513d601f19601f8201168201806040525081019061060a91906113a1565b905060045f9054906101000a900473ffffffffffffffffffffffffffffffffffffffff1673ffffffffffffffffffffffffffffffffffffffff1663a9059cbb60015f9054906101000a900473ffffffffffffffffffffffffffffffffffffffff16836040518363ffffffff1660e01b81526004016106899291906113cc565b6020604051808303815f875af11580156106a5573d5f5f3e3d5ffd5b505050506040513d601f19601f820116820180604052508101906106c9919061141d565b610708576040517f08c379a00000000000000000000000000000000000000000000000000000000081526004016106ff90611492565b60405180910390fd5b505b50565b60045f9054906101000a900473ffffffffffffffffffffffffffffffffffffffff1681565b60035481565b600460149054906101000a900460ff1681565b600460179054906101000a900460ff1681565b60025481565b5f5f9054906101000a900473ffffffffffffffffffffffffffffffffffffffff1673ffffffffffffffffffffffffffffffffffffffff163373ffffffffffffffffffffffffffffffffffffffff16146107f2576040517f08c379a00000000000000000000000000000000000000000000000000000000081526004016107e9906114fa565b60405180910390fd5b600460149054906101000a900460ff1615801561081c5750600460159054906101000a900460ff16155b61085b576040517f08c379a000000000000000000000000000000000000000000000000000000000815260040161085290611226565b60405180910390fd5b5f73ffffffffffffffffffffffffffffffffffffffff1660045f9054906101000a900473ffffffffffffffffffffffffffffffffffffffff1673ffffffffffffffffffffffffffffffffffffffff16036108ea576040517f08c379a00000000000000000000000000000000000000000000000000000000081526004016108e190611588565b60405180910390fd5b600460179054906101000a900460ff161561093a576040517f08c379a0000000000000000000000000000000000000000000000000000000008152600401610931906115f0565b60405180910390fd5b6001600460176101000a81548160ff0219169083151502179055505f60045f9054906101000a900473ffffffffffffffffffffffffffffffffffffffff1673ffffffffffffffffffffffffffffffffffffffff166323b872dd3330856040518463ffffffff1660e01b81526004016109b49392919061160e565b6020604051808303815f875af11580156109d0573d5f5f3e3d5ffd5b505050506040513d601f19601f820116820180604052508101906109f4919061141d565b905080610a36576040517f08c379a0000000000000000000000000000000000000000000000000000000008152600401610a2d90611492565b60405180910390fd5b5050565b5f5f9054906101000a900473ffffffffffffffffffffffffffffffffffffffff1673ffffffffffffffffffffffffffffffffffffffff163373ffffffffffffffffffffffffffffffffffffffff1614610ac8576040517f08c379a0000000000000000000000000000000000000000000000000000000008152600401610abf906114fa565b60405180910390fd5b600460149054906101000a900460ff16158015610af25750600460159054906101000a900460ff16155b610b31576040517f08c379a0000000000000000000000000000000000000000000000000000000008152600401610b2890611226565b60405180910390fd5b600254421015610b76576040517f08c379a0000000000000000000000000000000000000000000000000000000008152600401610b6d9061168d565b60405180910390fd5b6001600460156101000a81548160ff0219169083151502179055505f73ffffffffffffffffffffffffffffffffffffffff1660045f9054906101000a900473ffffffffffffffffffffffffffffffffffffffff1673ffffffffffffffffffffffffffffffffffffffff1603610c4e575f5f9054906101000a900473ffffffffffffffffffffffffffffffffffffffff1673ffffffffffffffffffffffffffffffffffffffff166108fc4790811502906040515f60405180830381858888f19350505050158015610c48573d5f5f3e3d5ffd5b50610de7565b5f60045f9054906101000a900473ffffffffffffffffffffffffffffffffffffffff1673ffffffffffffffffffffffffffffffffffffffff166370a08231306040518263ffffffff1660e01b8152600401610ca99190610f9a565b602060405180830381865afa158015610cc4573d5f5f3e3d5ffd5b505050506040513d601f19601f82011682018060405250810190610ce891906113a1565b905060045f9054906101000a900473ffffffffffffffffffffffffffffffffffffffff1673ffffffffffffffffffffffffffffffffffffffff1663a9059cbb5f5f9054906101000a900473ffffffffffffffffffffffffffffffffffffffff16836040518363ffffffff1660e01b8152600401610d669291906113cc565b6020604051808303815f875af1158015610d82573d5f5f3e3d5ffd5b505050506040513d601f19601f82011682018060405250810190610da6919061141d565b610de5576040517f08c379a0000000000000000000000000000000000000000000000000000000008152600401610ddc90611492565b60405180910390fd5b505b565b600460169054906101000a900460ff1615610e39576040517f08c379a0000000000000000000000000000000000000000000000000000000008152600401610e30906116f5565b60405180910390fd5b845f5f6101000a81548173ffffffffffffffffffffffffffffffffffffffff021916908373ffffffffffffffffffffffffffffffffffffffff1602179055508360015f6101000a81548173ffffffffffffffffffffffffffffffffffffffff021916908373ffffffffffffffffffffffffffffffffffffffff16021790555082600381905550816002819055508060045f6101000a81548173ffffffffffffffffffffffffffffffffffffffff021916908373ffffffffffffffffffffffffffffffffffffffff1602179055506001600460166101000a81548160ff0219169083151502179055505050505050565b5f8115159050919050565b610f3c81610f28565b82525050565b5f602082019050610f555f830184610f33565b92915050565b5f73ffffffffffffffffffffffffffffffffffffffff82169050919050565b5f610f8482610f5b565b9050919050565b610f9481610f7a565b82525050565b5f602082019050610fad5f830184610f8b565b92915050565b5f5ffd5b5f819050919050565b610fc981610fb7565b8114610fd3575f5ffd5b50565b5f81359050610fe481610fc0565b92915050565b5f60208284031215610fff57610ffe610fb3565b5b5f61100c84828501610fd6565b91505092915050565b61101e81610fb7565b82525050565b5f6020820190506110375f830184611015565b92915050565b5f819050919050565b61104f8161103d565b82525050565b5f6020820190506110685f830184611046565b92915050565b6110778161103d565b8114611081575f5ffd5b50565b5f813590506110928161106e565b92915050565b5f602082840312156110ad576110ac610fb3565b5b5f6110ba84828501611084565b91505092915050565b6110cc81610f7a565b81146110d6575f5ffd5b50565b5f813590506110e7816110c3565b92915050565b5f5f5f5f5f60a0868803121561110657611105610fb3565b5b5f611113888289016110d9565b9550506020611124888289016110d9565b945050604061113588828901610fd6565b935050606061114688828901611084565b9250506080611157888289016110d9565b9150509295509295909350565b5f82825260208201905092915050565b7f4f6e6c792074616b6572000000000000000000000000000000000000000000005f82015250565b5f6111a8600a83611164565b91506111b382611174565b602082019050919050565b5f6020820190508181035f8301526111d58161119c565b9050919050565b7f457363726f7720696e61637469766500000000000000000000000000000000005f82015250565b5f611210600f83611164565b915061121b826111dc565b602082019050919050565b5f6020820190508181035f83015261123d81611204565b9050919050565b5f819050919050565b61125e61125982610fb7565b611244565b82525050565b5f61126f828461124d565b60208201915081905092915050565b5f81519050919050565b5f81905092915050565b8281835e5f83830152505050565b5f6112aa8261127e565b6112b48185611288565b93506112c4818560208601611292565b80840191505092915050565b5f6112db82846112a0565b915081905092915050565b5f815190506112f481610fc0565b92915050565b5f6020828403121561130f5761130e610fb3565b5b5f61131c848285016112e6565b91505092915050565b7f496e76616c6964207365637265740000000000000000000000000000000000005f82015250565b5f611359600e83611164565b915061136482611325565b602082019050919050565b5f6020820190508181035f8301526113868161134d565b9050919050565b5f8151905061139b8161106e565b92915050565b5f602082840312156113b6576113b5610fb3565b5b5f6113c38482850161138d565b91505092915050565b5f6040820190506113df5f830185610f8b565b6113ec6020830184611046565b9392505050565b6113fc81610f28565b8114611406575f5ffd5b50565b5f81519050611417816113f3565b92915050565b5f6020828403121561143257611431610fb3565b5b5f61143f84828501611409565b91505092915050565b7f546f6b656e207472616e73666572206661696c656400000000000000000000005f82015250565b5f61147c601583611164565b915061148782611448565b602082019050919050565b5f6020820190508181035f8301526114a981611470565b9050919050565b7f4f6e6c79206d616b6572000000000000000000000000000000000000000000005f82015250565b5f6114e4600a83611164565b91506114ef826114b0565b602082019050919050565b5f6020820190508181035f830152611511816114d8565b9050919050565b7f4e617469766520746f6b656e206e6f7420737570706f7274656420696e206c6f5f8201527f636b282900000000000000000000000000000000000000000000000000000000602082015250565b5f611572602483611164565b915061157d82611518565b604082019050919050565b5f6020820190508181035f83015261159f81611566565b9050919050565b7f416c7265616479206c6f636b65640000000000000000000000000000000000005f82015250565b5f6115da600e83611164565b91506115e5826115a6565b602082019050919050565b5f6020820190508181035f830152611607816115ce565b9050919050565b5f6060820190506116215f830186610f8b565b61162e6020830185610f8b565b61163b6040830184611046565b949350505050565b7f546f6f206561726c7920746f2063616e63656c000000000000000000000000005f82015250565b5f611677601383611164565b915061168282611643565b602082019050919050565b5f6020820190508181035f8301526116a48161166b565b9050919050565b7f416c726561647920696e697469616c697a6564000000000000000000000000005f82015250565b5f6116df601383611164565b91506116ea826116ab565b602082019050919050565b5f6020820190508181035f83015261170c816116d3565b905091905056fea2646970667358221220c317f47b0a0a680b6661a42632d7c135793a93d236bc1a931d11db60293963de64736f6c634300081c0033","linkReferences":{}},"methodIdentifiers":{"cancel()":"ea8a1af0","canceled()":"3f9942ff","hashlock()":"a782086e","initialize(address,address,bytes32,uint256,address)":"fb3a05a0","lock(uint256)":"dd467064","locked()":"cf309012","maker()":"50655d8c","taker()":"782b3602","timelock()":"d33219b4","tokenAddress()":"9d76ea58","withdraw(bytes32)":"8e19899e","withdrawn()":"c80ec522"},"id":18}