{"abi":[{"type":"function","name":"deployEscrowDst","inputs":[{"name":"maker","type":"address","internalType":"address"},{"name":"taker","type":"address","internalType":"address"},{"name":"hashlock","type":"bytes32","internalType":"bytes32"},{"name":"timelock","type":"uint256","internalType":"uint256"},{"name":"tokenAddress","type":"address","internalType":"address"},{"name":"amount","type":"uint256","internalType":"uint256"}],"outputs":[{"name":"","type":"address","internalType":"address"}],"stateMutability":"nonpayable"},{"type":"function","name":"deployEscrowSrc","inputs":[{"name":"maker","type":"address","internalType":"address"},{"name":"taker","type":"address","internalType":"address"},{"name":"hashlock","type":"bytes32","internalType":"bytes32"},{"name":"timelock","type":"uint256","internalType":"uint256"},{"name":"tokenAddress","type":"address","internalType":"address"}],"outputs":[{"name":"","type":"address","internalType":"address"}],"stateMutability":"payable"},{"type":"event","name":"EscrowDstDeployed","inputs":[{"name":"escrow","type":"address","indexed":true,"internalType":"address"}],"anonymous":false},{"type":"event","name":"EscrowSrcDeployed","inputs":[{"name":"escrow","type":"address","indexed":true,"internalType":"address"}],"anonymous":false}],"bytecode":{"object":"0x6080604052348015600e575f5ffd5b5061317d8061001c5f395ff3fe608060405260043610610028575f3560e01c806318c1a3a51461002c578063f91d812b1461005c575b5f5ffd5b610046600480360381019061004191906103a0565b610098565b6040516100539190610426565b60405180910390f35b348015610067575f5ffd5b50610082600480360381019061007d919061043f565b610232565b60405161008f9190610426565b60405180910390f35b5f5f6040516100a6906102c2565b604051809103905ff0801580156100bf573d5f5f3e3d5ffd5b5090508073ffffffffffffffffffffffffffffffffffffffff1663fb3a05a088888888886040518663ffffffff1660e01b81526004016101039594939291906104e6565b5f604051808303815f87803b15801561011a575f5ffd5b505af115801561012c573d5f5f3e3d5ffd5b505050505f3411156101e2575f8173ffffffffffffffffffffffffffffffffffffffff163460405161015d90610564565b5f6040518083038185875af1925050503d805f8114610197576040519150601f19603f3d011682016040523d82523d5f602084013e61019c565b606091505b50509050806101e0576040517f08c379a00000000000000000000000000000000000000000000000000000000081526004016101d7906105d2565b60405180910390fd5b505b8073ffffffffffffffffffffffffffffffffffffffff167f6d1385bc979814fa51dbcc04c0b28c41610bd2d9bbf4c2393b9f489c6c88e5ed60405160405180910390a28091505095945050505050565b5f5f878787878787604051610246906102cf565b610255969594939291906105f0565b604051809103905ff08015801561026e573d5f5f3e3d5ffd5b5090508073ffffffffffffffffffffffffffffffffffffffff167f6bef95e4d8a20b884faf918a0a133a320a647c5879618decd5b0b595253480fa60405160405180910390a2809150509695505050505050565b6117658061065083390190565b61139380611db583390190565b5f5ffd5b5f73ffffffffffffffffffffffffffffffffffffffff82169050919050565b5f610309826102e0565b9050919050565b610319816102ff565b8114610323575f5ffd5b50565b5f8135905061033481610310565b92915050565b5f819050919050565b61034c8161033a565b8114610356575f5ffd5b50565b5f8135905061036781610343565b92915050565b5f819050919050565b61037f8161036d565b8114610389575f5ffd5b50565b5f8135905061039a81610376565b92915050565b5f5f5f5f5f60a086880312156103b9576103b86102dc565b5b5f6103c688828901610326565b95505060206103d788828901610326565b94505060406103e888828901610359565b93505060606103f98882890161038c565b925050608061040a88828901610326565b9150509295509295909350565b610420816102ff565b82525050565b5f6020820190506104395f830184610417565b92915050565b5f5f5f5f5f5f60c08789031215610459576104586102dc565b5b5f61046689828a01610326565b965050602061047789828a01610326565b955050604061048889828a01610359565b945050606061049989828a0161038c565b93505060806104aa89828a01610326565b92505060a06104bb89828a0161038c565b9150509295509295509295565b6104d18161033a565b82525050565b6104e08161036d565b82525050565b5f60a0820190506104f95f830188610417565b6105066020830187610417565b61051360408301866104c8565b61052060608301856104d7565b61052d6080830184610417565b9695505050505050565b5f81905092915050565b50565b5f61054f5f83610537565b915061055a82610541565b5f82019050919050565b5f61056e82610544565b9150819050919050565b5f82825260208201905092915050565b7f455448207472616e73666572206661696c656420746f20657363726f770000005f82015250565b5f6105bc601d83610578565b91506105c782610588565b602082019050919050565b5f6020820190508181035f8301526105e9816105b0565b9050919050565b5f60c0820190506106035f830189610417565b6106106020830188610417565b61061d60408301876104c8565b61062a60608301866104d7565b6106376080830185610417565b61064460a08301846104d7565b97965050505050505056fe6080604052348015600e575f5ffd5b506117498061001c5f395ff3fe6080604052600436106100aa575f3560e01c8063c80ec52211610063578063c80ec522146101af578063cf309012146101d9578063d33219b414610203578063dd4670641461022d578063ea8a1af014610255578063fb3a05a01461026b576100b1565b80633f9942ff146100b557806350655d8c146100df578063782b3602146101095780638e19899e146101335780639d76ea581461015b578063a782086e14610185576100b1565b366100b157005b5f5ffd5b3480156100c0575f5ffd5b506100c9610293565b6040516100d69190610f42565b60405180910390f35b3480156100ea575f5ffd5b506100f36102a6565b6040516101009190610f9a565b60405180910390f35b348015610114575f5ffd5b5061011d6102ca565b60405161012a9190610f9a565b60405180910390f35b34801561013e575f5ffd5b5061015960048036038101906101549190610fea565b6102ef565b005b348015610166575f5ffd5b5061016f61070d565b60405161017c9190610f9a565b60405180910390f35b348015610190575f5ffd5b50610199610732565b6040516101a69190611024565b60405180910390f35b3480156101ba575f5ffd5b506101c3610738565b6040516101d09190610f42565b60405180910390f35b3480156101e4575f5ffd5b506101ed61074b565b6040516101fa9190610f42565b60405180910390f35b34801561020e575f5ffd5b5061021761075e565b6040516102249190611055565b60405180910390f35b348015610238575f5ffd5b50610253600480360381019061024e9190611098565b610764565b005b348015610260575f5ffd5b50610269610a3a565b005b348015610276575f5ffd5b50610291600480360381019061028c91906110ed565b610de9565b005b600460159054906101000a900460ff1681565b5f5f9054906101000a900473ffffffffffffffffffffffffffffffffffffffff1681565b60015f9054906101000a900473ffffffffffffffffffffffffffffffffffffffff1681565b60015f9054906101000a900473ffffffffffffffffffffffffffffffffffffffff1673ffffffffffffffffffffffffffffffffffffffff163373ffffffffffffffffffffffffffffffffffffffff161461037e576040517f08c379a0000000000000000000000000000000000000000000000000000000008152600401610375906111be565b60405180910390fd5b600460149054906101000a900460ff161580156103a85750600460159054906101000a900460ff16155b6103e7576040517f08c379a00000000000000000000000000000000000000000000000000000000081526004016103de90611226565b60405180910390fd5b6003546002826040516020016103fd9190611264565b60405160208183030381529060405260405161041991906112d0565b602060405180830381855afa158015610434573d5f5f3e3d5ffd5b5050506040513d601f19601f8201168201806040525081019061045791906112fa565b14610497576040517f08c379a000000000000000000000000000000000000000000000000000000000815260040161048e9061136f565b60405180910390fd5b6001600460146101000a81548160ff0219169083151502179055505f73ffffffffffffffffffffffffffffffffffffffff1660045f9054906101000a900473ffffffffffffffffffffffffffffffffffffffff1673ffffffffffffffffffffffffffffffffffffffff16036105705760015f9054906101000a900473ffffffffffffffffffffffffffffffffffffffff1673ffffffffffffffffffffffffffffffffffffffff166108fc4790811502906040515f60405180830381858888f1935050505015801561056a573d5f5f3e3d5ffd5b5061070a565b5f60045f9054906101000a900473ffffffffffffffffffffffffffffffffffffffff1673ffffffffffffffffffffffffffffffffffffffff166370a08231306040518263ffffffff1660e01b81526004016105cb9190610f9a565b602060405180830381865afa1580156105e6573d5f5f3e3d5ffd5b505050506040513d601f19601f8201168201806040525081019061060a91906113a1565b905060045f9054906101000a900473ffffffffffffffffffffffffffffffffffffffff1673ffffffffffffffffffffffffffffffffffffffff1663a9059cbb60015f9054906101000a900473ffffffffffffffffffffffffffffffffffffffff16836040518363ffffffff1660e01b81526004016106899291906113cc565b6020604051808303815f875af11580156106a5573d5f5f3e3d5ffd5b505050506040513d601f19601f820116820180604052508101906106c9919061141d565b610708576040517f08c379a00000000000000000000000000000000000000000000000000000000081526004016106ff90611492565b60405180910390fd5b505b50565b60045f9054906101000a900473ffffffffffffffffffffffffffffffffffffffff1681565b60035481565b600460149054906101000a900460ff1681565b600460179054906101000a900460ff1681565b60025481565b5f5f9054906101000a900473ffffffffffffffffffffffffffffffffffffffff1673ffffffffffffffffffffffffffffffffffffffff163373ffffffffffffffffffffffffffffffffffffffff16146107f2576040517f08c379a00000000000000000000000000000000000000000000000000000000081526004016107e9906114fa565b60405180910390fd5b600460149054906101000a900460ff1615801561081c5750600460159054906101000a900460ff16155b61085b576040517f08c379a000000000000000000000000000000000000000000000000000000000815260040161085290611226565b60405180910390fd5b5f73ffffffffffffffffffffffffffffffffffffffff1660045f9054906101000a900473ffffffffffffffffffffffffffffffffffffffff1673ffffffffffffffffffffffffffffffffffffffff16036108ea576040517f08c379a00000000000000000000000000000000000000000000000000000000081526004016108e190611588565b60405180910390fd5b600460179054906101000a900460ff161561093a576040517f08c379a0000000000000000000000000000000000000000000000000000000008152600401610931906115f0565b60405180910390fd5b6001600460176101000a81548160ff0219169083151502179055505f60045f9054906101000a900473ffffffffffffffffffffffffffffffffffffffff1673ffffffffffffffffffffffffffffffffffffffff166323b872dd3330856040518463ffffffff1660e01b81526004016109b49392919061160e565b6020604051808303815f875af11580156109d0573d5f5f3e3d5ffd5b505050506040513d601f19601f820116820180604052508101906109f4919061141d565b905080610a36576040517f08c379a0000000000000000000000000000000000000000000000000000000008152600401610a2d90611492565b60405180910390fd5b5050565b5f5f9054906101000a900473ffffffffffffffffffffffffffffffffffffffff1673ffffffffffffffffffffffffffffffffffffffff163373ffffffffffffffffffffffffffffffffffffffff1614610ac8576040517f08c379a0000000000000000000000000000000000000000000000000000000008152600401610abf906114fa565b60405180910390fd5b600460149054906101000a900460ff16158015610af25750600460159054906101000a900460ff16155b610b31576040517f08c379a0000000000000000000000000000000000000000000000000000000008152600401610b2890611226565b60405180910390fd5b600254421015610b76576040517f08c379a0000000000000000000000000000000000000000000000000000000008152600401610b6d9061168d565b60405180910390fd5b6001600460156101000a81548160ff0219169083151502179055505f73ffffffffffffffffffffffffffffffffffffffff1660045f9054906101000a900473ffffffffffffffffffffffffffffffffffffffff1673ffffffffffffffffffffffffffffffffffffffff1603610c4e575f5f9054906101000a900473ffffffffffffffffffffffffffffffffffffffff1673ffffffffffffffffffffffffffffffffffffffff166108fc4790811502906040515f60405180830381858888f19350505050158015610c48573d5f5f3e3d5ffd5b50610de7565b5f60045f9054906101000a900473ffffffffffffffffffffffffffffffffffffffff1673ffffffffffffffffffffffffffffffffffffffff166370a08231306040518263ffffffff1660e01b8152600401610ca99190610f9a565b602060405180830381865afa158015610cc4573d5f5f3e3d5ffd5b505050506040513d601f19601f82011682018060405250810190610ce891906113a1565b905060045f9054906101000a900473ffffffffffffffffffffffffffffffffffffffff1673ffffffffffffffffffffffffffffffffffffffff1663a9059cbb5f5f9054906101000a900473ffffffffffffffffffffffffffffffffffffffff16836040518363ffffffff1660e01b8152600401610d669291906113cc565b6020604051808303815f875af1158015610d82573d5f5f3e3d5ffd5b505050506040513d601f19601f82011682018060405250810190610da6919061141d565b610de5576040517f08c379a0000000000000000000000000000000000000000000000000000000008152600401610ddc90611492565b60405180910390fd5b505b565b600460169054906101000a900460ff1615610e39576040517f08c379a0000000000000000000000000000000000000000000000000000000008152600401610e30906116f5565b60405180910390fd5b845f5f6101000a81548173ffffffffffffffffffffffffffffffffffffffff021916908373ffffffffffffffffffffffffffffffffffffffff1602179055508360015f6101000a81548173ffffffffffffffffffffffffffffffffffffffff021916908373ffffffffffffffffffffffffffffffffffffffff16021790555082600381905550816002819055508060045f6101000a81548173ffffffffffffffffffffffffffffffffffffffff021916908373ffffffffffffffffffffffffffffffffffffffff1602179055506001600460166101000a81548160ff0219169083151502179055505050505050565b5f8115159050919050565b610f3c81610f28565b82525050565b5f602082019050610f555f830184610f33565b92915050565b5f73ffffffffffffffffffffffffffffffffffffffff82169050919050565b5f610f8482610f5b565b9050919050565b610f9481610f7a565b82525050565b5f602082019050610fad5f830184610f8b565b92915050565b5f5ffd5b5f819050919050565b610fc981610fb7565b8114610fd3575f5ffd5b50565b5f81359050610fe481610fc0565b92915050565b5f60208284031215610fff57610ffe610fb3565b5b5f61100c84828501610fd6565b91505092915050565b61101e81610fb7565b82525050565b5f6020820190506110375f830184611015565b92915050565b5f819050919050565b61104f8161103d565b82525050565b5f6020820190506110685f830184611046565b92915050565b6110778161103d565b8114611081575f5ffd5b50565b5f813590506110928161106e565b92915050565b5f602082840312156110ad576110ac610fb3565b5b5f6110ba84828501611084565b91505092915050565b6110cc81610f7a565b81146110d6575f5ffd5b50565b5f813590506110e7816110c3565b92915050565b5f5f5f5f5f60a0868803121561110657611105610fb3565b5b5f611113888289016110d9565b9550506020611124888289016110d9565b945050604061113588828901610fd6565b935050606061114688828901611084565b9250506080611157888289016110d9565b9150509295509295909350565b5f82825260208201905092915050565b7f4f6e6c792074616b6572000000000000000000000000000000000000000000005f82015250565b5f6111a8600a83611164565b91506111b382611174565b602082019050919050565b5f6020820190508181035f8301526111d58161119c565b9050919050565b7f457363726f7720696e61637469766500000000000000000000000000000000005f82015250565b5f611210600f83611164565b915061121b826111dc565b602082019050919050565b5f6020820190508181035f83015261123d81611204565b9050919050565b5f819050919050565b61125e61125982610fb7565b611244565b82525050565b5f61126f828461124d565b60208201915081905092915050565b5f81519050919050565b5f81905092915050565b8281835e5f83830152505050565b5f6112aa8261127e565b6112b48185611288565b93506112c4818560208601611292565b80840191505092915050565b5f6112db82846112a0565b915081905092915050565b5f815190506112f481610fc0565b92915050565b5f6020828403121561130f5761130e610fb3565b5b5f61131c848285016112e6565b91505092915050565b7f496e76616c6964207365637265740000000000000000000000000000000000005f82015250565b5f611359600e83611164565b915061136482611325565b602082019050919050565b5f6020820190508181035f8301526113868161134d565b9050919050565b5f8151905061139b8161106e565b92915050565b5f602082840312156113b6576113b5610fb3565b5b5f6113c38482850161138d565b91505092915050565b5f6040820190506113df5f830185610f8b565b6113ec6020830184611046565b9392505050565b6113fc81610f28565b8114611406575f5ffd5b50565b5f81519050611417816113f3565b92915050565b5f6020828403121561143257611431610fb3565b5b5f61143f84828501611409565b91505092915050565b7f546f6b656e207472616e73666572206661696c656400000000000000000000005f82015250565b5f61147c601583611164565b915061148782611448565b602082019050919050565b5f6020820190508181035f8301526114a981611470565b9050919050565b7f4f6e6c79206d616b6572000000000000000000000000000000000000000000005f82015250565b5f6114e4600a83611164565b91506114ef826114b0565b602082019050919050565b5f6020820190508181035f830152611511816114d8565b9050919050565b7f4e617469766520746f6b656e206e6f7420737570706f7274656420696e206c6f5f8201527f636b282900000000000000000000000000000000000000000000000000000000602082015250565b5f611572602483611164565b915061157d82611518565b604082019050919050565b5f6020820190508181035f83015261159f81611566565b9050919050565b7f416c7265616479206c6f636b65640000000000000000000000000000000000005f82015250565b5f6115da600e83611164565b91506115e5826115a6565b602082019050919050565b5f6020820190508181035f830152611607816115ce565b9050919050565b5f6060820190506116215f830186610f8b565b61162e6020830185610f8b565b61163b6040830184611046565b949350505050565b7f546f6f206561726c7920746f2063616e63656c000000000000000000000000005f82015250565b5f611677601383611164565b915061168282611643565b602082019050919050565b5f6020820190508181035f8301526116a48161166b565b9050919050565b7f416c726561647920696e697469616c697a6564000000000000000000000000005f82015250565b5f6116df601383611164565b91506116ea826116ab565b602082019050919050565b5f6020820190508181035f83015261170c816116d3565b905091905056fea2646970667358221220c317f47b0a0a680b6661a42632d7c135793a93d236bc1a931d11db60293963de64736f6c634300081c0033608060405234801561000f575f5ffd5b50604051611393380380611393833981810160405281019061003191906101d4565b855f5f6101000a81548173ffffffffffffffffffffffffffffffffffffffff021916908373ffffffffffffffffffffffffffffffffffffffff1602179055508460015f6101000a81548173ffffffffffffffffffffffffffffffffffffffff021916908373ffffffffffffffffffffffffffffffffffffffff16021790555083600581905550826003819055508160025f6101000a81548173ffffffffffffffffffffffffffffffffffffffff021916908373ffffffffffffffffffffffffffffffffffffffff1602179055508060048190555050505050505061025d565b5f5ffd5b5f73ffffffffffffffffffffffffffffffffffffffff82169050919050565b5f61013d82610114565b9050919050565b61014d81610133565b8114610157575f5ffd5b50565b5f8151905061016881610144565b92915050565b5f819050919050565b6101808161016e565b811461018a575f5ffd5b50565b5f8151905061019b81610177565b92915050565b5f819050919050565b6101b3816101a1565b81146101bd575f5ffd5b50565b5f815190506101ce816101aa565b92915050565b5f5f5f5f5f5f60c087890312156101ee576101ed610110565b5b5f6101fb89828a0161015a565b965050602061020c89828a0161015a565b955050604061021d89828a0161018d565b945050606061022e89828a016101c0565b935050608061023f89828a0161015a565b92505060a061025089828a016101c0565b9150509295509295509295565b6111298061026a5f395ff3fe608060405234801561000f575f5ffd5b50600436106100b2575f3560e01c8063aa8c217c1161006f578063aa8c217c14610168578063c80ec52214610186578063cf309012146101a4578063d33219b4146101c2578063ea8a1af0146101e0578063f83d08ba146101ea576100b2565b80633f9942ff146100b657806350655d8c146100d4578063782b3602146100f25780638e19899e146101105780639d76ea581461012c578063a782086e1461014a575b5f5ffd5b6100be6101f4565b6040516100cb9190610a7d565b60405180910390f35b6100dc610207565b6040516100e99190610ad5565b60405180910390f35b6100fa61022b565b6040516101079190610ad5565b60405180910390f35b61012a60048036038101906101259190610b25565b610250565b005b610134610566565b6040516101419190610ad5565b60405180910390f35b61015261058b565b60405161015f9190610b5f565b60405180910390f35b610170610591565b60405161017d9190610b90565b60405180910390f35b61018e610597565b60405161019b9190610a7d565b60405180910390f35b6101ac6105a9565b6040516101b99190610a7d565b60405180910390f35b6101ca6105bc565b6040516101d79190610b90565b60405180910390f35b6101e86105c2565b005b6101f261081c565b005b600660019054906101000a900460ff1681565b5f5f9054906101000a900473ffffffffffffffffffffffffffffffffffffffff1681565b60015f9054906101000a900473ffffffffffffffffffffffffffffffffffffffff1681565b60015f9054906101000a900473ffffffffffffffffffffffffffffffffffffffff1673ffffffffffffffffffffffffffffffffffffffff163373ffffffffffffffffffffffffffffffffffffffff16146102df576040517f08c379a00000000000000000000000000000000000000000000000000000000081526004016102d690610c03565b60405180910390fd5b60065f9054906101000a900460ff161580156103085750600660019054906101000a900460ff16155b610347576040517f08c379a000000000000000000000000000000000000000000000000000000000815260040161033e90610c6b565b60405180910390fd5b600660029054906101000a900460ff16610396576040517f08c379a000000000000000000000000000000000000000000000000000000000815260040161038d90610cd3565b60405180910390fd5b6005546002826040516020016103ac9190610d11565b6040516020818303038152906040526040516103c89190610d7d565b602060405180830381855afa1580156103e3573d5f5f3e3d5ffd5b5050506040513d601f19601f820116820180604052508101906104069190610da7565b14610446576040517f08c379a000000000000000000000000000000000000000000000000000000000815260040161043d90610e1c565b60405180910390fd5b600160065f6101000a81548160ff0219169083151502179055505f60025f9054906101000a900473ffffffffffffffffffffffffffffffffffffffff1673ffffffffffffffffffffffffffffffffffffffff1663a9059cbb60015f9054906101000a900473ffffffffffffffffffffffffffffffffffffffff166004546040518363ffffffff1660e01b81526004016104e0929190610e3a565b6020604051808303815f875af11580156104fc573d5f5f3e3d5ffd5b505050506040513d601f19601f820116820180604052508101906105209190610e8b565b905080610562576040517f08c379a000000000000000000000000000000000000000000000000000000000815260040161055990610f00565b60405180910390fd5b5050565b60025f9054906101000a900473ffffffffffffffffffffffffffffffffffffffff1681565b60055481565b60045481565b60065f9054906101000a900460ff1681565b600660029054906101000a900460ff1681565b60035481565b5f5f9054906101000a900473ffffffffffffffffffffffffffffffffffffffff1673ffffffffffffffffffffffffffffffffffffffff163373ffffffffffffffffffffffffffffffffffffffff1614610650576040517f08c379a000000000000000000000000000000000000000000000000000000000815260040161064790610f68565b60405180910390fd5b60065f9054906101000a900460ff161580156106795750600660019054906101000a900460ff16155b6106b8576040517f08c379a00000000000000000000000000000000000000000000000000000000081526004016106af90610c6b565b60405180910390fd5b6003544210156106fd576040517f08c379a00000000000000000000000000000000000000000000000000000000081526004016106f490610fd0565b60405180910390fd5b6001600660016101000a81548160ff0219169083151502179055505f60025f9054906101000a900473ffffffffffffffffffffffffffffffffffffffff1673ffffffffffffffffffffffffffffffffffffffff1663a9059cbb5f5f9054906101000a900473ffffffffffffffffffffffffffffffffffffffff166004546040518363ffffffff1660e01b8152600401610797929190610e3a565b6020604051808303815f875af11580156107b3573d5f5f3e3d5ffd5b505050506040513d601f19601f820116820180604052508101906107d79190610e8b565b905080610819576040517f08c379a000000000000000000000000000000000000000000000000000000000815260040161081090611038565b60405180910390fd5b50565b5f5f9054906101000a900473ffffffffffffffffffffffffffffffffffffffff1673ffffffffffffffffffffffffffffffffffffffff163373ffffffffffffffffffffffffffffffffffffffff16146108aa576040517f08c379a00000000000000000000000000000000000000000000000000000000081526004016108a190610f68565b60405180910390fd5b60065f9054906101000a900460ff161580156108d35750600660019054906101000a900460ff16155b610912576040517f08c379a000000000000000000000000000000000000000000000000000000000815260040161090990610c6b565b60405180910390fd5b600660029054906101000a900460ff1615610962576040517f08c379a0000000000000000000000000000000000000000000000000000000008152600401610959906110a0565b60405180910390fd5b6001600660026101000a81548160ff0219169083151502179055505f60025f9054906101000a900473ffffffffffffffffffffffffffffffffffffffff1673ffffffffffffffffffffffffffffffffffffffff166323b872dd33306004546040518463ffffffff1660e01b81526004016109de939291906110be565b6020604051808303815f875af11580156109fa573d5f5f3e3d5ffd5b505050506040513d601f19601f82011682018060405250810190610a1e9190610e8b565b905080610a60576040517f08c379a0000000000000000000000000000000000000000000000000000000008152600401610a5790610f00565b60405180910390fd5b50565b5f8115159050919050565b610a7781610a63565b82525050565b5f602082019050610a905f830184610a6e565b92915050565b5f73ffffffffffffffffffffffffffffffffffffffff82169050919050565b5f610abf82610a96565b9050919050565b610acf81610ab5565b82525050565b5f602082019050610ae85f830184610ac6565b92915050565b5f5ffd5b5f819050919050565b610b0481610af2565b8114610b0e575f5ffd5b50565b5f81359050610b1f81610afb565b92915050565b5f60208284031215610b3a57610b39610aee565b5b5f610b4784828501610b11565b91505092915050565b610b5981610af2565b82525050565b5f602082019050610b725f830184610b50565b92915050565b5f819050919050565b610b8a81610b78565b82525050565b5f602082019050610ba35f830184610b81565b92915050565b5f82825260208201905092915050565b7f4f6e6c792074616b6572000000000000000000000000000000000000000000005f82015250565b5f610bed600a83610ba9565b9150610bf882610bb9565b602082019050919050565b5f6020820190508181035f830152610c1a81610be1565b9050919050565b7f457363726f7720696e61637469766500000000000000000000000000000000005f82015250565b5f610c55600f83610ba9565b9150610c6082610c21565b602082019050919050565b5f6020820190508181035f830152610c8281610c49565b9050919050565b7f546f6b656e73206e6f74206c6f636b65642079657400000000000000000000005f82015250565b5f610cbd601583610ba9565b9150610cc882610c89565b602082019050919050565b5f6020820190508181035f830152610cea81610cb1565b9050919050565b5f819050919050565b610d0b610d0682610af2565b610cf1565b82525050565b5f610d1c8284610cfa565b60208201915081905092915050565b5f81519050919050565b5f81905092915050565b8281835e5f83830152505050565b5f610d5782610d2b565b610d618185610d35565b9350610d71818560208601610d3f565b80840191505092915050565b5f610d888284610d4d565b915081905092915050565b5f81519050610da181610afb565b92915050565b5f60208284031215610dbc57610dbb610aee565b5b5f610dc984828501610d93565b91505092915050565b7f496e76616c6964207365637265740000000000000000000000000000000000005f82015250565b5f610e06600e83610ba9565b9150610e1182610dd2565b602082019050919050565b5f6020820190508181035f830152610e3381610dfa565b9050919050565b5f604082019050610e4d5f830185610ac6565b610e5a6020830184610b81565b9392505050565b610e6a81610a63565b8114610e74575f5ffd5b50565b5f81519050610e8581610e61565b92915050565b5f60208284031215610ea057610e9f610aee565b5b5f610ead84828501610e77565b91505092915050565b7f546f6b656e207472616e73666572206661696c656400000000000000000000005f82015250565b5f610eea601583610ba9565b9150610ef582610eb6565b602082019050919050565b5f6020820190508181035f830152610f1781610ede565b9050919050565b7f4f6e6c79206d616b6572000000000000000000000000000000000000000000005f82015250565b5f610f52600a83610ba9565b9150610f5d82610f1e565b602082019050919050565b5f6020820190508181035f830152610f7f81610f46565b9050919050565b7f546f6f206561726c7920746f2063616e63656c000000000000000000000000005f82015250565b5f610fba601383610ba9565b9150610fc582610f86565b602082019050919050565b5f6020820190508181035f830152610fe781610fae565b9050919050565b7f526566756e6420746f206d616b6572206661696c6564000000000000000000005f82015250565b5f611022601683610ba9565b915061102d82610fee565b602082019050919050565b5f6020820190508181035f83015261104f81611016565b9050919050565b7f416c7265616479206c6f636b65640000000000000000000000000000000000005f82015250565b5f61108a600e83610ba9565b915061109582611056565b602082019050919050565b5f6020820190508181035f8301526110b78161107e565b9050919050565b5f6060820190506110d15f830186610ac6565b6110de6020830185610ac6565b6110eb6040830184610b81565b94935050505056fea26469706673582212204eb3f8862055a98ccd9bc831b0b0ea45a14d0e74538b1fda38237f7dd7b3bc2d64736f6c634300081c0033a2646970667358221220af19c127ce6a094c0f1d5e7a9ea3ad66077e2b92a4927dd1f0ee1147e4f4467464736f6c634300081c0033","linkReferences":{}},"methodIdentifiers":{"deployEscrowDst(address,address,bytes32,uint256,address,uint256)":"f91d812b","deployEscrowSrc(address,address,bytes32,uint256,address)":"18c1a3a5"},"id":17}