{"abi":[{"type":"function","name":"deployEscrowDst","inputs":[{"name":"maker","type":"address","internalType":"address"},{"name":"taker","type":"address","internalType":"address"},{"name":"hashlock","type":"bytes32","internalType":"bytes32"},{"name":"timelock","type":"uint256","internalType":"uint256"},{"name":"tokenAddress","type":"address","internalType":"address"},{"name":"amount","type":"uint256","internalType":"uint256"}],"outputs":[{"name":"","type":"address","internalType":"address"}],"stateMutability":"nonpayable"},{"type":"function","name":"deployEscrowSrc","inputs":[{"name":"taker","type":"address","internalType":"address"},{"name":"hashlock","type":"bytes32","internalType":"bytes32"},{"name":"timelock","type":"uint256","internalType":"uint256"},{"name":"tokenAddress","type":"address","internalType":"address"}],"outputs":[{"name":"","type":"address","internalType":"address"}],"stateMutability":"payable"},{"type":"event","name":"EscrowDstDeployed","inputs":[{"name":"escrow","type":"address","indexed":true,"internalType":"address"}],"anonymous":false},{"type":"event","name":"EscrowSrcDeployed","inputs":[{"name":"escrow","type":"address","indexed":true,"internalType":"address"}],"anonymous":false}],"bytecode":{"object":"0x6080604052348015600e575f5ffd5b506128d68061001c5f395ff3fe608060405260043610610028575f3560e01c8063e05774261461002c578063f91d812b1461005c575b5f5ffd5b6100466004803603810190610041919061039f565b610098565b6040516100539190610412565b60405180910390f35b348015610067575f5ffd5b50610082600480360381019061007d919061042b565b610231565b60405161008f9190610412565b60405180910390f35b5f5f6040516100a6906102c1565b604051809103905ff0801580156100bf573d5f5f3e3d5ffd5b5090508073ffffffffffffffffffffffffffffffffffffffff1663fb3a05a033888888886040518663ffffffff1660e01b81526004016101039594939291906104d2565b5f604051808303815f87803b15801561011a575f5ffd5b505af115801561012c573d5f5f3e3d5ffd5b505050505f3411156101e2575f8173ffffffffffffffffffffffffffffffffffffffff163460405161015d90610550565b5f6040518083038185875af1925050503d805f8114610197576040519150601f19603f3d011682016040523d82523d5f602084013e61019c565b606091505b50509050806101e0576040517f08c379a00000000000000000000000000000000000000000000000000000000081526004016101d7906105be565b60405180910390fd5b505b8073ffffffffffffffffffffffffffffffffffffffff167f6d1385bc979814fa51dbcc04c0b28c41610bd2d9bbf4c2393b9f489c6c88e5ed60405160405180910390a280915050949350505050565b5f5f878787878787604051610245906102ce565b610254969594939291906105dc565b604051809103905ff08015801561026d573d5f5f3e3d5ffd5b5090508073ffffffffffffffffffffffffffffffffffffffff167f6bef95e4d8a20b884faf918a0a133a320a647c5879618decd5b0b595253480fa60405160405180910390a2809150509695505050505050565b6112be8061063c83390190565b610fa7806118fa83390190565b5f5ffd5b5f73ffffffffffffffffffffffffffffffffffffffff82169050919050565b5f610308826102df565b9050919050565b610318816102fe565b8114610322575f5ffd5b50565b5f813590506103338161030f565b92915050565b5f819050919050565b61034b81610339565b8114610355575f5ffd5b50565b5f8135905061036681610342565b92915050565b5f819050919050565b61037e8161036c565b8114610388575f5ffd5b50565b5f8135905061039981610375565b92915050565b5f5f5f5f608085870312156103b7576103b66102db565b5b5f6103c487828801610325565b94505060206103d587828801610358565b93505060406103e68782880161038b565b92505060606103f787828801610325565b91505092959194509250565b61040c816102fe565b82525050565b5f6020820190506104255f830184610403565b92915050565b5f5f5f5f5f5f60c08789031215610445576104446102db565b5b5f61045289828a01610325565b965050602061046389828a01610325565b955050604061047489828a01610358565b945050606061048589828a0161038b565b935050608061049689828a01610325565b92505060a06104a789828a0161038b565b9150509295509295509295565b6104bd81610339565b82525050565b6104cc8161036c565b82525050565b5f60a0820190506104e55f830188610403565b6104f26020830187610403565b6104ff60408301866104b4565b61050c60608301856104c3565b6105196080830184610403565b9695505050505050565b5f81905092915050565b50565b5f61053b5f83610523565b91506105468261052d565b5f82019050919050565b5f61055a82610530565b9150819050919050565b5f82825260208201905092915050565b7f455448207472616e73666572206661696c656420746f20657363726f770000005f82015250565b5f6105a8601d83610564565b91506105b382610574565b602082019050919050565b5f6020820190508181035f8301526105d58161059c565b9050919050565b5f60c0820190506105ef5f830189610403565b6105fc6020830188610403565b61060960408301876104b4565b61061660608301866104c3565b6106236080830185610403565b61063060a08301846104c3565b97965050505050505056fe6080604052348015600e575f5ffd5b506112a28061001c5f395ff3fe608060405260043610610094575f3560e01c8063a782086e11610058578063a782086e1461016f578063c80ec52214610199578063d33219b4146101c3578063ea8a1af0146101ed578063fb3a05a0146102035761009b565b80633f9942ff1461009f57806350655d8c146100c9578063782b3602146100f35780638e19899e1461011d5780639d76ea58146101455761009b565b3661009b57005b5f5ffd5b3480156100aa575f5ffd5b506100b361022b565b6040516100c09190610bf1565b60405180910390f35b3480156100d4575f5ffd5b506100dd61023e565b6040516100ea9190610c49565b60405180910390f35b3480156100fe575f5ffd5b50610107610262565b6040516101149190610c49565b60405180910390f35b348015610128575f5ffd5b50610143600480360381019061013e9190610c99565b610287565b005b348015610150575f5ffd5b506101596106a5565b6040516101669190610c49565b60405180910390f35b34801561017a575f5ffd5b506101836106ca565b6040516101909190610cd3565b60405180910390f35b3480156101a4575f5ffd5b506101ad6106d0565b6040516101ba9190610bf1565b60405180910390f35b3480156101ce575f5ffd5b506101d76106e3565b6040516101e49190610d04565b60405180910390f35b3480156101f8575f5ffd5b506102016106e9565b005b34801561020e575f5ffd5b5061022960048036038101906102249190610d71565b610a98565b005b600460159054906101000a900460ff1681565b5f5f9054906101000a900473ffffffffffffffffffffffffffffffffffffffff1681565b60015f9054906101000a900473ffffffffffffffffffffffffffffffffffffffff1681565b60015f9054906101000a900473ffffffffffffffffffffffffffffffffffffffff1673ffffffffffffffffffffffffffffffffffffffff163373ffffffffffffffffffffffffffffffffffffffff1614610316576040517f08c379a000000000000000000000000000000000000000000000000000000000815260040161030d90610e42565b60405180910390fd5b600460149054906101000a900460ff161580156103405750600460159054906101000a900460ff16155b61037f576040517f08c379a000000000000000000000000000000000000000000000000000000000815260040161037690610eaa565b60405180910390fd5b6003546002826040516020016103959190610ee8565b6040516020818303038152906040526040516103b19190610f54565b602060405180830381855afa1580156103cc573d5f5f3e3d5ffd5b5050506040513d601f19601f820116820180604052508101906103ef9190610f7e565b1461042f576040517f08c379a000000000000000000000000000000000000000000000000000000000815260040161042690610ff3565b60405180910390fd5b6001600460146101000a81548160ff0219169083151502179055505f73ffffffffffffffffffffffffffffffffffffffff1660045f9054906101000a900473ffffffffffffffffffffffffffffffffffffffff1673ffffffffffffffffffffffffffffffffffffffff16036105085760015f9054906101000a900473ffffffffffffffffffffffffffffffffffffffff1673ffffffffffffffffffffffffffffffffffffffff166108fc4790811502906040515f60405180830381858888f19350505050158015610502573d5f5f3e3d5ffd5b506106a2565b5f60045f9054906101000a900473ffffffffffffffffffffffffffffffffffffffff1673ffffffffffffffffffffffffffffffffffffffff166370a08231306040518263ffffffff1660e01b81526004016105639190610c49565b602060405180830381865afa15801561057e573d5f5f3e3d5ffd5b505050506040513d601f19601f820116820180604052508101906105a29190611025565b905060045f9054906101000a900473ffffffffffffffffffffffffffffffffffffffff1673ffffffffffffffffffffffffffffffffffffffff1663a9059cbb60015f9054906101000a900473ffffffffffffffffffffffffffffffffffffffff16836040518363ffffffff1660e01b8152600401610621929190611050565b6020604051808303815f875af115801561063d573d5f5f3e3d5ffd5b505050506040513d601f19601f8201168201806040525081019061066191906110a1565b6106a0576040517f08c379a000000000000000000000000000000000000000000000000000000000815260040161069790611116565b60405180910390fd5b505b50565b60045f9054906101000a900473ffffffffffffffffffffffffffffffffffffffff1681565b60035481565b600460149054906101000a900460ff1681565b60025481565b5f5f9054906101000a900473ffffffffffffffffffffffffffffffffffffffff1673ffffffffffffffffffffffffffffffffffffffff163373ffffffffffffffffffffffffffffffffffffffff1614610777576040517f08c379a000000000000000000000000000000000000000000000000000000000815260040161076e9061117e565b60405180910390fd5b600460149054906101000a900460ff161580156107a15750600460159054906101000a900460ff16155b6107e0576040517f08c379a00000000000000000000000000000000000000000000000000000000081526004016107d790610eaa565b60405180910390fd5b600254421015610825576040517f08c379a000000000000000000000000000000000000000000000000000000000815260040161081c906111e6565b60405180910390fd5b6001600460156101000a81548160ff0219169083151502179055505f73ffffffffffffffffffffffffffffffffffffffff1660045f9054906101000a900473ffffffffffffffffffffffffffffffffffffffff1673ffffffffffffffffffffffffffffffffffffffff16036108fd575f5f9054906101000a900473ffffffffffffffffffffffffffffffffffffffff1673ffffffffffffffffffffffffffffffffffffffff166108fc4790811502906040515f60405180830381858888f193505050501580156108f7573d5f5f3e3d5ffd5b50610a96565b5f60045f9054906101000a900473ffffffffffffffffffffffffffffffffffffffff1673ffffffffffffffffffffffffffffffffffffffff166370a08231306040518263ffffffff1660e01b81526004016109589190610c49565b602060405180830381865afa158015610973573d5f5f3e3d5ffd5b505050506040513d601f19601f820116820180604052508101906109979190611025565b905060045f9054906101000a900473ffffffffffffffffffffffffffffffffffffffff1673ffffffffffffffffffffffffffffffffffffffff1663a9059cbb5f5f9054906101000a900473ffffffffffffffffffffffffffffffffffffffff16836040518363ffffffff1660e01b8152600401610a15929190611050565b6020604051808303815f875af1158015610a31573d5f5f3e3d5ffd5b505050506040513d601f19601f82011682018060405250810190610a5591906110a1565b610a94576040517f08c379a0000000000000000000000000000000000000000000000000000000008152600401610a8b90611116565b60405180910390fd5b505b565b600460169054906101000a900460ff1615610ae8576040517f08c379a0000000000000000000000000000000000000000000000000000000008152600401610adf9061124e565b60405180910390fd5b845f5f6101000a81548173ffffffffffffffffffffffffffffffffffffffff021916908373ffffffffffffffffffffffffffffffffffffffff1602179055508360015f6101000a81548173ffffffffffffffffffffffffffffffffffffffff021916908373ffffffffffffffffffffffffffffffffffffffff16021790555082600381905550816002819055508060045f6101000a81548173ffffffffffffffffffffffffffffffffffffffff021916908373ffffffffffffffffffffffffffffffffffffffff1602179055506001600460166101000a81548160ff0219169083151502179055505050505050565b5f8115159050919050565b610beb81610bd7565b82525050565b5f602082019050610c045f830184610be2565b92915050565b5f73ffffffffffffffffffffffffffffffffffffffff82169050919050565b5f610c3382610c0a565b9050919050565b610c4381610c29565b82525050565b5f602082019050610c5c5f830184610c3a565b92915050565b5f5ffd5b5f819050919050565b610c7881610c66565b8114610c82575f5ffd5b50565b5f81359050610c9381610c6f565b92915050565b5f60208284031215610cae57610cad610c62565b5b5f610cbb84828501610c85565b91505092915050565b610ccd81610c66565b82525050565b5f602082019050610ce65f830184610cc4565b92915050565b5f819050919050565b610cfe81610cec565b82525050565b5f602082019050610d175f830184610cf5565b92915050565b610d2681610c29565b8114610d30575f5ffd5b50565b5f81359050610d4181610d1d565b92915050565b610d5081610cec565b8114610d5a575f5ffd5b50565b5f81359050610d6b81610d47565b92915050565b5f5f5f5f5f60a08688031215610d8a57610d89610c62565b5b5f610d9788828901610d33565b9550506020610da888828901610d33565b9450506040610db988828901610c85565b9350506060610dca88828901610d5d565b9250506080610ddb88828901610d33565b9150509295509295909350565b5f82825260208201905092915050565b7f4f6e6c792074616b6572000000000000000000000000000000000000000000005f82015250565b5f610e2c600a83610de8565b9150610e3782610df8565b602082019050919050565b5f6020820190508181035f830152610e5981610e20565b9050919050565b7f457363726f7720696e61637469766500000000000000000000000000000000005f82015250565b5f610e94600f83610de8565b9150610e9f82610e60565b602082019050919050565b5f6020820190508181035f830152610ec181610e88565b9050919050565b5f819050919050565b610ee2610edd82610c66565b610ec8565b82525050565b5f610ef38284610ed1565b60208201915081905092915050565b5f81519050919050565b5f81905092915050565b8281835e5f83830152505050565b5f610f2e82610f02565b610f388185610f0c565b9350610f48818560208601610f16565b80840191505092915050565b5f610f5f8284610f24565b915081905092915050565b5f81519050610f7881610c6f565b92915050565b5f60208284031215610f9357610f92610c62565b5b5f610fa084828501610f6a565b91505092915050565b7f496e76616c6964207365637265740000000000000000000000000000000000005f82015250565b5f610fdd600e83610de8565b9150610fe882610fa9565b602082019050919050565b5f6020820190508181035f83015261100a81610fd1565b9050919050565b5f8151905061101f81610d47565b92915050565b5f6020828403121561103a57611039610c62565b5b5f61104784828501611011565b91505092915050565b5f6040820190506110635f830185610c3a565b6110706020830184610cf5565b9392505050565b61108081610bd7565b811461108a575f5ffd5b50565b5f8151905061109b81611077565b92915050565b5f602082840312156110b6576110b5610c62565b5b5f6110c38482850161108d565b91505092915050565b7f546f6b656e207472616e73666572206661696c656400000000000000000000005f82015250565b5f611100601583610de8565b915061110b826110cc565b602082019050919050565b5f6020820190508181035f83015261112d816110f4565b9050919050565b7f4f6e6c79206d616b6572000000000000000000000000000000000000000000005f82015250565b5f611168600a83610de8565b915061117382611134565b602082019050919050565b5f6020820190508181035f8301526111958161115c565b9050919050565b7f546f6f206561726c7920746f2063616e63656c000000000000000000000000005f82015250565b5f6111d0601383610de8565b91506111db8261119c565b602082019050919050565b5f6020820190508181035f8301526111fd816111c4565b9050919050565b7f416c726561647920696e697469616c697a6564000000000000000000000000005f82015250565b5f611238601383610de8565b915061124382611204565b602082019050919050565b5f6020820190508181035f8301526112658161122c565b905091905056fea2646970667358221220eb45188eb23d18add431f56439204d119ca92a484651a278a6f4f752d7a5bda964736f6c634300081c0033608060405234801561000f575f5ffd5b50604051610fa7380380610fa7833981810160405281019061003191906101d4565b855f5f6101000a81548173ffffffffffffffffffffffffffffffffffffffff021916908373ffffffffffffffffffffffffffffffffffffffff1602179055508460015f6101000a81548173ffffffffffffffffffffffffffffffffffffffff021916908373ffffffffffffffffffffffffffffffffffffffff16021790555083600581905550826003819055508160025f6101000a81548173ffffffffffffffffffffffffffffffffffffffff021916908373ffffffffffffffffffffffffffffffffffffffff1602179055508060048190555050505050505061025d565b5f5ffd5b5f73ffffffffffffffffffffffffffffffffffffffff82169050919050565b5f61013d82610114565b9050919050565b61014d81610133565b8114610157575f5ffd5b50565b5f8151905061016881610144565b92915050565b5f819050919050565b6101808161016e565b811461018a575f5ffd5b50565b5f8151905061019b81610177565b92915050565b5f819050919050565b6101b3816101a1565b81146101bd575f5ffd5b50565b5f815190506101ce816101aa565b92915050565b5f5f5f5f5f5f60c087890312156101ee576101ed610110565b5b5f6101fb89828a0161015a565b965050602061020c89828a0161015a565b955050604061021d89828a0161018d565b945050606061022e89828a016101c0565b935050608061023f89828a0161015a565b92505060a061025089828a016101c0565b9150509295509295509295565b610d3d8061026a5f395ff3fe608060405234801561000f575f5ffd5b506004361061009c575f3560e01c8063a782086e11610064578063a782086e14610134578063aa8c217c14610152578063c80ec52214610170578063d33219b41461018e578063ea8a1af0146101ac5761009c565b80633f9942ff146100a057806350655d8c146100be578063782b3602146100dc5780638e19899e146100fa5780639d76ea5814610116575b5f5ffd5b6100a86101b6565b6040516100b59190610796565b60405180910390f35b6100c66101c9565b6040516100d391906107ee565b60405180910390f35b6100e46101ed565b6040516100f191906107ee565b60405180910390f35b610114600480360381019061010f919061083e565b610212565b005b61011e6104d9565b60405161012b91906107ee565b60405180910390f35b61013c6104fe565b6040516101499190610878565b60405180910390f35b61015a610504565b60405161016791906108a9565b60405180910390f35b61017861050a565b6040516101859190610796565b60405180910390f35b61019661051c565b6040516101a391906108a9565b60405180910390f35b6101b4610522565b005b600660019054906101000a900460ff1681565b5f5f9054906101000a900473ffffffffffffffffffffffffffffffffffffffff1681565b60015f9054906101000a900473ffffffffffffffffffffffffffffffffffffffff1681565b60015f9054906101000a900473ffffffffffffffffffffffffffffffffffffffff1673ffffffffffffffffffffffffffffffffffffffff163373ffffffffffffffffffffffffffffffffffffffff16146102a1576040517f08c379a00000000000000000000000000000000000000000000000000000000081526004016102989061091c565b60405180910390fd5b60065f9054906101000a900460ff161580156102ca5750600660019054906101000a900460ff16155b610309576040517f08c379a000000000000000000000000000000000000000000000000000000000815260040161030090610984565b60405180910390fd5b60055460028260405160200161031f91906109c2565b60405160208183030381529060405260405161033b9190610a2e565b602060405180830381855afa158015610356573d5f5f3e3d5ffd5b5050506040513d601f19601f820116820180604052508101906103799190610a58565b146103b9576040517f08c379a00000000000000000000000000000000000000000000000000000000081526004016103b090610acd565b60405180910390fd5b600160065f6101000a81548160ff0219169083151502179055505f60025f9054906101000a900473ffffffffffffffffffffffffffffffffffffffff1673ffffffffffffffffffffffffffffffffffffffff1663a9059cbb60015f9054906101000a900473ffffffffffffffffffffffffffffffffffffffff166004546040518363ffffffff1660e01b8152600401610453929190610aeb565b6020604051808303815f875af115801561046f573d5f5f3e3d5ffd5b505050506040513d601f19601f820116820180604052508101906104939190610b3c565b9050806104d5576040517f08c379a00000000000000000000000000000000000000000000000000000000081526004016104cc90610bb1565b60405180910390fd5b5050565b60025f9054906101000a900473ffffffffffffffffffffffffffffffffffffffff1681565b60055481565b60045481565b60065f9054906101000a900460ff1681565b60035481565b5f5f9054906101000a900473ffffffffffffffffffffffffffffffffffffffff1673ffffffffffffffffffffffffffffffffffffffff163373ffffffffffffffffffffffffffffffffffffffff16146105b0576040517f08c379a00000000000000000000000000000000000000000000000000000000081526004016105a790610c19565b60405180910390fd5b60065f9054906101000a900460ff161580156105d95750600660019054906101000a900460ff16155b610618576040517f08c379a000000000000000000000000000000000000000000000000000000000815260040161060f90610984565b60405180910390fd5b60035442101561065d576040517f08c379a000000000000000000000000000000000000000000000000000000000815260040161065490610c81565b60405180910390fd5b6001600660016101000a81548160ff0219169083151502179055505f60025f9054906101000a900473ffffffffffffffffffffffffffffffffffffffff1673ffffffffffffffffffffffffffffffffffffffff1663a9059cbb5f5f9054906101000a900473ffffffffffffffffffffffffffffffffffffffff166004546040518363ffffffff1660e01b81526004016106f7929190610aeb565b6020604051808303815f875af1158015610713573d5f5f3e3d5ffd5b505050506040513d601f19601f820116820180604052508101906107379190610b3c565b905080610779576040517f08c379a000000000000000000000000000000000000000000000000000000000815260040161077090610ce9565b60405180910390fd5b50565b5f8115159050919050565b6107908161077c565b82525050565b5f6020820190506107a95f830184610787565b92915050565b5f73ffffffffffffffffffffffffffffffffffffffff82169050919050565b5f6107d8826107af565b9050919050565b6107e8816107ce565b82525050565b5f6020820190506108015f8301846107df565b92915050565b5f5ffd5b5f819050919050565b61081d8161080b565b8114610827575f5ffd5b50565b5f8135905061083881610814565b92915050565b5f6020828403121561085357610852610807565b5b5f6108608482850161082a565b91505092915050565b6108728161080b565b82525050565b5f60208201905061088b5f830184610869565b92915050565b5f819050919050565b6108a381610891565b82525050565b5f6020820190506108bc5f83018461089a565b92915050565b5f82825260208201905092915050565b7f4f6e6c792074616b6572000000000000000000000000000000000000000000005f82015250565b5f610906600a836108c2565b9150610911826108d2565b602082019050919050565b5f6020820190508181035f830152610933816108fa565b9050919050565b7f457363726f7720696e61637469766500000000000000000000000000000000005f82015250565b5f61096e600f836108c2565b91506109798261093a565b602082019050919050565b5f6020820190508181035f83015261099b81610962565b9050919050565b5f819050919050565b6109bc6109b78261080b565b6109a2565b82525050565b5f6109cd82846109ab565b60208201915081905092915050565b5f81519050919050565b5f81905092915050565b8281835e5f83830152505050565b5f610a08826109dc565b610a1281856109e6565b9350610a228185602086016109f0565b80840191505092915050565b5f610a3982846109fe565b915081905092915050565b5f81519050610a5281610814565b92915050565b5f60208284031215610a6d57610a6c610807565b5b5f610a7a84828501610a44565b91505092915050565b7f496e76616c6964207365637265740000000000000000000000000000000000005f82015250565b5f610ab7600e836108c2565b9150610ac282610a83565b602082019050919050565b5f6020820190508181035f830152610ae481610aab565b9050919050565b5f604082019050610afe5f8301856107df565b610b0b602083018461089a565b9392505050565b610b1b8161077c565b8114610b25575f5ffd5b50565b5f81519050610b3681610b12565b92915050565b5f60208284031215610b5157610b50610807565b5b5f610b5e84828501610b28565b91505092915050565b7f546f6b656e207472616e73666572206661696c656400000000000000000000005f82015250565b5f610b9b6015836108c2565b9150610ba682610b67565b602082019050919050565b5f6020820190508181035f830152610bc881610b8f565b9050919050565b7f4f6e6c79206d616b6572000000000000000000000000000000000000000000005f82015250565b5f610c03600a836108c2565b9150610c0e82610bcf565b602082019050919050565b5f6020820190508181035f830152610c3081610bf7565b9050919050565b7f546f6f206561726c7920746f2063616e63656c000000000000000000000000005f82015250565b5f610c6b6013836108c2565b9150610c7682610c37565b602082019050919050565b5f6020820190508181035f830152610c9881610c5f565b9050919050565b7f526566756e6420746f206d616b6572206661696c6564000000000000000000005f82015250565b5f610cd36016836108c2565b9150610cde82610c9f565b602082019050919050565b5f6020820190508181035f830152610d0081610cc7565b905091905056fea2646970667358221220355c0c0f1ea9c63bd19fdc515d7f598b54d3fabad4884f7da131320550800c0964736f6c634300081c0033a26469706673582212205f25ab1a1d26726cf28e79fd8d02ecf82b2d8ac7be8c257bcaa15e29434f517b64736f6c634300081c0033","linkReferences":{}},"methodIdentifiers":{"deployEscrowDst(address,address,bytes32,uint256,address,uint256)":"f91d812b","deployEscrowSrc(address,bytes32,uint256,address)":"e0577426"},"id":17}