{"abi":[{"type":"receive","stateMutability":"payable"},{"type":"function","name":"cancel","inputs":[],"outputs":[],"stateMutability":"nonpayable"},{"type":"function","name":"canceled","inputs":[],"outputs":[{"name":"","type":"bool","internalType":"bool"}],"stateMutability":"view"},{"type":"function","name":"hashlock","inputs":[],"outputs":[{"name":"","type":"bytes32","internalType":"bytes32"}],"stateMutability":"view"},{"type":"function","name":"initialize","inputs":[{"name":"_maker","type":"address","internalType":"address"},{"name":"_taker","type":"address","internalType":"address"},{"name":"_hashlock","type":"bytes32","internalType":"bytes32"},{"name":"_timelock","type":"uint256","internalType":"uint256"},{"name":"_tokenAddress","type":"address","internalType":"address"}],"outputs":[],"stateMutability":"nonpayable"},{"type":"function","name":"maker","inputs":[],"outputs":[{"name":"","type":"address","internalType":"address"}],"stateMutability":"view"},{"type":"function","name":"taker","inputs":[],"outputs":[{"name":"","type":"address","internalType":"address"}],"stateMutability":"view"},{"type":"function","name":"timelock","inputs":[],"outputs":[{"name":"","type":"uint256","internalType":"uint256"}],"stateMutability":"view"},{"type":"function","name":"tokenAddress","inputs":[],"outputs":[{"name":"","type":"address","internalType":"address"}],"stateMutability":"view"},{"type":"function","name":"withdraw","inputs":[{"name":"secret","type":"bytes32","internalType":"bytes32"}],"outputs":[],"stateMutability":"nonpayable"},{"type":"function","name":"withdrawn","inputs":[],"outputs":[{"name":"","type":"bool","internalType":"bool"}],"stateMutability":"view"}],"bytecode":{"object":"0x6080604052348015600e575f5ffd5b506112a28061001c5f395ff3fe608060405260043610610094575f3560e01c8063a782086e11610058578063a782086e1461016f578063c80ec52214610199578063d33219b4146101c3578063ea8a1af0146101ed578063fb3a05a0146102035761009b565b80633f9942ff1461009f57806350655d8c146100c9578063782b3602146100f35780638e19899e1461011d5780639d76ea58146101455761009b565b3661009b57005b5f5ffd5b3480156100aa575f5ffd5b506100b361022b565b6040516100c09190610bf1565b60405180910390f35b3480156100d4575f5ffd5b506100dd61023e565b6040516100ea9190610c49565b60405180910390f35b3480156100fe575f5ffd5b50610107610262565b6040516101149190610c49565b60405180910390f35b348015610128575f5ffd5b50610143600480360381019061013e9190610c99565b610287565b005b348015610150575f5ffd5b506101596106a5565b6040516101669190610c49565b60405180910390f35b34801561017a575f5ffd5b506101836106ca565b6040516101909190610cd3565b60405180910390f35b3480156101a4575f5ffd5b506101ad6106d0565b6040516101ba9190610bf1565b60405180910390f35b3480156101ce575f5ffd5b506101d76106e3565b6040516101e49190610d04565b60405180910390f35b3480156101f8575f5ffd5b506102016106e9565b005b34801561020e575f5ffd5b5061022960048036038101906102249190610d71565b610a98565b005b600460159054906101000a900460ff1681565b5f5f9054906101000a900473ffffffffffffffffffffffffffffffffffffffff1681565b60015f9054906101000a900473ffffffffffffffffffffffffffffffffffffffff1681565b60015f9054906101000a900473ffffffffffffffffffffffffffffffffffffffff1673ffffffffffffffffffffffffffffffffffffffff163373ffffffffffffffffffffffffffffffffffffffff1614610316576040517f08c379a000000000000000000000000000000000000000000000000000000000815260040161030d90610e42565b60405180910390fd5b600460149054906101000a900460ff161580156103405750600460159054906101000a900460ff16155b61037f576040517f08c379a000000000000000000000000000000000000000000000000000000000815260040161037690610eaa565b60405180910390fd5b6003546002826040516020016103959190610ee8565b6040516020818303038152906040526040516103b19190610f54565b602060405180830381855afa1580156103cc573d5f5f3e3d5ffd5b5050506040513d601f19601f820116820180604052508101906103ef9190610f7e565b1461042f576040517f08c379a000000000000000000000000000000000000000000000000000000000815260040161042690610ff3565b60405180910390fd5b6001600460146101000a81548160ff0219169083151502179055505f73ffffffffffffffffffffffffffffffffffffffff1660045f9054906101000a900473ffffffffffffffffffffffffffffffffffffffff1673ffffffffffffffffffffffffffffffffffffffff16036105085760015f9054906101000a900473ffffffffffffffffffffffffffffffffffffffff1673ffffffffffffffffffffffffffffffffffffffff166108fc4790811502906040515f60405180830381858888f19350505050158015610502573d5f5f3e3d5ffd5b506106a2565b5f60045f9054906101000a900473ffffffffffffffffffffffffffffffffffffffff1673ffffffffffffffffffffffffffffffffffffffff166370a08231306040518263ffffffff1660e01b81526004016105639190610c49565b602060405180830381865afa15801561057e573d5f5f3e3d5ffd5b505050506040513d601f19601f820116820180604052508101906105a29190611025565b905060045f9054906101000a900473ffffffffffffffffffffffffffffffffffffffff1673ffffffffffffffffffffffffffffffffffffffff1663a9059cbb60015f9054906101000a900473ffffffffffffffffffffffffffffffffffffffff16836040518363ffffffff1660e01b8152600401610621929190611050565b6020604051808303815f875af115801561063d573d5f5f3e3d5ffd5b505050506040513d601f19601f8201168201806040525081019061066191906110a1565b6106a0576040517f08c379a000000000000000000000000000000000000000000000000000000000815260040161069790611116565b60405180910390fd5b505b50565b60045f9054906101000a900473ffffffffffffffffffffffffffffffffffffffff1681565b60035481565b600460149054906101000a900460ff1681565b60025481565b5f5f9054906101000a900473ffffffffffffffffffffffffffffffffffffffff1673ffffffffffffffffffffffffffffffffffffffff163373ffffffffffffffffffffffffffffffffffffffff1614610777576040517f08c379a000000000000000000000000000000000000000000000000000000000815260040161076e9061117e565b60405180910390fd5b600460149054906101000a900460ff161580156107a15750600460159054906101000a900460ff16155b6107e0576040517f08c379a00000000000000000000000000000000000000000000000000000000081526004016107d790610eaa565b60405180910390fd5b600254421015610825576040517f08c379a000000000000000000000000000000000000000000000000000000000815260040161081c906111e6565b60405180910390fd5b6001600460156101000a81548160ff0219169083151502179055505f73ffffffffffffffffffffffffffffffffffffffff1660045f9054906101000a900473ffffffffffffffffffffffffffffffffffffffff1673ffffffffffffffffffffffffffffffffffffffff16036108fd575f5f9054906101000a900473ffffffffffffffffffffffffffffffffffffffff1673ffffffffffffffffffffffffffffffffffffffff166108fc4790811502906040515f60405180830381858888f193505050501580156108f7573d5f5f3e3d5ffd5b50610a96565b5f60045f9054906101000a900473ffffffffffffffffffffffffffffffffffffffff1673ffffffffffffffffffffffffffffffffffffffff166370a08231306040518263ffffffff1660e01b81526004016109589190610c49565b602060405180830381865afa158015610973573d5f5f3e3d5ffd5b505050506040513d601f19601f820116820180604052508101906109979190611025565b905060045f9054906101000a900473ffffffffffffffffffffffffffffffffffffffff1673ffffffffffffffffffffffffffffffffffffffff1663a9059cbb5f5f9054906101000a900473ffffffffffffffffffffffffffffffffffffffff16836040518363ffffffff1660e01b8152600401610a15929190611050565b6020604051808303815f875af1158015610a31573d5f5f3e3d5ffd5b505050506040513d601f19601f82011682018060405250810190610a5591906110a1565b610a94576040517f08c379a0000000000000000000000000000000000000000000000000000000008152600401610a8b90611116565b60405180910390fd5b505b565b600460169054906101000a900460ff1615610ae8576040517f08c379a0000000000000000000000000000000000000000000000000000000008152600401610adf9061124e565b60405180910390fd5b845f5f6101000a81548173ffffffffffffffffffffffffffffffffffffffff021916908373ffffffffffffffffffffffffffffffffffffffff1602179055508360015f6101000a81548173ffffffffffffffffffffffffffffffffffffffff021916908373ffffffffffffffffffffffffffffffffffffffff16021790555082600381905550816002819055508060045f6101000a81548173ffffffffffffffffffffffffffffffffffffffff021916908373ffffffffffffffffffffffffffffffffffffffff1602179055506001600460166101000a81548160ff0219169083151502179055505050505050565b5f8115159050919050565b610beb81610bd7565b82525050565b5f602082019050610c045f830184610be2565b92915050565b5f73ffffffffffffffffffffffffffffffffffffffff82169050919050565b5f610c3382610c0a565b9050919050565b610c4381610c29565b82525050565b5f602082019050610c5c5f830184610c3a565b92915050565b5f5ffd5b5f819050919050565b610c7881610c66565b8114610c82575f5ffd5b50565b5f81359050610c9381610c6f565b92915050565b5f60208284031215610cae57610cad610c62565b5b5f610cbb84828501610c85565b91505092915050565b610ccd81610c66565b82525050565b5f602082019050610ce65f830184610cc4565b92915050565b5f819050919050565b610cfe81610cec565b82525050565b5f602082019050610d175f830184610cf5565b92915050565b610d2681610c29565b8114610d30575f5ffd5b50565b5f81359050610d4181610d1d565b92915050565b610d5081610cec565b8114610d5a575f5ffd5b50565b5f81359050610d6b81610d47565b92915050565b5f5f5f5f5f60a08688031215610d8a57610d89610c62565b5b5f610d9788828901610d33565b9550506020610da888828901610d33565b9450506040610db988828901610c85565b9350506060610dca88828901610d5d565b9250506080610ddb88828901610d33565b9150509295509295909350565b5f82825260208201905092915050565b7f4f6e6c792074616b6572000000000000000000000000000000000000000000005f82015250565b5f610e2c600a83610de8565b9150610e3782610df8565b602082019050919050565b5f6020820190508181035f830152610e5981610e20565b9050919050565b7f457363726f7720696e61637469766500000000000000000000000000000000005f82015250565b5f610e94600f83610de8565b9150610e9f82610e60565b602082019050919050565b5f6020820190508181035f830152610ec181610e88565b9050919050565b5f819050919050565b610ee2610edd82610c66565b610ec8565b82525050565b5f610ef38284610ed1565b60208201915081905092915050565b5f81519050919050565b5f81905092915050565b8281835e5f83830152505050565b5f610f2e82610f02565b610f388185610f0c565b9350610f48818560208601610f16565b80840191505092915050565b5f610f5f8284610f24565b915081905092915050565b5f81519050610f7881610c6f565b92915050565b5f60208284031215610f9357610f92610c62565b5b5f610fa084828501610f6a565b91505092915050565b7f496e76616c6964207365637265740000000000000000000000000000000000005f82015250565b5f610fdd600e83610de8565b9150610fe882610fa9565b602082019050919050565b5f6020820190508181035f83015261100a81610fd1565b9050919050565b5f8151905061101f81610d47565b92915050565b5f6020828403121561103a57611039610c62565b5b5f61104784828501611011565b91505092915050565b5f6040820190506110635f830185610c3a565b6110706020830184610cf5565b9392505050565b61108081610bd7565b811461108a575f5ffd5b50565b5f8151905061109b81611077565b92915050565b5f602082840312156110b6576110b5610c62565b5b5f6110c38482850161108d565b91505092915050565b7f546f6b656e207472616e73666572206661696c656400000000000000000000005f82015250565b5f611100601583610de8565b915061110b826110cc565b602082019050919050565b5f6020820190508181035f83015261112d816110f4565b9050919050565b7f4f6e6c79206d616b6572000000000000000000000000000000000000000000005f82015250565b5f611168600a83610de8565b915061117382611134565b602082019050919050565b5f6020820190508181035f8301526111958161115c565b9050919050565b7f546f6f206561726c7920746f2063616e63656c000000000000000000000000005f82015250565b5f6111d0601383610de8565b91506111db8261119c565b602082019050919050565b5f6020820190508181035f8301526111fd816111c4565b9050919050565b7f416c726561647920696e697469616c697a6564000000000000000000000000005f82015250565b5f611238601383610de8565b915061124382611204565b602082019050919050565b5f6020820190508181035f8301526112658161122c565b905091905056fea2646970667358221220eb45188eb23d18add431f56439204d119ca92a484651a278a6f4f752d7a5bda964736f6c634300081c0033","linkReferences":{}},"methodIdentifiers":{"cancel()":"ea8a1af0","canceled()":"3f9942ff","hashlock()":"a782086e","initialize(address,address,bytes32,uint256,address)":"fb3a05a0","maker()":"50655d8c","taker()":"782b3602","timelock()":"d33219b4","tokenAddress()":"9d76ea58","withdraw(bytes32)":"8e19899e","withdrawn()":"c80ec522"},"id":18}