{"abi":[{"type":"constructor","inputs":[{"name":"_factory","type":"address","internalType":"address"}],"stateMutability":"nonpayable"},{"type":"receive","stateMutability":"payable"},{"type":"function","name":"cancelEscrow","inputs":[{"name":"escrow","type":"address","internalType":"address"}],"outputs":[],"stateMutability":"nonpayable"},{"type":"function","name":"changeOwner","inputs":[{"name":"newOwner","type":"address","internalType":"address"}],"outputs":[],"stateMutability":"nonpayable"},{"type":"function","name":"deployDstEscrow","inputs":[{"name":"maker","type":"address","internalType":"address"},{"name":"taker","type":"address","internalType":"address"},{"name":"hashlock","type":"bytes32","internalType":"bytes32"},{"name":"timelock","type":"uint256","internalType":"uint256"},{"name":"tokenAddress","type":"address","internalType":"address"},{"name":"amount","type":"uint256","internalType":"uint256"}],"outputs":[{"name":"","type":"address","internalType":"address"}],"stateMutability":"nonpayable"},{"type":"function","name":"deploySrcEscrow","inputs":[{"name":"maker","type":"address","internalType":"address"},{"name":"taker","type":"address","internalType":"address"},{"name":"hashlock","type":"bytes32","internalType":"bytes32"},{"name":"timelock","type":"uint256","internalType":"uint256"},{"name":"tokenAddress","type":"address","internalType":"address"}],"outputs":[{"name":"","type":"address","internalType":"address"}],"stateMutability":"payable"},{"type":"function","name":"factory","inputs":[],"outputs":[{"name":"","type":"address","internalType":"contract EscrowFactory"}],"stateMutability":"view"},{"type":"function","name":"owner","inputs":[],"outputs":[{"name":"","type":"address","internalType":"address"}],"stateMutability":"view"},{"type":"function","name":"withdrawFromEscrow","inputs":[{"name":"escrow","type":"address","internalType":"address"},{"name":"secret","type":"bytes32","internalType":"bytes32"}],"outputs":[],"stateMutability":"nonpayable"}],"bytecode":{"object":"0x608060405234801561000f575f5ffd5b50604051610d19380380610d1983398181016040528101906100319190610114565b335f5f6101000a81548173ffffffffffffffffffffffffffffffffffffffff021916908373ffffffffffffffffffffffffffffffffffffffff1602179055508060015f6101000a81548173ffffffffffffffffffffffffffffffffffffffff021916908373ffffffffffffffffffffffffffffffffffffffff1602179055505061013f565b5f5ffd5b5f73ffffffffffffffffffffffffffffffffffffffff82169050919050565b5f6100e3826100ba565b9050919050565b6100f3816100d9565b81146100fd575f5ffd5b50565b5f8151905061010e816100ea565b92915050565b5f60208284031215610129576101286100b6565b5b5f61013684828501610100565b91505092915050565b610bcd8061014c5f395ff3fe608060405260043610610073575f3560e01c8063a6f9dae11161004d578063a6f9dae114610100578063c45a015514610128578063e18ec29614610152578063fe7a56d31461018e5761007a565b8063266632031461007e5780635214b326146100a65780638da5cb5b146100d65761007a565b3661007a57005b5f5ffd5b348015610089575f5ffd5b506100a4600480360381019061009f91906107c1565b6101b6565b005b6100c060048036038101906100bb9190610832565b6102ae565b6040516100cd91906108b8565b60405180910390f35b3480156100e1575f5ffd5b506100ea6103ec565b6040516100f791906108b8565b60405180910390f35b34801561010b575f5ffd5b50610126600480360381019061012191906108d1565b610410565b005b348015610133575f5ffd5b5061013c6104e0565b6040516101499190610957565b60405180910390f35b34801561015d575f5ffd5b5061017860048036038101906101739190610970565b610505565b60405161018591906108b8565b60405180910390f35b348015610199575f5ffd5b506101b460048036038101906101af91906108d1565b610644565b005b5f5f9054906101000a900473ffffffffffffffffffffffffffffffffffffffff1673ffffffffffffffffffffffffffffffffffffffff163373ffffffffffffffffffffffffffffffffffffffff1614610244576040517f08c379a000000000000000000000000000000000000000000000000000000000815260040161023b90610a53565b60405180910390fd5b8173ffffffffffffffffffffffffffffffffffffffff16638e19899e826040518263ffffffff1660e01b815260040161027d9190610a80565b5f604051808303815f87803b158015610294575f5ffd5b505af11580156102a6573d5f5f3e3d5ffd5b505050505050565b5f5f5f9054906101000a900473ffffffffffffffffffffffffffffffffffffffff1673ffffffffffffffffffffffffffffffffffffffff163373ffffffffffffffffffffffffffffffffffffffff161461033d576040517f08c379a000000000000000000000000000000000000000000000000000000000815260040161033490610a53565b60405180910390fd5b60015f9054906101000a900473ffffffffffffffffffffffffffffffffffffffff1673ffffffffffffffffffffffffffffffffffffffff166318c1a3a53488888888886040518763ffffffff1660e01b81526004016103a0959493929190610aa8565b60206040518083038185885af11580156103bc573d5f5f3e3d5ffd5b50505050506040513d601f19601f820116820180604052508101906103e19190610b0d565b905095945050505050565b5f5f9054906101000a900473ffffffffffffffffffffffffffffffffffffffff1681565b5f5f9054906101000a900473ffffffffffffffffffffffffffffffffffffffff1673ffffffffffffffffffffffffffffffffffffffff163373ffffffffffffffffffffffffffffffffffffffff161461049e576040517f08c379a000000000000000000000000000000000000000000000000000000000815260040161049590610a53565b60405180910390fd5b805f5f6101000a81548173ffffffffffffffffffffffffffffffffffffffff021916908373ffffffffffffffffffffffffffffffffffffffff16021790555050565b60015f9054906101000a900473ffffffffffffffffffffffffffffffffffffffff1681565b5f5f5f9054906101000a900473ffffffffffffffffffffffffffffffffffffffff1673ffffffffffffffffffffffffffffffffffffffff163373ffffffffffffffffffffffffffffffffffffffff1614610594576040517f08c379a000000000000000000000000000000000000000000000000000000000815260040161058b90610a53565b60405180910390fd5b60015f9054906101000a900473ffffffffffffffffffffffffffffffffffffffff1673ffffffffffffffffffffffffffffffffffffffff1663f91d812b8888888888886040518763ffffffff1660e01b81526004016105f896959493929190610b38565b6020604051808303815f875af1158015610614573d5f5f3e3d5ffd5b505050506040513d601f19601f820116820180604052508101906106389190610b0d565b90509695505050505050565b5f5f9054906101000a900473ffffffffffffffffffffffffffffffffffffffff1673ffffffffffffffffffffffffffffffffffffffff163373ffffffffffffffffffffffffffffffffffffffff16146106d2576040517f08c379a00000000000000000000000000000000000000000000000000000000081526004016106c990610a53565b60405180910390fd5b8073ffffffffffffffffffffffffffffffffffffffff1663ea8a1af06040518163ffffffff1660e01b81526004015f604051808303815f87803b158015610717575f5ffd5b505af1158015610729573d5f5f3e3d5ffd5b5050505050565b5f5ffd5b5f73ffffffffffffffffffffffffffffffffffffffff82169050919050565b5f61075d82610734565b9050919050565b61076d81610753565b8114610777575f5ffd5b50565b5f8135905061078881610764565b92915050565b5f819050919050565b6107a08161078e565b81146107aa575f5ffd5b50565b5f813590506107bb81610797565b92915050565b5f5f604083850312156107d7576107d6610730565b5b5f6107e48582860161077a565b92505060206107f5858286016107ad565b9150509250929050565b5f819050919050565b610811816107ff565b811461081b575f5ffd5b50565b5f8135905061082c81610808565b92915050565b5f5f5f5f5f60a0868803121561084b5761084a610730565b5b5f6108588882890161077a565b95505060206108698882890161077a565b945050604061087a888289016107ad565b935050606061088b8882890161081e565b925050608061089c8882890161077a565b9150509295509295909350565b6108b281610753565b82525050565b5f6020820190506108cb5f8301846108a9565b92915050565b5f602082840312156108e6576108e5610730565b5b5f6108f38482850161077a565b91505092915050565b5f819050919050565b5f61091f61091a61091584610734565b6108fc565b610734565b9050919050565b5f61093082610905565b9050919050565b5f61094182610926565b9050919050565b61095181610937565b82525050565b5f60208201905061096a5f830184610948565b92915050565b5f5f5f5f5f5f60c0878903121561098a57610989610730565b5b5f61099789828a0161077a565b96505060206109a889828a0161077a565b95505060406109b989828a016107ad565b94505060606109ca89828a0161081e565b93505060806109db89828a0161077a565b92505060a06109ec89828a0161081e565b9150509295509295509295565b5f82825260208201905092915050565b7f4e6f74206f776e657200000000000000000000000000000000000000000000005f82015250565b5f610a3d6009836109f9565b9150610a4882610a09565b602082019050919050565b5f6020820190508181035f830152610a6a81610a31565b9050919050565b610a7a8161078e565b82525050565b5f602082019050610a935f830184610a71565b92915050565b610aa2816107ff565b82525050565b5f60a082019050610abb5f8301886108a9565b610ac860208301876108a9565b610ad56040830186610a71565b610ae26060830185610a99565b610aef60808301846108a9565b9695505050505050565b5f81519050610b0781610764565b92915050565b5f60208284031215610b2257610b21610730565b5b5f610b2f84828501610af9565b91505092915050565b5f60c082019050610b4b5f8301896108a9565b610b5860208301886108a9565b610b656040830187610a71565b610b726060830186610a99565b610b7f60808301856108a9565b610b8c60a0830184610a99565b97965050505050505056fea26469706673582212203d230397de09ba41cc78359a17ec1e9869fcdbe9fb560a964845f91dc6cace6664736f6c634300081c0033","linkReferences":{}},"methodIdentifiers":{"cancelEscrow(address)":"fe7a56d3","changeOwner(address)":"a6f9dae1","deployDstEscrow(address,address,bytes32,uint256,address,uint256)":"e18ec296","deploySrcEscrow(address,address,bytes32,uint256,address)":"5214b326","factory()":"c45a0155","owner()":"8da5cb5b","withdrawFromEscrow(address,bytes32)":"26663203"},"id":20}