{"abi":[{"type":"constructor","inputs":[{"name":"_factory","type":"address","internalType":"address"}],"stateMutability":"nonpayable"},{"type":"receive","stateMutability":"payable"},{"type":"function","name":"cancelEscrow","inputs":[{"name":"escrow","type":"address","internalType":"address"}],"outputs":[],"stateMutability":"nonpayable"},{"type":"function","name":"changeOwner","inputs":[{"name":"newOwner","type":"address","internalType":"address"}],"outputs":[],"stateMutability":"nonpayable"},{"type":"function","name":"deployDstEscrow","inputs":[{"name":"maker","type":"address","internalType":"address"},{"name":"taker","type":"address","internalType":"address"},{"name":"hashlock","type":"bytes32","internalType":"bytes32"},{"name":"timelock","type":"uint256","internalType":"uint256"},{"name":"tokenAddress","type":"address","internalType":"address"},{"name":"amount","type":"uint256","internalType":"uint256"}],"outputs":[{"name":"","type":"address","internalType":"address"}],"stateMutability":"nonpayable"},{"type":"function","name":"deploySrcEscrow","inputs":[{"name":"taker","type":"address","internalType":"address"},{"name":"hashlock","type":"bytes32","internalType":"bytes32"},{"name":"timelock","type":"uint256","internalType":"uint256"},{"name":"tokenAddress","type":"address","internalType":"address"}],"outputs":[{"name":"","type":"address","internalType":"address"}],"stateMutability":"payable"},{"type":"function","name":"factory","inputs":[],"outputs":[{"name":"","type":"address","internalType":"contract EscrowFactory"}],"stateMutability":"view"},{"type":"function","name":"owner","inputs":[],"outputs":[{"name":"","type":"address","internalType":"address"}],"stateMutability":"view"},{"type":"function","name":"withdrawFromEscrow","inputs":[{"name":"escrow","type":"address","internalType":"address"},{"name":"secret","type":"bytes32","internalType":"bytes32"}],"outputs":[],"stateMutability":"nonpayable"}],"bytecode":{"object":"0x608060405234801561000f575f5ffd5b50604051610cf5380380610cf583398181016040528101906100319190610114565b335f5f6101000a81548173ffffffffffffffffffffffffffffffffffffffff021916908373ffffffffffffffffffffffffffffffffffffffff1602179055508060015f6101000a81548173ffffffffffffffffffffffffffffffffffffffff021916908373ffffffffffffffffffffffffffffffffffffffff1602179055505061013f565b5f5ffd5b5f73ffffffffffffffffffffffffffffffffffffffff82169050919050565b5f6100e3826100ba565b9050919050565b6100f3816100d9565b81146100fd575f5ffd5b50565b5f8151905061010e816100ea565b92915050565b5f60208284031215610129576101286100b6565b5b5f61013684828501610100565b91505092915050565b610ba98061014c5f395ff3fe608060405260043610610073575f3560e01c8063a6f9dae11161004d578063a6f9dae114610100578063c45a015514610128578063e18ec29614610152578063fe7a56d31461018e5761007a565b8063266632031461007e5780634864d64f146100a65780638da5cb5b146100d65761007a565b3661007a57005b5f5ffd5b348015610089575f5ffd5b506100a4600480360381019061009f91906107be565b6101b6565b005b6100c060048036038101906100bb919061082f565b6102ae565b6040516100cd91906108a2565b60405180910390f35b3480156100e1575f5ffd5b506100ea6103e9565b6040516100f791906108a2565b60405180910390f35b34801561010b575f5ffd5b50610126600480360381019061012191906108bb565b61040d565b005b348015610133575f5ffd5b5061013c6104dd565b6040516101499190610941565b60405180910390f35b34801561015d575f5ffd5b506101786004803603810190610173919061095a565b610502565b60405161018591906108a2565b60405180910390f35b348015610199575f5ffd5b506101b460048036038101906101af91906108bb565b610641565b005b5f5f9054906101000a900473ffffffffffffffffffffffffffffffffffffffff1673ffffffffffffffffffffffffffffffffffffffff163373ffffffffffffffffffffffffffffffffffffffff1614610244576040517f08c379a000000000000000000000000000000000000000000000000000000000815260040161023b90610a3d565b60405180910390fd5b8173ffffffffffffffffffffffffffffffffffffffff16638e19899e826040518263ffffffff1660e01b815260040161027d9190610a6a565b5f604051808303815f87803b158015610294575f5ffd5b505af11580156102a6573d5f5f3e3d5ffd5b505050505050565b5f5f5f9054906101000a900473ffffffffffffffffffffffffffffffffffffffff1673ffffffffffffffffffffffffffffffffffffffff163373ffffffffffffffffffffffffffffffffffffffff161461033d576040517f08c379a000000000000000000000000000000000000000000000000000000000815260040161033490610a3d565b60405180910390fd5b60015f9054906101000a900473ffffffffffffffffffffffffffffffffffffffff1673ffffffffffffffffffffffffffffffffffffffff1663e057742634878787876040518663ffffffff1660e01b815260040161039e9493929190610a92565b60206040518083038185885af11580156103ba573d5f5f3e3d5ffd5b50505050506040513d601f19601f820116820180604052508101906103df9190610ae9565b9050949350505050565b5f5f9054906101000a900473ffffffffffffffffffffffffffffffffffffffff1681565b5f5f9054906101000a900473ffffffffffffffffffffffffffffffffffffffff1673ffffffffffffffffffffffffffffffffffffffff163373ffffffffffffffffffffffffffffffffffffffff161461049b576040517f08c379a000000000000000000000000000000000000000000000000000000000815260040161049290610a3d565b60405180910390fd5b805f5f6101000a81548173ffffffffffffffffffffffffffffffffffffffff021916908373ffffffffffffffffffffffffffffffffffffffff16021790555050565b60015f9054906101000a900473ffffffffffffffffffffffffffffffffffffffff1681565b5f5f5f9054906101000a900473ffffffffffffffffffffffffffffffffffffffff1673ffffffffffffffffffffffffffffffffffffffff163373ffffffffffffffffffffffffffffffffffffffff1614610591576040517f08c379a000000000000000000000000000000000000000000000000000000000815260040161058890610a3d565b60405180910390fd5b60015f9054906101000a900473ffffffffffffffffffffffffffffffffffffffff1673ffffffffffffffffffffffffffffffffffffffff1663f91d812b8888888888886040518763ffffffff1660e01b81526004016105f596959493929190610b14565b6020604051808303815f875af1158015610611573d5f5f3e3d5ffd5b505050506040513d601f19601f820116820180604052508101906106359190610ae9565b90509695505050505050565b5f5f9054906101000a900473ffffffffffffffffffffffffffffffffffffffff1673ffffffffffffffffffffffffffffffffffffffff163373ffffffffffffffffffffffffffffffffffffffff16146106cf576040517f08c379a00000000000000000000000000000000000000000000000000000000081526004016106c690610a3d565b60405180910390fd5b8073ffffffffffffffffffffffffffffffffffffffff1663ea8a1af06040518163ffffffff1660e01b81526004015f604051808303815f87803b158015610714575f5ffd5b505af1158015610726573d5f5f3e3d5ffd5b5050505050565b5f5ffd5b5f73ffffffffffffffffffffffffffffffffffffffff82169050919050565b5f61075a82610731565b9050919050565b61076a81610750565b8114610774575f5ffd5b50565b5f8135905061078581610761565b92915050565b5f819050919050565b61079d8161078b565b81146107a7575f5ffd5b50565b5f813590506107b881610794565b92915050565b5f5f604083850312156107d4576107d361072d565b5b5f6107e185828601610777565b92505060206107f2858286016107aa565b9150509250929050565b5f819050919050565b61080e816107fc565b8114610818575f5ffd5b50565b5f8135905061082981610805565b92915050565b5f5f5f5f608085870312156108475761084661072d565b5b5f61085487828801610777565b9450506020610865878288016107aa565b93505060406108768782880161081b565b925050606061088787828801610777565b91505092959194509250565b61089c81610750565b82525050565b5f6020820190506108b55f830184610893565b92915050565b5f602082840312156108d0576108cf61072d565b5b5f6108dd84828501610777565b91505092915050565b5f819050919050565b5f6109096109046108ff84610731565b6108e6565b610731565b9050919050565b5f61091a826108ef565b9050919050565b5f61092b82610910565b9050919050565b61093b81610921565b82525050565b5f6020820190506109545f830184610932565b92915050565b5f5f5f5f5f5f60c087890312156109745761097361072d565b5b5f61098189828a01610777565b965050602061099289828a01610777565b95505060406109a389828a016107aa565b94505060606109b489828a0161081b565b93505060806109c589828a01610777565b92505060a06109d689828a0161081b565b9150509295509295509295565b5f82825260208201905092915050565b7f4e6f74206f776e657200000000000000000000000000000000000000000000005f82015250565b5f610a276009836109e3565b9150610a32826109f3565b602082019050919050565b5f6020820190508181035f830152610a5481610a1b565b9050919050565b610a648161078b565b82525050565b5f602082019050610a7d5f830184610a5b565b92915050565b610a8c816107fc565b82525050565b5f608082019050610aa55f830187610893565b610ab26020830186610a5b565b610abf6040830185610a83565b610acc6060830184610893565b95945050505050565b5f81519050610ae381610761565b92915050565b5f60208284031215610afe57610afd61072d565b5b5f610b0b84828501610ad5565b91505092915050565b5f60c082019050610b275f830189610893565b610b346020830188610893565b610b416040830187610a5b565b610b4e6060830186610a83565b610b5b6080830185610893565b610b6860a0830184610a83565b97965050505050505056fea26469706673582212208c40298a94ce141d29bdc201eca5a3373f34e5346da290bd81650ab1e1f94b3a64736f6c634300081c0033","linkReferences":{}},"methodIdentifiers":{"cancelEscrow(address)":"fe7a56d3","changeOwner(address)":"a6f9dae1","deployDstEscrow(address,address,bytes32,uint256,address,uint256)":"e18ec296","deploySrcEscrow(address,bytes32,uint256,address)":"4864d64f","factory()":"c45a0155","owner()":"8da5cb5b","withdrawFromEscrow(address,bytes32)":"26663203"},"id":20}