{
  "contractName": "EscrowDst",
  "abi": [
    {
      "inputs": [
        {
          "internalType": "address",
          "name": "_maker",
          "type": "address"
        },
        {
          "internalType": "address",
          "name": "_taker",
          "type": "address"
        },
        {
          "internalType": "bytes32",
          "name": "_hashlock",
          "type": "bytes32"
        },
        {
          "internalType": "uint256",
          "name": "_timelock",
          "type": "uint256"
        }
      ],
      "stateMutability": "payable",
      "type": "constructor"
    },
    {
      "inputs": [],
      "name": "cancel",
      "outputs": [],
      "stateMutability": "nonpayable",
      "type": "function"
    },
    {
      "inputs": [],
      "name": "canceled",
      "outputs": [
        {
          "internalType": "bool",
          "name": "",
          "type": "bool"
        }
      ],
      "stateMutability": "view",
      "type": "function"
    },
    {
      "inputs": [],
      "name": "hashlock",
      "outputs": [
        {
          "internalType": "bytes32",
          "name": "",
          "type": "bytes32"
        }
      ],
      "stateMutability": "view",
      "type": "function"
    },
    {
      "inputs": [],
      "name": "maker",
      "outputs": [
        {
          "internalType": "address",
          "name": "",
          "type": "address"
        }
      ],
      "stateMutability": "view",
      "type": "function"
    },
    {
      "inputs": [],
      "name": "taker",
      "outputs": [
        {
          "internalType": "address",
          "name": "",
          "type": "address"
        }
      ],
      "stateMutability": "view",
      "type": "function"
    },
    {
      "inputs": [],
      "name": "timelock",
      "outputs": [
        {
          "internalType": "uint256",
          "name": "",
          "type": "uint256"
        }
      ],
      "stateMutability": "view",
      "type": "function"
    },
    {
      "inputs": [
        {
          "internalType": "bytes32",
          "name": "secret",
          "type": "bytes32"
        }
      ],
      "name": "withdraw",
      "outputs": [],
      "stateMutability": "nonpayable",
      "type": "function"
    },
    {
      "inputs": [],
      "name": "withdrawn",
      "outputs": [
        {
          "internalType": "bool",
          "name": "",
          "type": "bool"
        }
      ],
      "stateMutability": "view",
      "type": "function"
    },
    {
      "stateMutability": "payable",
      "type": "receive"
    }
  ],
  "bytecode": "0x608060405260405162000e2738038062000e27833981810160405281019062000029919062000114565b836000806101000a81548173ffffffffffffffffffffffffffffffffffffffff021916908373ffffffffffffffffffffffffffffffffffffffff16021790555082600160006101000a81548173ffffffffffffffffffffffffffffffffffffffff021916908373ffffffffffffffffffffffffffffffffffffffff16021790555081600381905550806002819055505050505062000242565b600081519050620000d381620001f4565b620000de8162000186565b905092915050565b600081519050620000f7816200020e565b92915050565b6000815190506200010e8162000228565b92915050565b60008060008060808587031215620001315762000130620001ef565b5b60006200014187828801620000c2565b94505060206200015487828801620000c2565b93505060406200016787828801620000e6565b92505060606200017a87828801620000fd565b91505092959194509250565b60006200019382620001a4565b9050919050565b6000819050919050565b600073ffffffffffffffffffffffffffffffffffffffff82169050919050565b600074ffffffffffffffffffffffffffffffffffffffffff82169050919050565b6000819050919050565b600080fd5b620001ff81620001c4565b81146200020b57600080fd5b50565b62000219816200019a565b81146200022557600080fd5b50565b6200023381620001e5565b81146200023f57600080fd5b50565b610bd580620002526000396000f3fe60806040526004361061007f5760003560e01c8063a782086e1161004e578063a782086e1461019d578063c80ec522146101e2578063d33219b414610227578063ea8a1af01461026c57610086565b80633f9942ff1461008b57806350655d8c146100d0578063782b3602146101155780638e19899e1461015a57610086565b3661008657005b600080fd5b34801561009757600080fd5b50d380156100a457600080fd5b50d280156100b157600080fd5b506100ba61029d565b6040516100c7919061090f565b60405180910390f35b3480156100dc57600080fd5b50d380156100e957600080fd5b50d280156100f657600080fd5b506100ff6102b0565b60405161010c91906108f4565b60405180910390f35b34801561012157600080fd5b50d3801561012e57600080fd5b50d2801561013b57600080fd5b506101446102d4565b60405161015191906108f4565b60405180910390f35b34801561016657600080fd5b50d3801561017357600080fd5b50d2801561018057600080fd5b5061019b60048036038101906101969190610735565b6102fa565b005b3480156101a957600080fd5b50d380156101b657600080fd5b50d280156101c357600080fd5b506101cc61052c565b6040516101d9919061092a565b60405180910390f35b3480156101ee57600080fd5b50d380156101fb57600080fd5b50d2801561020857600080fd5b50610211610532565b60405161021e919061090f565b60405180910390f35b34801561023357600080fd5b50d3801561024057600080fd5b50d2801561024d57600080fd5b50610256610545565b60405161026391906109e5565b60405180910390f35b34801561027857600080fd5b50d3801561028557600080fd5b50d2801561029257600080fd5b5061029b61054b565b005b600460019054906101000a900460ff1681565b60008054906101000a900473ffffffffffffffffffffffffffffffffffffffff1681565b600160009054906101000a900473ffffffffffffffffffffffffffffffffffffffff1681565b600160009054906101000a900473ffffffffffffffffffffffffffffffffffffffff1673ffffffffffffffffffffffffffffffffffffffff163373ffffffffffffffffffffffffffffffffffffffff161461038a576040517f08c379a0000000000000000000000000000000000000000000000000000000008152600401610381906109c5565b60405180910390fd5b600460009054906101000a900460ff161580156103b45750600460019054906101000a900460ff16155b6103f3576040517f08c379a00000000000000000000000000000000000000000000000000000000081526004016103ea906109a5565b60405180910390fd5b60035460028260405160200161040991906108c2565b60405160208183030381529060405260405161042591906108dd565b602060405180830381855afa158015610442573d6000803e3d6000fd5b5050506040513d601f19601f820116820180604052508101906104659190610762565b146104a5576040517f08c379a000000000000000000000000000000000000000000000000000000000815260040161049c90610945565b60405180910390fd5b6001600460006101000a81548160ff021916908315150217905550600160009054906101000a900473ffffffffffffffffffffffffffffffffffffffff1673ffffffffffffffffffffffffffffffffffffffff166108fc479081150290604051600060405180830381858888f19350505050158015610528573d6000803e3d6000fd5b5050565b60035481565b600460009054906101000a900460ff1681565b60025481565b60008054906101000a900473ffffffffffffffffffffffffffffffffffffffff1673ffffffffffffffffffffffffffffffffffffffff163373ffffffffffffffffffffffffffffffffffffffff16146105d9576040517f08c379a00000000000000000000000000000000000000000000000000000000081526004016105d090610985565b60405180910390fd5b600460009054906101000a900460ff161580156106035750600460019054906101000a900460ff16155b610642576040517f08c379a0000000000000000000000000000000000000000000000000000000008152600401610639906109a5565b60405180910390fd5b600254421015610687576040517f08c379a000000000000000000000000000000000000000000000000000000000815260040161067e90610965565b60405180910390fd5b6001600460016101000a81548160ff02191690831515021790555060008054906101000a900473ffffffffffffffffffffffffffffffffffffffff1673ffffffffffffffffffffffffffffffffffffffff166108fc479081150290604051600060405180830381858888f19350505050158015610708573d6000803e3d6000fd5b50565b60008135905061071a81610b88565b92915050565b60008151905061072f81610b88565b92915050565b60006020828403121561074b5761074a610ab6565b5b60006107598482850161070b565b91505092915050565b60006020828403121561077857610777610ab6565b5b600061078684828501610720565b91505092915050565b61079881610a27565b82525050565b6107a781610a39565b82525050565b6107b681610a45565b82525050565b6107cd6107c882610a45565b610aac565b82525050565b60006107de82610a00565b6107e88185610a0b565b93506107f8818560208601610a79565b80840191505092915050565b6000610811600e83610a16565b915061081c82610abb565b602082019050919050565b6000610834601383610a16565b915061083f82610ae4565b602082019050919050565b6000610857600a83610a16565b915061086282610b0d565b602082019050919050565b600061087a600f83610a16565b915061088582610b36565b602082019050919050565b600061089d600a83610a16565b91506108a882610b5f565b602082019050919050565b6108bc81610a6f565b82525050565b60006108ce82846107bc565b60208201915081905092915050565b60006108e982846107d3565b915081905092915050565b6000602082019050610909600083018461078f565b92915050565b6000602082019050610924600083018461079e565b92915050565b600060208201905061093f60008301846107ad565b92915050565b6000602082019050818103600083015261095e81610804565b9050919050565b6000602082019050818103600083015261097e81610827565b9050919050565b6000602082019050818103600083015261099e8161084a565b9050919050565b600060208201905081810360008301526109be8161086d565b9050919050565b600060208201905081810360008301526109de81610890565b9050919050565b60006020820190506109fa60008301846108b3565b92915050565b600081519050919050565b600081905092915050565b600082825260208201905092915050565b6000610a3282610a4f565b9050919050565b60008115159050919050565b6000819050919050565b600073ffffffffffffffffffffffffffffffffffffffff82169050919050565b6000819050919050565b60005b83811015610a97578082015181840152602081019050610a7c565b83811115610aa6576000848401525b50505050565b6000819050919050565b600080fd5b7f496e76616c696420736563726574000000000000000000000000000000000000600082015250565b7f546f6f206561726c7920746f2063616e63656c00000000000000000000000000600082015250565b7f4f6e6c79206d616b657200000000000000000000000000000000000000000000600082015250565b7f457363726f7720696e6163746976650000000000000000000000000000000000600082015250565b7f4f6e6c792074616b657200000000000000000000000000000000000000000000600082015250565b610b9181610a45565b8114610b9c57600080fd5b5056fea26474726f6e582212202b9cf9667ff3423731b75996aa746158d3a41011e38378483e4484ce30369f6d64736f6c63430008060033",
  "source": "// SPDX-License-Identifier: MIT\npragma solidity ^0.8.6;\n\ncontract EscrowDst {\n    address public maker;\n    address public taker;\n    uint256 public timelock;\n    bytes32 public hashlock;\n    bool public withdrawn;\n    bool public canceled;\n\n    constructor(address _maker, address _taker, bytes32 _hashlock, uint256 _timelock) payable {\n        maker = _maker;\n        taker = _taker;\n        hashlock = _hashlock;\n        timelock = _timelock;\n    }\n\n    modifier onlyTaker() {\n        require(msg.sender == taker, \"Only taker\");\n        _;\n    }\n\n    modifier onlyMaker() {\n        require(msg.sender == maker, \"Only maker\");\n        _;\n    }\n\n    modifier notInactive() {\n        require(!withdrawn && !canceled, \"Escrow inactive\");\n        _;\n    }\n\n    function withdraw(bytes32 secret) external onlyTaker notInactive {\n        require(sha256(abi.encodePacked(secret)) == hashlock, \"Invalid secret\");\n        withdrawn = true;\n        payable(taker).transfer(address(this).balance);\n    }\n\n    function cancel() external onlyMaker notInactive {\n        require(block.timestamp >= timelock, \"Too early to cancel\");\n        canceled = true;\n        payable(maker).transfer(address(this).balance);\n    }\n\n    receive() external payable {}\n}\n",
  "sourcePath": "/Users/deepakrathore/1inch/troninch/troninch/tron-contracts/contracts/EscrowDst.sol",
  "compiler": {
    "name": "solc",
    "version": "0.8.6+commit.0e36fba0.mod.Emscripten.clang"
  },
  "schemaVersion": "2.0.1",
  "updatedAt": "2025-08-02T18:28:49.921Z"
}