{
  "contractName": "EscrowSrc",
  "abi": [
    {
      "inputs": [],
      "name": "cancel",
      "outputs": [],
      "stateMutability": "nonpayable",
      "type": "function"
    },
    {
      "inputs": [],
      "name": "canceled",
      "outputs": [
        {
          "internalType": "bool",
          "name": "",
          "type": "bool"
        }
      ],
      "stateMutability": "view",
      "type": "function"
    },
    {
      "inputs": [],
      "name": "hashlock",
      "outputs": [
        {
          "internalType": "bytes32",
          "name": "",
          "type": "bytes32"
        }
      ],
      "stateMutability": "view",
      "type": "function"
    },
    {
      "inputs": [
        {
          "internalType": "address",
          "name": "_maker",
          "type": "address"
        },
        {
          "internalType": "address",
          "name": "_taker",
          "type": "address"
        },
        {
          "internalType": "bytes32",
          "name": "_hashlock",
          "type": "bytes32"
        },
        {
          "internalType": "uint256",
          "name": "_timelock",
          "type": "uint256"
        },
        {
          "internalType": "address",
          "name": "_tokenAddress",
          "type": "address"
        }
      ],
      "name": "initialize",
      "outputs": [],
      "stateMutability": "nonpayable",
      "type": "function"
    },
    {
      "inputs": [],
      "name": "maker",
      "outputs": [
        {
          "internalType": "address",
          "name": "",
          "type": "address"
        }
      ],
      "stateMutability": "view",
      "type": "function"
    },
    {
      "inputs": [],
      "name": "taker",
      "outputs": [
        {
          "internalType": "address",
          "name": "",
          "type": "address"
        }
      ],
      "stateMutability": "view",
      "type": "function"
    },
    {
      "inputs": [],
      "name": "timelock",
      "outputs": [
        {
          "internalType": "uint256",
          "name": "",
          "type": "uint256"
        }
      ],
      "stateMutability": "view",
      "type": "function"
    },
    {
      "inputs": [],
      "name": "tokenAddress",
      "outputs": [
        {
          "internalType": "address",
          "name": "",
          "type": "address"
        }
      ],
      "stateMutability": "view",
      "type": "function"
    },
    {
      "inputs": [
        {
          "internalType": "bytes32",
          "name": "secret",
          "type": "bytes32"
        }
      ],
      "name": "withdraw",
      "outputs": [],
      "stateMutability": "nonpayable",
      "type": "function"
    },
    {
      "inputs": [],
      "name": "withdrawn",
      "outputs": [
        {
          "internalType": "bool",
          "name": "",
          "type": "bool"
        }
      ],
      "stateMutability": "view",
      "type": "function"
    },
    {
      "stateMutability": "payable",
      "type": "receive"
    }
  ],
  "bytecode": "0x608060405234801561001057600080fd5b50d3801561001d57600080fd5b50d2801561002a57600080fd5b506114ae8061003a6000396000f3fe6080604052600436106100955760003560e01c8063a782086e11610059578063a782086e146101f8578063c80ec5221461023d578063d33219b414610282578063ea8a1af0146102c7578063fb3a05a0146102f85761009c565b80633f9942ff146100a157806350655d8c146100e6578063782b36021461012b5780638e19899e146101705780639d76ea58146101b35761009c565b3661009c57005b600080fd5b3480156100ad57600080fd5b50d380156100ba57600080fd5b50d280156100c757600080fd5b506100d061033b565b6040516100dd91906110f0565b60405180910390f35b3480156100f257600080fd5b50d380156100ff57600080fd5b50d2801561010c57600080fd5b5061011561034e565b60405161012291906110ac565b60405180910390f35b34801561013757600080fd5b50d3801561014457600080fd5b50d2801561015157600080fd5b5061015a610372565b60405161016791906110ac565b60405180910390f35b34801561017c57600080fd5b50d3801561018957600080fd5b50d2801561019657600080fd5b506101b160048036038101906101ac9190610e7a565b610398565b005b3480156101bf57600080fd5b50d380156101cc57600080fd5b50d280156101d957600080fd5b506101e26107e7565b6040516101ef91906110ac565b60405180910390f35b34801561020457600080fd5b50d3801561021157600080fd5b50d2801561021e57600080fd5b5061022761080d565b604051610234919061110b565b60405180910390f35b34801561024957600080fd5b50d3801561025657600080fd5b50d2801561026357600080fd5b5061026c610813565b60405161027991906110f0565b60405180910390f35b34801561028e57600080fd5b50d3801561029b57600080fd5b50d280156102a857600080fd5b506102b1610826565b6040516102be9190611206565b60405180910390f35b3480156102d357600080fd5b50d380156102e057600080fd5b50d280156102ed57600080fd5b506102f661082c565b005b34801561030457600080fd5b50d3801561031157600080fd5b50d2801561031e57600080fd5b5061033960048036038101906103349190610dd2565b610c07565b005b600460159054906101000a900460ff1681565b60008054906101000a900473ffffffffffffffffffffffffffffffffffffffff1681565b600160009054906101000a900473ffffffffffffffffffffffffffffffffffffffff1681565b600160009054906101000a900473ffffffffffffffffffffffffffffffffffffffff1673ffffffffffffffffffffffffffffffffffffffff163373ffffffffffffffffffffffffffffffffffffffff1614610428576040517f08c379a000000000000000000000000000000000000000000000000000000000815260040161041f906111e6565b60405180910390fd5b600460149054906101000a900460ff161580156104525750600460159054906101000a900460ff16155b610491576040517f08c379a0000000000000000000000000000000000000000000000000000000008152600401610488906111a6565b60405180910390fd5b6003546002826040516020016104a7919061107a565b6040516020818303038152906040526040516104c39190611095565b602060405180830381855afa1580156104e0573d6000803e3d6000fd5b5050506040513d601f19601f820116820180604052508101906105039190610ea7565b14610543576040517f08c379a000000000000000000000000000000000000000000000000000000000815260040161053a90611126565b60405180910390fd5b6001600460146101000a81548160ff021916908315150217905550600073ffffffffffffffffffffffffffffffffffffffff16600460009054906101000a900473ffffffffffffffffffffffffffffffffffffffff1673ffffffffffffffffffffffffffffffffffffffff16141561062357600160009054906101000a900473ffffffffffffffffffffffffffffffffffffffff1673ffffffffffffffffffffffffffffffffffffffff166108fc479081150290604051600060405180830381858888f1935050505015801561061d573d6000803e3d6000fd5b506107e4565b6000600460009054906101000a900473ffffffffffffffffffffffffffffffffffffffff1673ffffffffffffffffffffffffffffffffffffffff166370a08231306040518263ffffffff1660e01b815260040161068091906110ac565b60206040518083038186803b15801561069857600080fd5b505afa1580156106ac573d6000803e3d6000fd5b505050506040513d601f19601f820116820180604052508101906106d09190610ed4565b9050600460009054906101000a900473ffffffffffffffffffffffffffffffffffffffff1673ffffffffffffffffffffffffffffffffffffffff1663a9059cbb600160009054906101000a900473ffffffffffffffffffffffffffffffffffffffff16836040518363ffffffff1660e01b81526004016107519291906110c7565b602060405180830381600087803b15801561076b57600080fd5b505af115801561077f573d6000803e3d6000fd5b505050506040513d601f19601f820116820180604052508101906107a39190610e4d565b6107e2576040517f08c379a00000000000000000000000000000000000000000000000000000000081526004016107d990611166565b60405180910390fd5b505b50565b600460009054906101000a900473ffffffffffffffffffffffffffffffffffffffff1681565b60035481565b600460149054906101000a900460ff1681565b60025481565b60008054906101000a900473ffffffffffffffffffffffffffffffffffffffff1673ffffffffffffffffffffffffffffffffffffffff163373ffffffffffffffffffffffffffffffffffffffff16146108ba576040517f08c379a00000000000000000000000000000000000000000000000000000000081526004016108b190611186565b60405180910390fd5b600460149054906101000a900460ff161580156108e45750600460159054906101000a900460ff16155b610923576040517f08c379a000000000000000000000000000000000000000000000000000000000815260040161091a906111a6565b60405180910390fd5b600254421015610968576040517f08c379a000000000000000000000000000000000000000000000000000000000815260040161095f90611146565b60405180910390fd5b6001600460156101000a81548160ff021916908315150217905550600073ffffffffffffffffffffffffffffffffffffffff16600460009054906101000a900473ffffffffffffffffffffffffffffffffffffffff1673ffffffffffffffffffffffffffffffffffffffff161415610a465760008054906101000a900473ffffffffffffffffffffffffffffffffffffffff1673ffffffffffffffffffffffffffffffffffffffff166108fc479081150290604051600060405180830381858888f19350505050158015610a40573d6000803e3d6000fd5b50610c05565b6000600460009054906101000a900473ffffffffffffffffffffffffffffffffffffffff1673ffffffffffffffffffffffffffffffffffffffff166370a08231306040518263ffffffff1660e01b8152600401610aa391906110ac565b60206040518083038186803b158015610abb57600080fd5b505afa158015610acf573d6000803e3d6000fd5b505050506040513d601f19601f82011682018060405250810190610af39190610ed4565b9050600460009054906101000a900473ffffffffffffffffffffffffffffffffffffffff1673ffffffffffffffffffffffffffffffffffffffff1663a9059cbb60008054906101000a900473ffffffffffffffffffffffffffffffffffffffff16836040518363ffffffff1660e01b8152600401610b729291906110c7565b602060405180830381600087803b158015610b8c57600080fd5b505af1158015610ba0573d6000803e3d6000fd5b505050506040513d601f19601f82011682018060405250810190610bc49190610e4d565b610c03576040517f08c379a0000000000000000000000000000000000000000000000000000000008152600401610bfa90611166565b60405180910390fd5b505b565b600460169054906101000a900460ff1615610c57576040517f08c379a0000000000000000000000000000000000000000000000000000000008152600401610c4e906111c6565b60405180910390fd5b846000806101000a81548173ffffffffffffffffffffffffffffffffffffffff021916908373ffffffffffffffffffffffffffffffffffffffff16021790555083600160006101000a81548173ffffffffffffffffffffffffffffffffffffffff021916908373ffffffffffffffffffffffffffffffffffffffff160217905550826003819055508160028190555080600460006101000a81548173ffffffffffffffffffffffffffffffffffffffff021916908373ffffffffffffffffffffffffffffffffffffffff1602179055506001600460166101000a81548160ff0219169083151502179055505050505050565b600081359050610d588161141c565b610d6181611248565b905092915050565b600081519050610d7881611433565b92915050565b600081359050610d8d8161144a565b92915050565b600081519050610da28161144a565b92915050565b600081359050610db781611461565b92915050565b600081519050610dcc81611461565b92915050565b600080600080600060a08688031215610dee57610ded6112f8565b5b6000610dfc88828901610d49565b9550506020610e0d88828901610d49565b9450506040610e1e88828901610d7e565b9350506060610e2f88828901610da8565b9250506080610e4088828901610d49565b9150509295509295909350565b600060208284031215610e6357610e626112f8565b5b6000610e7184828501610d69565b91505092915050565b600060208284031215610e9057610e8f6112f8565b5b6000610e9e84828501610d7e565b91505092915050565b600060208284031215610ebd57610ebc6112f8565b5b6000610ecb84828501610d93565b91505092915050565b600060208284031215610eea57610ee96112f8565b5b6000610ef884828501610dbd565b91505092915050565b610f0a81611248565b82525050565b610f198161125a565b82525050565b610f2881611266565b82525050565b610f3f610f3a82611266565b6112ee565b82525050565b6000610f5082611221565b610f5a818561122c565b9350610f6a8185602086016112bb565b80840191505092915050565b6000610f83600e83611237565b9150610f8e826112fd565b602082019050919050565b6000610fa6601383611237565b9150610fb182611326565b602082019050919050565b6000610fc9601583611237565b9150610fd48261134f565b602082019050919050565b6000610fec600a83611237565b9150610ff782611378565b602082019050919050565b600061100f600f83611237565b915061101a826113a1565b602082019050919050565b6000611032601383611237565b915061103d826113ca565b602082019050919050565b6000611055600a83611237565b9150611060826113f3565b602082019050919050565b611074816112b1565b82525050565b60006110868284610f2e565b60208201915081905092915050565b60006110a18284610f45565b915081905092915050565b60006020820190506110c16000830184610f01565b92915050565b60006040820190506110dc6000830185610f01565b6110e9602083018461106b565b9392505050565b60006020820190506111056000830184610f10565b92915050565b60006020820190506111206000830184610f1f565b92915050565b6000602082019050818103600083015261113f81610f76565b9050919050565b6000602082019050818103600083015261115f81610f99565b9050919050565b6000602082019050818103600083015261117f81610fbc565b9050919050565b6000602082019050818103600083015261119f81610fdf565b9050919050565b600060208201905081810360008301526111bf81611002565b9050919050565b600060208201905081810360008301526111df81611025565b9050919050565b600060208201905081810360008301526111ff81611048565b9050919050565b600060208201905061121b600083018461106b565b92915050565b600081519050919050565b600081905092915050565b600082825260208201905092915050565b600061125382611270565b9050919050565b60008115159050919050565b6000819050919050565b600073ffffffffffffffffffffffffffffffffffffffff82169050919050565b600074ffffffffffffffffffffffffffffffffffffffffff82169050919050565b6000819050919050565b60005b838110156112d95780820151818401526020810190506112be565b838111156112e8576000848401525b50505050565b6000819050919050565b600080fd5b7f496e76616c696420736563726574000000000000000000000000000000000000600082015250565b7f546f6f206561726c7920746f2063616e63656c00000000000000000000000000600082015250565b7f546f6b656e207472616e73666572206661696c65640000000000000000000000600082015250565b7f4f6e6c79206d616b657200000000000000000000000000000000000000000000600082015250565b7f457363726f7720696e6163746976650000000000000000000000000000000000600082015250565b7f416c726561647920696e697469616c697a656400000000000000000000000000600082015250565b7f4f6e6c792074616b657200000000000000000000000000000000000000000000600082015250565b61142581611290565b811461143057600080fd5b50565b61143c8161125a565b811461144757600080fd5b50565b61145381611266565b811461145e57600080fd5b50565b61146a816112b1565b811461147557600080fd5b5056fea26474726f6e582212202683332df4018f4b914b2bd81c0d6483d0f8a4dd3d7bfe9cc526beb20095834c64736f6c63430008060033",
  "source": "// SPDX-License-Identifier: MIT\npragma solidity ^0.8.6;\n\nimport \"./IERC20.sol\";\n\ncontract EscrowSrc {\n    address public maker;\n    address public taker;\n    uint256 public timelock;\n    bytes32 public hashlock;\n    address public tokenAddress;\n    bool public withdrawn;\n    bool public canceled;\n    bool private initialized;\n\n    modifier onlyTaker() {\n        require(msg.sender == taker, \"Only taker\");\n        _;\n    }\n\n    modifier onlyMaker() {\n        require(msg.sender == maker, \"Only maker\");\n        _;\n    }\n\n    modifier notInactive() {\n        require(!withdrawn && !canceled, \"Escrow inactive\");\n        _;\n    }\n\n    function initialize(address _maker, address _taker, bytes32 _hashlock, uint256 _timelock, address _tokenAddress)\n        external\n    {\n        require(!initialized, \"Already initialized\");\n        maker = _maker;\n        taker = _taker;\n        hashlock = _hashlock;\n        timelock = _timelock;\n        tokenAddress = _tokenAddress;\n        initialized = true;\n    }\n\n    function withdraw(bytes32 secret) external onlyTaker notInactive {\n        require(sha256(abi.encodePacked(secret)) == hashlock, \"Invalid secret\");\n        withdrawn = true;\n\n        if (tokenAddress == address(0)) {\n            // Native token transfer\n            payable(taker).transfer(address(this).balance);\n        } else {\n            // ERC20 transfer\n            uint256 balance = IERC20(tokenAddress).balanceOf(address(this));\n            require(IERC20(tokenAddress).transfer(taker, balance), \"Token transfer failed\");\n        }\n    }\n\n    function cancel() external onlyMaker notInactive {\n        require(block.timestamp >= timelock, \"Too early to cancel\");\n        canceled = true;\n\n        if (tokenAddress == address(0)) {\n            payable(maker).transfer(address(this).balance);\n        } else {\n            uint256 balance = IERC20(tokenAddress).balanceOf(address(this));\n            require(IERC20(tokenAddress).transfer(maker, balance), \"Token transfer failed\");\n        }\n    }\n\n    receive() external payable {}\n}\n",
  "sourcePath": "/Users/deepakrathore/1inch/troninch/troninch/tron-contracts/contracts/EscrowSrc.sol",
  "compiler": {
    "name": "solc",
    "version": "0.8.6+commit.0e36fba0.mod.Emscripten.clang"
  },
  "schemaVersion": "2.0.1",
  "updatedAt": "2025-08-02T19:40:59.821Z"
}