{
  "contractName": "EscrowFactory",
  "abi": [
    {
      "anonymous": false,
      "inputs": [
        {
          "indexed": true,
          "internalType": "address",
          "name": "escrow",
          "type": "address"
        }
      ],
      "name": "EscrowDstDeployed",
      "type": "event"
    },
    {
      "anonymous": false,
      "inputs": [
        {
          "indexed": true,
          "internalType": "address",
          "name": "escrow",
          "type": "address"
        }
      ],
      "name": "EscrowSrcDeployed",
      "type": "event"
    },
    {
      "inputs": [
        {
          "internalType": "address",
          "name": "maker",
          "type": "address"
        },
        {
          "internalType": "address",
          "name": "taker",
          "type": "address"
        },
        {
          "internalType": "bytes32",
          "name": "hashlock",
          "type": "bytes32"
        },
        {
          "internalType": "uint256",
          "name": "timelock",
          "type": "uint256"
        }
      ],
      "name": "deployEscrowDst",
      "outputs": [
        {
          "internalType": "address",
          "name": "",
          "type": "address"
        }
      ],
      "stateMutability": "payable",
      "type": "function"
    },
    {
      "inputs": [
        {
          "internalType": "address",
          "name": "taker",
          "type": "address"
        },
        {
          "internalType": "bytes32",
          "name": "hashlock",
          "type": "bytes32"
        },
        {
          "internalType": "uint256",
          "name": "timelock",
          "type": "uint256"
        }
      ],
      "name": "deployEscrowSrc",
      "outputs": [
        {
          "internalType": "address",
          "name": "",
          "type": "address"
        }
      ],
      "stateMutability": "payable",
      "type": "function"
    }
  ],
  "bytecode": "0x608060405234801561001057600080fd5b50d3801561001d57600080fd5b50d2801561002a57600080fd5b506122f48061003a6000396000f3fe6080604052600436106100295760003560e01c80634d1590381461002e578063f035b2ea1461005e575b600080fd5b6100486004803603810190610043919061038f565b61008e565b604051610055919061046a565b60405180910390f35b61007860048036038101906100739190610328565b610232565b604051610085919061046a565b60405180910390f35b60008060405161009d906102c2565b604051809103906000f0801580156100b9573d6000803e3d6000fd5b5090508073ffffffffffffffffffffffffffffffffffffffff1663277a2389338787876040518563ffffffff1660e01b81526004016100fb9493929190610485565b600060405180830381600087803b15801561011557600080fd5b505af1158015610129573d6000803e3d6000fd5b5050505060003411156101e45760008173ffffffffffffffffffffffffffffffffffffffff163460405161015c90610455565b60006040518083038185875af1925050503d8060008114610199576040519150601f19603f3d011682016040523d82523d6000602084013e61019e565b606091505b50509050806101e2576040517f08c379a00000000000000000000000000000000000000000000000000000000081526004016101d9906104ca565b60405180910390fd5b505b8073ffffffffffffffffffffffffffffffffffffffff167f6d1385bc979814fa51dbcc04c0b28c41610bd2d9bbf4c2393b9f489c6c88e5ed60405160405180910390a2809150509392505050565b6000803486868686604051610246906102d0565b6102539493929190610485565b6040518091039082f0905080158015610270573d6000803e3d6000fd5b5090508073ffffffffffffffffffffffffffffffffffffffff167f6bef95e4d8a20b884faf918a0a133a320a647c5879618decd5b0b595253480fa60405160405180910390a280915050949350505050565b610eb480620005e483390190565b610e27806200149883390190565b6000813590506102ed8161059e565b6102f681610506565b905092915050565b60008135905061030d816105b5565b92915050565b600081359050610322816105cc565b92915050565b600080600080608085870312156103425761034161056d565b5b6000610350878288016102de565b9450506020610361878288016102de565b9350506040610372878288016102fe565b925050606061038387828801610313565b91505092959194509250565b6000806000606084860312156103a8576103a761056d565b5b60006103b6868287016102de565b93505060206103c7868287016102fe565b92505060406103d886828701610313565b9150509250925092565b6103eb81610506565b82525050565b6103fa81610518565b82525050565b600061040d601d836104f5565b915061041882610572565b602082019050919050565b60006104306000836104ea565b915061043b8261059b565b600082019050919050565b61044f81610563565b82525050565b600061046082610423565b9150819050919050565b600060208201905061047f60008301846103e2565b92915050565b600060808201905061049a60008301876103e2565b6104a760208301866103e2565b6104b460408301856103f1565b6104c16060830184610446565b95945050505050565b600060208201905081810360008301526104e381610400565b9050919050565b600081905092915050565b600082825260208201905092915050565b600061051182610522565b9050919050565b6000819050919050565b600073ffffffffffffffffffffffffffffffffffffffff82169050919050565b600074ffffffffffffffffffffffffffffffffffffffffff82169050919050565b6000819050919050565b600080fd5b7f455448207472616e73666572206661696c656420746f20657363726f77000000600082015250565b50565b6105a781610542565b81146105b257600080fd5b50565b6105be81610518565b81146105c957600080fd5b50565b6105d581610563565b81146105e057600080fd5b5056fe608060405234801561001057600080fd5b50d3801561001d57600080fd5b50d2801561002a57600080fd5b50610e7a8061003a6000396000f3fe60806040526004361061008a5760003560e01c80638e19899e116100595780638e19899e146101a8578063a782086e146101eb578063c80ec52214610230578063d33219b414610275578063ea8a1af0146102ba57610091565b8063277a2389146100965780633f9942ff146100d957806350655d8c1461011e578063782b36021461016357610091565b3661009157005b600080fd5b3480156100a257600080fd5b50d380156100af57600080fd5b50d280156100bc57600080fd5b506100d760048036038101906100d291906108b8565b6102eb565b005b3480156100e557600080fd5b50d380156100f257600080fd5b50d280156100ff57600080fd5b506101086103eb565b6040516101159190610b1c565b60405180910390f35b34801561012a57600080fd5b50d3801561013757600080fd5b50d2801561014457600080fd5b5061014d6103fe565b60405161015a9190610b01565b60405180910390f35b34801561016f57600080fd5b50d3801561017c57600080fd5b50d2801561018957600080fd5b50610192610422565b60405161019f9190610b01565b60405180910390f35b3480156101b457600080fd5b50d380156101c157600080fd5b50d280156101ce57600080fd5b506101e960048036038101906101e4919061091f565b610448565b005b3480156101f757600080fd5b50d3801561020457600080fd5b50d2801561021157600080fd5b5061021a61067a565b6040516102279190610b37565b60405180910390f35b34801561023c57600080fd5b50d3801561024957600080fd5b50d2801561025657600080fd5b5061025f610680565b60405161026c9190610b1c565b60405180910390f35b34801561028157600080fd5b50d3801561028e57600080fd5b50d2801561029b57600080fd5b506102a4610693565b6040516102b19190610c12565b60405180910390f35b3480156102c657600080fd5b50d380156102d357600080fd5b50d280156102e057600080fd5b506102e9610699565b005b600460029054906101000a900460ff161561033b576040517f08c379a000000000000000000000000000000000000000000000000000000000815260040161033290610bd2565b60405180910390fd5b836000806101000a81548173ffffffffffffffffffffffffffffffffffffffff021916908373ffffffffffffffffffffffffffffffffffffffff16021790555082600160006101000a81548173ffffffffffffffffffffffffffffffffffffffff021916908373ffffffffffffffffffffffffffffffffffffffff16021790555081600381905550806002819055506001600460026101000a81548160ff02191690831515021790555050505050565b600460019054906101000a900460ff1681565b60008054906101000a900473ffffffffffffffffffffffffffffffffffffffff1681565b600160009054906101000a900473ffffffffffffffffffffffffffffffffffffffff1681565b600160009054906101000a900473ffffffffffffffffffffffffffffffffffffffff1673ffffffffffffffffffffffffffffffffffffffff163373ffffffffffffffffffffffffffffffffffffffff16146104d8576040517f08c379a00000000000000000000000000000000000000000000000000000000081526004016104cf90610bf2565b60405180910390fd5b600460009054906101000a900460ff161580156105025750600460019054906101000a900460ff16155b610541576040517f08c379a000000000000000000000000000000000000000000000000000000000815260040161053890610bb2565b60405180910390fd5b6003546002826040516020016105579190610acf565b6040516020818303038152906040526040516105739190610aea565b602060405180830381855afa158015610590573d6000803e3d6000fd5b5050506040513d601f19601f820116820180604052508101906105b3919061094c565b146105f3576040517f08c379a00000000000000000000000000000000000000000000000000000000081526004016105ea90610b52565b60405180910390fd5b6001600460006101000a81548160ff021916908315150217905550600160009054906101000a900473ffffffffffffffffffffffffffffffffffffffff1673ffffffffffffffffffffffffffffffffffffffff166108fc479081150290604051600060405180830381858888f19350505050158015610676573d6000803e3d6000fd5b5050565b60035481565b600460009054906101000a900460ff1681565b60025481565b60008054906101000a900473ffffffffffffffffffffffffffffffffffffffff1673ffffffffffffffffffffffffffffffffffffffff163373ffffffffffffffffffffffffffffffffffffffff1614610727576040517f08c379a000000000000000000000000000000000000000000000000000000000815260040161071e90610b92565b60405180910390fd5b600460009054906101000a900460ff161580156107515750600460019054906101000a900460ff16155b610790576040517f08c379a000000000000000000000000000000000000000000000000000000000815260040161078790610bb2565b60405180910390fd5b6002544210156107d5576040517f08c379a00000000000000000000000000000000000000000000000000000000081526004016107cc90610b72565b60405180910390fd5b6001600460016101000a81548160ff02191690831515021790555060008054906101000a900473ffffffffffffffffffffffffffffffffffffffff1673ffffffffffffffffffffffffffffffffffffffff166108fc479081150290604051600060405180830381858888f19350505050158015610856573d6000803e3d6000fd5b50565b60008135905061086881610dff565b61087181610c54565b905092915050565b60008135905061088881610e16565b92915050565b60008151905061089d81610e16565b92915050565b6000813590506108b281610e2d565b92915050565b600080600080608085870312156108d2576108d1610d04565b5b60006108e087828801610859565b94505060206108f187828801610859565b935050604061090287828801610879565b9250506060610913878288016108a3565b91505092959194509250565b60006020828403121561093557610934610d04565b5b600061094384828501610879565b91505092915050565b60006020828403121561096257610961610d04565b5b60006109708482850161088e565b91505092915050565b61098281610c54565b82525050565b61099181610c66565b82525050565b6109a081610c72565b82525050565b6109b76109b282610c72565b610cfa565b82525050565b60006109c882610c2d565b6109d28185610c38565b93506109e2818560208601610cc7565b80840191505092915050565b60006109fb600e83610c43565b9150610a0682610d09565b602082019050919050565b6000610a1e601383610c43565b9150610a2982610d32565b602082019050919050565b6000610a41600a83610c43565b9150610a4c82610d5b565b602082019050919050565b6000610a64600f83610c43565b9150610a6f82610d84565b602082019050919050565b6000610a87601383610c43565b9150610a9282610dad565b602082019050919050565b6000610aaa600a83610c43565b9150610ab582610dd6565b602082019050919050565b610ac981610cbd565b82525050565b6000610adb82846109a6565b60208201915081905092915050565b6000610af682846109bd565b915081905092915050565b6000602082019050610b166000830184610979565b92915050565b6000602082019050610b316000830184610988565b92915050565b6000602082019050610b4c6000830184610997565b92915050565b60006020820190508181036000830152610b6b816109ee565b9050919050565b60006020820190508181036000830152610b8b81610a11565b9050919050565b60006020820190508181036000830152610bab81610a34565b9050919050565b60006020820190508181036000830152610bcb81610a57565b9050919050565b60006020820190508181036000830152610beb81610a7a565b9050919050565b60006020820190508181036000830152610c0b81610a9d565b9050919050565b6000602082019050610c276000830184610ac0565b92915050565b600081519050919050565b600081905092915050565b600082825260208201905092915050565b6000610c5f82610c7c565b9050919050565b60008115159050919050565b6000819050919050565b600073ffffffffffffffffffffffffffffffffffffffff82169050919050565b600074ffffffffffffffffffffffffffffffffffffffffff82169050919050565b6000819050919050565b60005b83811015610ce5578082015181840152602081019050610cca565b83811115610cf4576000848401525b50505050565b6000819050919050565b600080fd5b7f496e76616c696420736563726574000000000000000000000000000000000000600082015250565b7f546f6f206561726c7920746f2063616e63656c00000000000000000000000000600082015250565b7f4f6e6c79206d616b657200000000000000000000000000000000000000000000600082015250565b7f457363726f7720696e6163746976650000000000000000000000000000000000600082015250565b7f416c726561647920696e697469616c697a656400000000000000000000000000600082015250565b7f4f6e6c792074616b657200000000000000000000000000000000000000000000600082015250565b610e0881610c9c565b8114610e1357600080fd5b50565b610e1f81610c72565b8114610e2a57600080fd5b50565b610e3681610cbd565b8114610e4157600080fd5b5056fea26474726f6e58221220f9537c61961132d9cd2228e447c19084bdd41d6cd633a96ef7cb6ece5cc5707a64736f6c63430008060033608060405260405162000e2738038062000e27833981810160405281019062000029919062000114565b836000806101000a81548173ffffffffffffffffffffffffffffffffffffffff021916908373ffffffffffffffffffffffffffffffffffffffff16021790555082600160006101000a81548173ffffffffffffffffffffffffffffffffffffffff021916908373ffffffffffffffffffffffffffffffffffffffff16021790555081600381905550806002819055505050505062000242565b600081519050620000d381620001f4565b620000de8162000186565b905092915050565b600081519050620000f7816200020e565b92915050565b6000815190506200010e8162000228565b92915050565b60008060008060808587031215620001315762000130620001ef565b5b60006200014187828801620000c2565b94505060206200015487828801620000c2565b93505060406200016787828801620000e6565b92505060606200017a87828801620000fd565b91505092959194509250565b60006200019382620001a4565b9050919050565b6000819050919050565b600073ffffffffffffffffffffffffffffffffffffffff82169050919050565b600074ffffffffffffffffffffffffffffffffffffffffff82169050919050565b6000819050919050565b600080fd5b620001ff81620001c4565b81146200020b57600080fd5b50565b62000219816200019a565b81146200022557600080fd5b50565b6200023381620001e5565b81146200023f57600080fd5b50565b610bd580620002526000396000f3fe60806040526004361061007f5760003560e01c8063a782086e1161004e578063a782086e1461019d578063c80ec522146101e2578063d33219b414610227578063ea8a1af01461026c57610086565b80633f9942ff1461008b57806350655d8c146100d0578063782b3602146101155780638e19899e1461015a57610086565b3661008657005b600080fd5b34801561009757600080fd5b50d380156100a457600080fd5b50d280156100b157600080fd5b506100ba61029d565b6040516100c7919061090f565b60405180910390f35b3480156100dc57600080fd5b50d380156100e957600080fd5b50d280156100f657600080fd5b506100ff6102b0565b60405161010c91906108f4565b60405180910390f35b34801561012157600080fd5b50d3801561012e57600080fd5b50d2801561013b57600080fd5b506101446102d4565b60405161015191906108f4565b60405180910390f35b34801561016657600080fd5b50d3801561017357600080fd5b50d2801561018057600080fd5b5061019b60048036038101906101969190610735565b6102fa565b005b3480156101a957600080fd5b50d380156101b657600080fd5b50d280156101c357600080fd5b506101cc61052c565b6040516101d9919061092a565b60405180910390f35b3480156101ee57600080fd5b50d380156101fb57600080fd5b50d2801561020857600080fd5b50610211610532565b60405161021e919061090f565b60405180910390f35b34801561023357600080fd5b50d3801561024057600080fd5b50d2801561024d57600080fd5b50610256610545565b60405161026391906109e5565b60405180910390f35b34801561027857600080fd5b50d3801561028557600080fd5b50d2801561029257600080fd5b5061029b61054b565b005b600460019054906101000a900460ff1681565b60008054906101000a900473ffffffffffffffffffffffffffffffffffffffff1681565b600160009054906101000a900473ffffffffffffffffffffffffffffffffffffffff1681565b600160009054906101000a900473ffffffffffffffffffffffffffffffffffffffff1673ffffffffffffffffffffffffffffffffffffffff163373ffffffffffffffffffffffffffffffffffffffff161461038a576040517f08c379a0000000000000000000000000000000000000000000000000000000008152600401610381906109c5565b60405180910390fd5b600460009054906101000a900460ff161580156103b45750600460019054906101000a900460ff16155b6103f3576040517f08c379a00000000000000000000000000000000000000000000000000000000081526004016103ea906109a5565b60405180910390fd5b60035460028260405160200161040991906108c2565b60405160208183030381529060405260405161042591906108dd565b602060405180830381855afa158015610442573d6000803e3d6000fd5b5050506040513d601f19601f820116820180604052508101906104659190610762565b146104a5576040517f08c379a000000000000000000000000000000000000000000000000000000000815260040161049c90610945565b60405180910390fd5b6001600460006101000a81548160ff021916908315150217905550600160009054906101000a900473ffffffffffffffffffffffffffffffffffffffff1673ffffffffffffffffffffffffffffffffffffffff166108fc479081150290604051600060405180830381858888f19350505050158015610528573d6000803e3d6000fd5b5050565b60035481565b600460009054906101000a900460ff1681565b60025481565b60008054906101000a900473ffffffffffffffffffffffffffffffffffffffff1673ffffffffffffffffffffffffffffffffffffffff163373ffffffffffffffffffffffffffffffffffffffff16146105d9576040517f08c379a00000000000000000000000000000000000000000000000000000000081526004016105d090610985565b60405180910390fd5b600460009054906101000a900460ff161580156106035750600460019054906101000a900460ff16155b610642576040517f08c379a0000000000000000000000000000000000000000000000000000000008152600401610639906109a5565b60405180910390fd5b600254421015610687576040517f08c379a000000000000000000000000000000000000000000000000000000000815260040161067e90610965565b60405180910390fd5b6001600460016101000a81548160ff02191690831515021790555060008054906101000a900473ffffffffffffffffffffffffffffffffffffffff1673ffffffffffffffffffffffffffffffffffffffff166108fc479081150290604051600060405180830381858888f19350505050158015610708573d6000803e3d6000fd5b50565b60008135905061071a81610b88565b92915050565b60008151905061072f81610b88565b92915050565b60006020828403121561074b5761074a610ab6565b5b60006107598482850161070b565b91505092915050565b60006020828403121561077857610777610ab6565b5b600061078684828501610720565b91505092915050565b61079881610a27565b82525050565b6107a781610a39565b82525050565b6107b681610a45565b82525050565b6107cd6107c882610a45565b610aac565b82525050565b60006107de82610a00565b6107e88185610a0b565b93506107f8818560208601610a79565b80840191505092915050565b6000610811600e83610a16565b915061081c82610abb565b602082019050919050565b6000610834601383610a16565b915061083f82610ae4565b602082019050919050565b6000610857600a83610a16565b915061086282610b0d565b602082019050919050565b600061087a600f83610a16565b915061088582610b36565b602082019050919050565b600061089d600a83610a16565b91506108a882610b5f565b602082019050919050565b6108bc81610a6f565b82525050565b60006108ce82846107bc565b60208201915081905092915050565b60006108e982846107d3565b915081905092915050565b6000602082019050610909600083018461078f565b92915050565b6000602082019050610924600083018461079e565b92915050565b600060208201905061093f60008301846107ad565b92915050565b6000602082019050818103600083015261095e81610804565b9050919050565b6000602082019050818103600083015261097e81610827565b9050919050565b6000602082019050818103600083015261099e8161084a565b9050919050565b600060208201905081810360008301526109be8161086d565b9050919050565b600060208201905081810360008301526109de81610890565b9050919050565b60006020820190506109fa60008301846108b3565b92915050565b600081519050919050565b600081905092915050565b600082825260208201905092915050565b6000610a3282610a4f565b9050919050565b60008115159050919050565b6000819050919050565b600073ffffffffffffffffffffffffffffffffffffffff82169050919050565b6000819050919050565b60005b83811015610a97578082015181840152602081019050610a7c565b83811115610aa6576000848401525b50505050565b6000819050919050565b600080fd5b7f496e76616c696420736563726574000000000000000000000000000000000000600082015250565b7f546f6f206561726c7920746f2063616e63656c00000000000000000000000000600082015250565b7f4f6e6c79206d616b657200000000000000000000000000000000000000000000600082015250565b7f457363726f7720696e6163746976650000000000000000000000000000000000600082015250565b7f4f6e6c792074616b657200000000000000000000000000000000000000000000600082015250565b610b9181610a45565b8114610b9c57600080fd5b5056fea26474726f6e582212202b9cf9667ff3423731b75996aa746158d3a41011e38378483e4484ce30369f6d64736f6c63430008060033a26474726f6e582212207de3d4e5d0ff74a6739a39e2d540cde73aa1446fdf4b982a77d9b9514de7cd9d64736f6c63430008060033",
  "source": "// SPDX-License-Identifier: MIT\npragma solidity ^0.8.6;\n\nimport \"./EscrowSrc.sol\";\nimport \"./EscrowDst.sol\";\n\ncontract EscrowFactory {\n    event EscrowSrcDeployed(address indexed escrow);\n    event EscrowDstDeployed(address indexed escrow);\n\n    function deployEscrowSrc(address taker, bytes32 hashlock, uint256 timelock) external payable returns (address) {\n        EscrowSrc escrow = new EscrowSrc();\n        escrow.initialize(msg.sender, taker, hashlock, timelock);\n\n        if (msg.value > 0) {\n            (bool sent,) = address(escrow).call{value: msg.value}(\"\");\n            require(sent, \"ETH transfer failed to escrow\");\n        }\n\n        emit EscrowSrcDeployed(address(escrow));\n        return address(escrow);\n    }\n\n    function deployEscrowDst(address maker, address taker, bytes32 hashlock, uint256 timelock)\n        external\n        payable\n        returns (address)\n    {\n        EscrowDst escrow = new EscrowDst{value: msg.value}(maker, taker, hashlock, timelock);\n        emit EscrowDstDeployed(address(escrow));\n        return address(escrow);\n    }\n}\n",
  "sourcePath": "/Users/deepakrathore/1inch/troninch/troninch/tron-contracts/contracts/EscrowFactory.sol",
  "compiler": {
    "name": "solc",
    "version": "0.8.6+commit.0e36fba0.mod.Emscripten.clang"
  },
  "schemaVersion": "2.0.1",
  "updatedAt": "2025-08-02T18:29:49.816Z"
}