{
  "contractName": "EscrowFactory",
  "abi": [
    {
      "anonymous": false,
      "inputs": [
        {
          "indexed": true,
          "internalType": "address",
          "name": "escrow",
          "type": "address"
        }
      ],
      "name": "EscrowDstDeployed",
      "type": "event"
    },
    {
      "anonymous": false,
      "inputs": [
        {
          "indexed": true,
          "internalType": "address",
          "name": "escrow",
          "type": "address"
        }
      ],
      "name": "EscrowSrcDeployed",
      "type": "event"
    },
    {
      "inputs": [
        {
          "internalType": "address",
          "name": "maker",
          "type": "address"
        },
        {
          "internalType": "address",
          "name": "taker",
          "type": "address"
        },
        {
          "internalType": "bytes32",
          "name": "hashlock",
          "type": "bytes32"
        },
        {
          "internalType": "uint256",
          "name": "timelock",
          "type": "uint256"
        },
        {
          "internalType": "address",
          "name": "tokenAddress",
          "type": "address"
        },
        {
          "internalType": "uint256",
          "name": "amount",
          "type": "uint256"
        }
      ],
      "name": "deployEscrowDst",
      "outputs": [
        {
          "internalType": "address",
          "name": "",
          "type": "address"
        }
      ],
      "stateMutability": "nonpayable",
      "type": "function"
    },
    {
      "inputs": [
        {
          "internalType": "address",
          "name": "taker",
          "type": "address"
        },
        {
          "internalType": "bytes32",
          "name": "hashlock",
          "type": "bytes32"
        },
        {
          "internalType": "uint256",
          "name": "timelock",
          "type": "uint256"
        },
        {
          "internalType": "address",
          "name": "tokenAddress",
          "type": "address"
        }
      ],
      "name": "deployEscrowSrc",
      "outputs": [
        {
          "internalType": "address",
          "name": "",
          "type": "address"
        }
      ],
      "stateMutability": "payable",
      "type": "function"
    }
  ],
  "bytecode": "0x608060405234801561001057600080fd5b50d3801561001d57600080fd5b50d2801561002a57600080fd5b50612d348061003a6000396000f3fe6080604052600436106200002c5760003560e01c8063e05774261462000031578063f91d812b1462000067575b600080fd5b6200004f600480360381019062000049919062000420565b620000c7565b6040516200005e91906200052a565b60405180910390f35b3480156200007457600080fd5b50d380156200008257600080fd5b50d280156200009057600080fd5b50620000af6004803603810190620000a9919062000384565b6200027d565b604051620000be91906200052a565b60405180910390f35b600080604051620000d89062000316565b604051809103906000f080158015620000f5573d6000803e3d6000fd5b5090508073ffffffffffffffffffffffffffffffffffffffff1663fb3a05a033888888886040518663ffffffff1660e01b81526004016200013b95949392919062000547565b600060405180830381600087803b1580156200015657600080fd5b505af11580156200016b573d6000803e3d6000fd5b5050505060003411156200022e5760008173ffffffffffffffffffffffffffffffffffffffff1634604051620001a19062000513565b60006040518083038185875af1925050503d8060008114620001e0576040519150601f19603f3d011682016040523d82523d6000602084013e620001e5565b606091505b50509050806200022c576040517f08c379a0000000000000000000000000000000000000000000000000000000008152600401620002239062000611565b60405180910390fd5b505b8073ffffffffffffffffffffffffffffffffffffffff167f6d1385bc979814fa51dbcc04c0b28c41610bd2d9bbf4c2393b9f489c6c88e5ed60405160405180910390a280915050949350505050565b600080878787878787604051620002949062000324565b620002a596959493929190620005a4565b604051809103906000f080158015620002c2573d6000803e3d6000fd5b5090508073ffffffffffffffffffffffffffffffffffffffff167f6bef95e4d8a20b884faf918a0a133a320a647c5879618decd5b0b595253480fa60405160405180910390a2809150509695505050505050565b6114e8806200073883390190565b6110df8062001c2083390190565b6000813590506200034381620006e9565b6200034e816200064f565b905092915050565b600081359050620003678162000703565b92915050565b6000813590506200037e816200071d565b92915050565b60008060008060008060c08789031215620003a457620003a3620006b8565b5b6000620003b489828a0162000332565b9650506020620003c789828a0162000332565b9550506040620003da89828a0162000356565b9450506060620003ed89828a016200036d565b93505060806200040089828a0162000332565b92505060a06200041389828a016200036d565b9150509295509295509295565b600080600080608085870312156200043d576200043c620006b8565b5b60006200044d8782880162000332565b9450506020620004608782880162000356565b935050604062000473878288016200036d565b9250506060620004868782880162000332565b91505092959194509250565b6200049d816200064f565b82525050565b620004ae8162000663565b82525050565b6000620004c3601d836200063e565b9150620004d082620006bd565b602082019050919050565b6000620004ea60008362000633565b9150620004f782620006e6565b600082019050919050565b6200050d81620006ae565b82525050565b60006200052082620004db565b9150819050919050565b600060208201905062000541600083018462000492565b92915050565b600060a0820190506200055e600083018862000492565b6200056d602083018762000492565b6200057c6040830186620004a3565b6200058b606083018562000502565b6200059a608083018462000492565b9695505050505050565b600060c082019050620005bb600083018962000492565b620005ca602083018862000492565b620005d96040830187620004a3565b620005e8606083018662000502565b620005f7608083018562000492565b6200060660a083018462000502565b979650505050505050565b600060208201905081810360008301526200062c81620004b4565b9050919050565b600081905092915050565b600082825260208201905092915050565b60006200065c826200066d565b9050919050565b6000819050919050565b600073ffffffffffffffffffffffffffffffffffffffff82169050919050565b600074ffffffffffffffffffffffffffffffffffffffffff82169050919050565b6000819050919050565b600080fd5b7f455448207472616e73666572206661696c656420746f20657363726f77000000600082015250565b50565b620006f4816200068d565b81146200070057600080fd5b50565b6200070e8162000663565b81146200071a57600080fd5b50565b6200072881620006ae565b81146200073457600080fd5b5056fe608060405234801561001057600080fd5b50d3801561001d57600080fd5b50d2801561002a57600080fd5b506114ae8061003a6000396000f3fe6080604052600436106100955760003560e01c8063a782086e11610059578063a782086e146101f8578063c80ec5221461023d578063d33219b414610282578063ea8a1af0146102c7578063fb3a05a0146102f85761009c565b80633f9942ff146100a157806350655d8c146100e6578063782b36021461012b5780638e19899e146101705780639d76ea58146101b35761009c565b3661009c57005b600080fd5b3480156100ad57600080fd5b50d380156100ba57600080fd5b50d280156100c757600080fd5b506100d061033b565b6040516100dd91906110f0565b60405180910390f35b3480156100f257600080fd5b50d380156100ff57600080fd5b50d2801561010c57600080fd5b5061011561034e565b60405161012291906110ac565b60405180910390f35b34801561013757600080fd5b50d3801561014457600080fd5b50d2801561015157600080fd5b5061015a610372565b60405161016791906110ac565b60405180910390f35b34801561017c57600080fd5b50d3801561018957600080fd5b50d2801561019657600080fd5b506101b160048036038101906101ac9190610e7a565b610398565b005b3480156101bf57600080fd5b50d380156101cc57600080fd5b50d280156101d957600080fd5b506101e26107e7565b6040516101ef91906110ac565b60405180910390f35b34801561020457600080fd5b50d3801561021157600080fd5b50d2801561021e57600080fd5b5061022761080d565b604051610234919061110b565b60405180910390f35b34801561024957600080fd5b50d3801561025657600080fd5b50d2801561026357600080fd5b5061026c610813565b60405161027991906110f0565b60405180910390f35b34801561028e57600080fd5b50d3801561029b57600080fd5b50d280156102a857600080fd5b506102b1610826565b6040516102be9190611206565b60405180910390f35b3480156102d357600080fd5b50d380156102e057600080fd5b50d280156102ed57600080fd5b506102f661082c565b005b34801561030457600080fd5b50d3801561031157600080fd5b50d2801561031e57600080fd5b5061033960048036038101906103349190610dd2565b610c07565b005b600460159054906101000a900460ff1681565b60008054906101000a900473ffffffffffffffffffffffffffffffffffffffff1681565b600160009054906101000a900473ffffffffffffffffffffffffffffffffffffffff1681565b600160009054906101000a900473ffffffffffffffffffffffffffffffffffffffff1673ffffffffffffffffffffffffffffffffffffffff163373ffffffffffffffffffffffffffffffffffffffff1614610428576040517f08c379a000000000000000000000000000000000000000000000000000000000815260040161041f906111e6565b60405180910390fd5b600460149054906101000a900460ff161580156104525750600460159054906101000a900460ff16155b610491576040517f08c379a0000000000000000000000000000000000000000000000000000000008152600401610488906111a6565b60405180910390fd5b6003546002826040516020016104a7919061107a565b6040516020818303038152906040526040516104c39190611095565b602060405180830381855afa1580156104e0573d6000803e3d6000fd5b5050506040513d601f19601f820116820180604052508101906105039190610ea7565b14610543576040517f08c379a000000000000000000000000000000000000000000000000000000000815260040161053a90611126565b60405180910390fd5b6001600460146101000a81548160ff021916908315150217905550600073ffffffffffffffffffffffffffffffffffffffff16600460009054906101000a900473ffffffffffffffffffffffffffffffffffffffff1673ffffffffffffffffffffffffffffffffffffffff16141561062357600160009054906101000a900473ffffffffffffffffffffffffffffffffffffffff1673ffffffffffffffffffffffffffffffffffffffff166108fc479081150290604051600060405180830381858888f1935050505015801561061d573d6000803e3d6000fd5b506107e4565b6000600460009054906101000a900473ffffffffffffffffffffffffffffffffffffffff1673ffffffffffffffffffffffffffffffffffffffff166370a08231306040518263ffffffff1660e01b815260040161068091906110ac565b60206040518083038186803b15801561069857600080fd5b505afa1580156106ac573d6000803e3d6000fd5b505050506040513d601f19601f820116820180604052508101906106d09190610ed4565b9050600460009054906101000a900473ffffffffffffffffffffffffffffffffffffffff1673ffffffffffffffffffffffffffffffffffffffff1663a9059cbb600160009054906101000a900473ffffffffffffffffffffffffffffffffffffffff16836040518363ffffffff1660e01b81526004016107519291906110c7565b602060405180830381600087803b15801561076b57600080fd5b505af115801561077f573d6000803e3d6000fd5b505050506040513d601f19601f820116820180604052508101906107a39190610e4d565b6107e2576040517f08c379a00000000000000000000000000000000000000000000000000000000081526004016107d990611166565b60405180910390fd5b505b50565b600460009054906101000a900473ffffffffffffffffffffffffffffffffffffffff1681565b60035481565b600460149054906101000a900460ff1681565b60025481565b60008054906101000a900473ffffffffffffffffffffffffffffffffffffffff1673ffffffffffffffffffffffffffffffffffffffff163373ffffffffffffffffffffffffffffffffffffffff16146108ba576040517f08c379a00000000000000000000000000000000000000000000000000000000081526004016108b190611186565b60405180910390fd5b600460149054906101000a900460ff161580156108e45750600460159054906101000a900460ff16155b610923576040517f08c379a000000000000000000000000000000000000000000000000000000000815260040161091a906111a6565b60405180910390fd5b600254421015610968576040517f08c379a000000000000000000000000000000000000000000000000000000000815260040161095f90611146565b60405180910390fd5b6001600460156101000a81548160ff021916908315150217905550600073ffffffffffffffffffffffffffffffffffffffff16600460009054906101000a900473ffffffffffffffffffffffffffffffffffffffff1673ffffffffffffffffffffffffffffffffffffffff161415610a465760008054906101000a900473ffffffffffffffffffffffffffffffffffffffff1673ffffffffffffffffffffffffffffffffffffffff166108fc479081150290604051600060405180830381858888f19350505050158015610a40573d6000803e3d6000fd5b50610c05565b6000600460009054906101000a900473ffffffffffffffffffffffffffffffffffffffff1673ffffffffffffffffffffffffffffffffffffffff166370a08231306040518263ffffffff1660e01b8152600401610aa391906110ac565b60206040518083038186803b158015610abb57600080fd5b505afa158015610acf573d6000803e3d6000fd5b505050506040513d601f19601f82011682018060405250810190610af39190610ed4565b9050600460009054906101000a900473ffffffffffffffffffffffffffffffffffffffff1673ffffffffffffffffffffffffffffffffffffffff1663a9059cbb60008054906101000a900473ffffffffffffffffffffffffffffffffffffffff16836040518363ffffffff1660e01b8152600401610b729291906110c7565b602060405180830381600087803b158015610b8c57600080fd5b505af1158015610ba0573d6000803e3d6000fd5b505050506040513d601f19601f82011682018060405250810190610bc49190610e4d565b610c03576040517f08c379a0000000000000000000000000000000000000000000000000000000008152600401610bfa90611166565b60405180910390fd5b505b565b600460169054906101000a900460ff1615610c57576040517f08c379a0000000000000000000000000000000000000000000000000000000008152600401610c4e906111c6565b60405180910390fd5b846000806101000a81548173ffffffffffffffffffffffffffffffffffffffff021916908373ffffffffffffffffffffffffffffffffffffffff16021790555083600160006101000a81548173ffffffffffffffffffffffffffffffffffffffff021916908373ffffffffffffffffffffffffffffffffffffffff160217905550826003819055508160028190555080600460006101000a81548173ffffffffffffffffffffffffffffffffffffffff021916908373ffffffffffffffffffffffffffffffffffffffff1602179055506001600460166101000a81548160ff0219169083151502179055505050505050565b600081359050610d588161141c565b610d6181611248565b905092915050565b600081519050610d7881611433565b92915050565b600081359050610d8d8161144a565b92915050565b600081519050610da28161144a565b92915050565b600081359050610db781611461565b92915050565b600081519050610dcc81611461565b92915050565b600080600080600060a08688031215610dee57610ded6112f8565b5b6000610dfc88828901610d49565b9550506020610e0d88828901610d49565b9450506040610e1e88828901610d7e565b9350506060610e2f88828901610da8565b9250506080610e4088828901610d49565b9150509295509295909350565b600060208284031215610e6357610e626112f8565b5b6000610e7184828501610d69565b91505092915050565b600060208284031215610e9057610e8f6112f8565b5b6000610e9e84828501610d7e565b91505092915050565b600060208284031215610ebd57610ebc6112f8565b5b6000610ecb84828501610d93565b91505092915050565b600060208284031215610eea57610ee96112f8565b5b6000610ef884828501610dbd565b91505092915050565b610f0a81611248565b82525050565b610f198161125a565b82525050565b610f2881611266565b82525050565b610f3f610f3a82611266565b6112ee565b82525050565b6000610f5082611221565b610f5a818561122c565b9350610f6a8185602086016112bb565b80840191505092915050565b6000610f83600e83611237565b9150610f8e826112fd565b602082019050919050565b6000610fa6601383611237565b9150610fb182611326565b602082019050919050565b6000610fc9601583611237565b9150610fd48261134f565b602082019050919050565b6000610fec600a83611237565b9150610ff782611378565b602082019050919050565b600061100f600f83611237565b915061101a826113a1565b602082019050919050565b6000611032601383611237565b915061103d826113ca565b602082019050919050565b6000611055600a83611237565b9150611060826113f3565b602082019050919050565b611074816112b1565b82525050565b60006110868284610f2e565b60208201915081905092915050565b60006110a18284610f45565b915081905092915050565b60006020820190506110c16000830184610f01565b92915050565b60006040820190506110dc6000830185610f01565b6110e9602083018461106b565b9392505050565b60006020820190506111056000830184610f10565b92915050565b60006020820190506111206000830184610f1f565b92915050565b6000602082019050818103600083015261113f81610f76565b9050919050565b6000602082019050818103600083015261115f81610f99565b9050919050565b6000602082019050818103600083015261117f81610fbc565b9050919050565b6000602082019050818103600083015261119f81610fdf565b9050919050565b600060208201905081810360008301526111bf81611002565b9050919050565b600060208201905081810360008301526111df81611025565b9050919050565b600060208201905081810360008301526111ff81611048565b9050919050565b600060208201905061121b600083018461106b565b92915050565b600081519050919050565b600081905092915050565b600082825260208201905092915050565b600061125382611270565b9050919050565b60008115159050919050565b6000819050919050565b600073ffffffffffffffffffffffffffffffffffffffff82169050919050565b600074ffffffffffffffffffffffffffffffffffffffffff82169050919050565b6000819050919050565b60005b838110156112d95780820151818401526020810190506112be565b838111156112e8576000848401525b50505050565b6000819050919050565b600080fd5b7f496e76616c696420736563726574000000000000000000000000000000000000600082015250565b7f546f6f206561726c7920746f2063616e63656c00000000000000000000000000600082015250565b7f546f6b656e207472616e73666572206661696c65640000000000000000000000600082015250565b7f4f6e6c79206d616b657200000000000000000000000000000000000000000000600082015250565b7f457363726f7720696e6163746976650000000000000000000000000000000000600082015250565b7f416c726561647920696e697469616c697a656400000000000000000000000000600082015250565b7f4f6e6c792074616b657200000000000000000000000000000000000000000000600082015250565b61142581611290565b811461143057600080fd5b50565b61143c8161125a565b811461144757600080fd5b50565b61145381611266565b811461145e57600080fd5b50565b61146a816112b1565b811461147557600080fd5b5056fea26474726f6e582212202683332df4018f4b914b2bd81c0d6483d0f8a4dd3d7bfe9cc526beb20095834c64736f6c6343000806003360806040523480156200001157600080fd5b50d380156200001f57600080fd5b50d280156200002d57600080fd5b50604051620010df380380620010df833981810160405281019062000053919062000188565b856000806101000a81548173ffffffffffffffffffffffffffffffffffffffff021916908373ffffffffffffffffffffffffffffffffffffffff16021790555084600160006101000a81548173ffffffffffffffffffffffffffffffffffffffff021916908373ffffffffffffffffffffffffffffffffffffffff160217905550836005819055508260038190555081600260006101000a81548173ffffffffffffffffffffffffffffffffffffffff021916908373ffffffffffffffffffffffffffffffffffffffff16021790555080600481905550505050505050620002e0565b600081519050620001478162000292565b620001528162000224565b905092915050565b6000815190506200016b81620002ac565b92915050565b6000815190506200018281620002c6565b92915050565b60008060008060008060c08789031215620001a857620001a76200028d565b5b6000620001b889828a0162000136565b9650506020620001cb89828a0162000136565b9550506040620001de89828a016200015a565b9450506060620001f189828a0162000171565b93505060806200020489828a0162000136565b92505060a06200021789828a0162000171565b9150509295509295509295565b6000620002318262000242565b9050919050565b6000819050919050565b600073ffffffffffffffffffffffffffffffffffffffff82169050919050565b600074ffffffffffffffffffffffffffffffffffffffffff82169050919050565b6000819050919050565b600080fd5b6200029d8162000262565b8114620002a957600080fd5b50565b620002b78162000238565b8114620002c357600080fd5b50565b620002d18162000283565b8114620002dd57600080fd5b50565b610def80620002f06000396000f3fe608060405234801561001057600080fd5b50d3801561001d57600080fd5b50d2801561002a57600080fd5b50600436106100b85760003560e01c8063a782086e11610080578063a782086e14610151578063aa8c217c1461016f578063c80ec5221461018d578063d33219b4146101ab578063ea8a1af0146101c9576100b8565b80633f9942ff146100bd57806350655d8c146100db578063782b3602146100f95780638e19899e146101175780639d76ea5814610133575b600080fd5b6100c56101d3565b6040516100d29190610a80565b60405180910390f35b6100e36101e6565b6040516100f09190610a3c565b60405180910390f35b61010161020a565b60405161010e9190610a3c565b60405180910390f35b610131600480360381019061012c9190610837565b610230565b005b61013b610511565b6040516101489190610a3c565b60405180910390f35b610159610537565b6040516101669190610a9b565b60405180910390f35b61017761053d565b6040516101849190610b96565b60405180910390f35b610195610543565b6040516101a29190610a80565b60405180910390f35b6101b3610556565b6040516101c09190610b96565b60405180910390f35b6101d161055c565b005b600660019054906101000a900460ff1681565b60008054906101000a900473ffffffffffffffffffffffffffffffffffffffff1681565b600160009054906101000a900473ffffffffffffffffffffffffffffffffffffffff1681565b600160009054906101000a900473ffffffffffffffffffffffffffffffffffffffff1673ffffffffffffffffffffffffffffffffffffffff163373ffffffffffffffffffffffffffffffffffffffff16146102c0576040517f08c379a00000000000000000000000000000000000000000000000000000000081526004016102b790610b76565b60405180910390fd5b600660009054906101000a900460ff161580156102ea5750600660019054906101000a900460ff16155b610329576040517f08c379a000000000000000000000000000000000000000000000000000000000815260040161032090610b36565b60405180910390fd5b60055460028260405160200161033f9190610a0a565b60405160208183030381529060405260405161035b9190610a25565b602060405180830381855afa158015610378573d6000803e3d6000fd5b5050506040513d601f19601f8201168201806040525081019061039b9190610864565b146103db576040517f08c379a00000000000000000000000000000000000000000000000000000000081526004016103d290610ab6565b60405180910390fd5b6001600660006101000a81548160ff0219169083151502179055506000600260009054906101000a900473ffffffffffffffffffffffffffffffffffffffff1673ffffffffffffffffffffffffffffffffffffffff1663a9059cbb600160009054906101000a900473ffffffffffffffffffffffffffffffffffffffff166004546040518363ffffffff1660e01b8152600401610479929190610a57565b602060405180830381600087803b15801561049357600080fd5b505af11580156104a7573d6000803e3d6000fd5b505050506040513d601f19601f820116820180604052508101906104cb919061080a565b90508061050d576040517f08c379a000000000000000000000000000000000000000000000000000000000815260040161050490610af6565b60405180910390fd5b5050565b600260009054906101000a900473ffffffffffffffffffffffffffffffffffffffff1681565b60055481565b60045481565b600660009054906101000a900460ff1681565b60035481565b60008054906101000a900473ffffffffffffffffffffffffffffffffffffffff1673ffffffffffffffffffffffffffffffffffffffff163373ffffffffffffffffffffffffffffffffffffffff16146105ea576040517f08c379a00000000000000000000000000000000000000000000000000000000081526004016105e190610b16565b60405180910390fd5b600660009054906101000a900460ff161580156106145750600660019054906101000a900460ff16155b610653576040517f08c379a000000000000000000000000000000000000000000000000000000000815260040161064a90610b36565b60405180910390fd5b600354421015610698576040517f08c379a000000000000000000000000000000000000000000000000000000000815260040161068f90610ad6565b60405180910390fd5b6001600660016101000a81548160ff0219169083151502179055506000600260009054906101000a900473ffffffffffffffffffffffffffffffffffffffff1673ffffffffffffffffffffffffffffffffffffffff1663a9059cbb60008054906101000a900473ffffffffffffffffffffffffffffffffffffffff166004546040518363ffffffff1660e01b8152600401610734929190610a57565b602060405180830381600087803b15801561074e57600080fd5b505af1158015610762573d6000803e3d6000fd5b505050506040513d601f19601f82011682018060405250810190610786919061080a565b9050806107c8576040517f08c379a00000000000000000000000000000000000000000000000000000000081526004016107bf90610b56565b60405180910390fd5b50565b6000815190506107da81610d8b565b92915050565b6000813590506107ef81610da2565b92915050565b60008151905061080481610da2565b92915050565b6000602082840312156108205761081f610c67565b5b600061082e848285016107cb565b91505092915050565b60006020828403121561084d5761084c610c67565b5b600061085b848285016107e0565b91505092915050565b60006020828403121561087a57610879610c67565b5b6000610888848285016107f5565b91505092915050565b61089a81610bd8565b82525050565b6108a981610bea565b82525050565b6108b881610bf6565b82525050565b6108cf6108ca82610bf6565b610c5d565b82525050565b60006108e082610bb1565b6108ea8185610bbc565b93506108fa818560208601610c2a565b80840191505092915050565b6000610913600e83610bc7565b915061091e82610c6c565b602082019050919050565b6000610936601383610bc7565b915061094182610c95565b602082019050919050565b6000610959601583610bc7565b915061096482610cbe565b602082019050919050565b600061097c600a83610bc7565b915061098782610ce7565b602082019050919050565b600061099f600f83610bc7565b91506109aa82610d10565b602082019050919050565b60006109c2601683610bc7565b91506109cd82610d39565b602082019050919050565b60006109e5600a83610bc7565b91506109f082610d62565b602082019050919050565b610a0481610c20565b82525050565b6000610a1682846108be565b60208201915081905092915050565b6000610a3182846108d5565b915081905092915050565b6000602082019050610a516000830184610891565b92915050565b6000604082019050610a6c6000830185610891565b610a7960208301846109fb565b9392505050565b6000602082019050610a9560008301846108a0565b92915050565b6000602082019050610ab060008301846108af565b92915050565b60006020820190508181036000830152610acf81610906565b9050919050565b60006020820190508181036000830152610aef81610929565b9050919050565b60006020820190508181036000830152610b0f8161094c565b9050919050565b60006020820190508181036000830152610b2f8161096f565b9050919050565b60006020820190508181036000830152610b4f81610992565b9050919050565b60006020820190508181036000830152610b6f816109b5565b9050919050565b60006020820190508181036000830152610b8f816109d8565b9050919050565b6000602082019050610bab60008301846109fb565b92915050565b600081519050919050565b600081905092915050565b600082825260208201905092915050565b6000610be382610c00565b9050919050565b60008115159050919050565b6000819050919050565b600073ffffffffffffffffffffffffffffffffffffffff82169050919050565b6000819050919050565b60005b83811015610c48578082015181840152602081019050610c2d565b83811115610c57576000848401525b50505050565b6000819050919050565b600080fd5b7f496e76616c696420736563726574000000000000000000000000000000000000600082015250565b7f546f6f206561726c7920746f2063616e63656c00000000000000000000000000600082015250565b7f546f6b656e207472616e73666572206661696c65640000000000000000000000600082015250565b7f4f6e6c79206d616b657200000000000000000000000000000000000000000000600082015250565b7f457363726f7720696e6163746976650000000000000000000000000000000000600082015250565b7f526566756e6420746f206d616b6572206661696c656400000000000000000000600082015250565b7f4f6e6c792074616b657200000000000000000000000000000000000000000000600082015250565b610d9481610bea565b8114610d9f57600080fd5b50565b610dab81610bf6565b8114610db657600080fd5b5056fea26474726f6e582212209c82e0f759024de5f6180d10710f8acb9b4447c3862df97e7107f28c6dd177b464736f6c63430008060033a26474726f6e58221220762f003ff31833f886a8c8d0a508822d27fb88af2d8d2fbbc772e0c3bcf5650264736f6c63430008060033",
  "source": "// SPDX-License-Identifier: MIT\npragma solidity ^0.8.6;\n\nimport \"./EscrowSrc.sol\";\nimport \"./EscrowDst.sol\";\n\ncontract EscrowFactory {\n    event EscrowSrcDeployed(address indexed escrow);\n    event EscrowDstDeployed(address indexed escrow);\n\n    function deployEscrowSrc(address taker, bytes32 hashlock, uint256 timelock, address tokenAddress)\n        external\n        payable\n        returns (address)\n    {\n        EscrowSrc escrow = new EscrowSrc();\n        escrow.initialize(msg.sender, taker, hashlock, timelock, tokenAddress);\n\n        if (msg.value > 0) {\n            (bool sent,) = address(escrow).call{value: msg.value}(\"\");\n            require(sent, \"ETH transfer failed to escrow\");\n        }\n\n        emit EscrowSrcDeployed(address(escrow));\n        return address(escrow);\n    }\n\n    function deployEscrowDst(\n        address maker,\n        address taker,\n        bytes32 hashlock,\n        uint256 timelock,\n        address tokenAddress,\n        uint256 amount\n    ) external returns (address) {\n        EscrowDst escrow = new EscrowDst(maker, taker, hashlock, timelock, tokenAddress, amount);\n\n        emit EscrowDstDeployed(address(escrow));\n        return address(escrow);\n    }\n}\n",
  "sourcePath": "/Users/deepakrathore/1inch/troninch/troninch/tron-contracts/contracts/EscrowFactory.sol",
  "compiler": {
    "name": "solc",
    "version": "0.8.6+commit.0e36fba0.mod.Emscripten.clang"
  },
  "schemaVersion": "2.0.1",
  "updatedAt": "2025-08-02T19:41:34.790Z"
}