{
  "contractName": "EscrowSrc",
  "abi": [
    {
      "inputs": [],
      "name": "cancel",
      "outputs": [],
      "stateMutability": "nonpayable",
      "type": "function"
    },
    {
      "inputs": [],
      "name": "canceled",
      "outputs": [
        {
          "internalType": "bool",
          "name": "",
          "type": "bool"
        }
      ],
      "stateMutability": "view",
      "type": "function"
    },
    {
      "inputs": [],
      "name": "hashlock",
      "outputs": [
        {
          "internalType": "bytes32",
          "name": "",
          "type": "bytes32"
        }
      ],
      "stateMutability": "view",
      "type": "function"
    },
    {
      "inputs": [
        {
          "internalType": "address",
          "name": "_maker",
          "type": "address"
        },
        {
          "internalType": "address",
          "name": "_taker",
          "type": "address"
        },
        {
          "internalType": "bytes32",
          "name": "_hashlock",
          "type": "bytes32"
        },
        {
          "internalType": "uint256",
          "name": "_timelock",
          "type": "uint256"
        }
      ],
      "name": "initialize",
      "outputs": [],
      "stateMutability": "nonpayable",
      "type": "function"
    },
    {
      "inputs": [],
      "name": "maker",
      "outputs": [
        {
          "internalType": "address",
          "name": "",
          "type": "address"
        }
      ],
      "stateMutability": "view",
      "type": "function"
    },
    {
      "inputs": [],
      "name": "taker",
      "outputs": [
        {
          "internalType": "address",
          "name": "",
          "type": "address"
        }
      ],
      "stateMutability": "view",
      "type": "function"
    },
    {
      "inputs": [],
      "name": "timelock",
      "outputs": [
        {
          "internalType": "uint256",
          "name": "",
          "type": "uint256"
        }
      ],
      "stateMutability": "view",
      "type": "function"
    },
    {
      "inputs": [
        {
          "internalType": "bytes32",
          "name": "secret",
          "type": "bytes32"
        }
      ],
      "name": "withdraw",
      "outputs": [],
      "stateMutability": "nonpayable",
      "type": "function"
    },
    {
      "inputs": [],
      "name": "withdrawn",
      "outputs": [
        {
          "internalType": "bool",
          "name": "",
          "type": "bool"
        }
      ],
      "stateMutability": "view",
      "type": "function"
    },
    {
      "stateMutability": "payable",
      "type": "receive"
    }
  ],
  "bytecode": "0x608060405234801561001057600080fd5b50d3801561001d57600080fd5b50d2801561002a57600080fd5b50610e7a8061003a6000396000f3fe60806040526004361061008a5760003560e01c80638e19899e116100595780638e19899e146101a8578063a782086e146101eb578063c80ec52214610230578063d33219b414610275578063ea8a1af0146102ba57610091565b8063277a2389146100965780633f9942ff146100d957806350655d8c1461011e578063782b36021461016357610091565b3661009157005b600080fd5b3480156100a257600080fd5b50d380156100af57600080fd5b50d280156100bc57600080fd5b506100d760048036038101906100d291906108b8565b6102eb565b005b3480156100e557600080fd5b50d380156100f257600080fd5b50d280156100ff57600080fd5b506101086103eb565b6040516101159190610b1c565b60405180910390f35b34801561012a57600080fd5b50d3801561013757600080fd5b50d2801561014457600080fd5b5061014d6103fe565b60405161015a9190610b01565b60405180910390f35b34801561016f57600080fd5b50d3801561017c57600080fd5b50d2801561018957600080fd5b50610192610422565b60405161019f9190610b01565b60405180910390f35b3480156101b457600080fd5b50d380156101c157600080fd5b50d280156101ce57600080fd5b506101e960048036038101906101e4919061091f565b610448565b005b3480156101f757600080fd5b50d3801561020457600080fd5b50d2801561021157600080fd5b5061021a61067a565b6040516102279190610b37565b60405180910390f35b34801561023c57600080fd5b50d3801561024957600080fd5b50d2801561025657600080fd5b5061025f610680565b60405161026c9190610b1c565b60405180910390f35b34801561028157600080fd5b50d3801561028e57600080fd5b50d2801561029b57600080fd5b506102a4610693565b6040516102b19190610c12565b60405180910390f35b3480156102c657600080fd5b50d380156102d357600080fd5b50d280156102e057600080fd5b506102e9610699565b005b600460029054906101000a900460ff161561033b576040517f08c379a000000000000000000000000000000000000000000000000000000000815260040161033290610bd2565b60405180910390fd5b836000806101000a81548173ffffffffffffffffffffffffffffffffffffffff021916908373ffffffffffffffffffffffffffffffffffffffff16021790555082600160006101000a81548173ffffffffffffffffffffffffffffffffffffffff021916908373ffffffffffffffffffffffffffffffffffffffff16021790555081600381905550806002819055506001600460026101000a81548160ff02191690831515021790555050505050565b600460019054906101000a900460ff1681565b60008054906101000a900473ffffffffffffffffffffffffffffffffffffffff1681565b600160009054906101000a900473ffffffffffffffffffffffffffffffffffffffff1681565b600160009054906101000a900473ffffffffffffffffffffffffffffffffffffffff1673ffffffffffffffffffffffffffffffffffffffff163373ffffffffffffffffffffffffffffffffffffffff16146104d8576040517f08c379a00000000000000000000000000000000000000000000000000000000081526004016104cf90610bf2565b60405180910390fd5b600460009054906101000a900460ff161580156105025750600460019054906101000a900460ff16155b610541576040517f08c379a000000000000000000000000000000000000000000000000000000000815260040161053890610bb2565b60405180910390fd5b6003546002826040516020016105579190610acf565b6040516020818303038152906040526040516105739190610aea565b602060405180830381855afa158015610590573d6000803e3d6000fd5b5050506040513d601f19601f820116820180604052508101906105b3919061094c565b146105f3576040517f08c379a00000000000000000000000000000000000000000000000000000000081526004016105ea90610b52565b60405180910390fd5b6001600460006101000a81548160ff021916908315150217905550600160009054906101000a900473ffffffffffffffffffffffffffffffffffffffff1673ffffffffffffffffffffffffffffffffffffffff166108fc479081150290604051600060405180830381858888f19350505050158015610676573d6000803e3d6000fd5b5050565b60035481565b600460009054906101000a900460ff1681565b60025481565b60008054906101000a900473ffffffffffffffffffffffffffffffffffffffff1673ffffffffffffffffffffffffffffffffffffffff163373ffffffffffffffffffffffffffffffffffffffff1614610727576040517f08c379a000000000000000000000000000000000000000000000000000000000815260040161071e90610b92565b60405180910390fd5b600460009054906101000a900460ff161580156107515750600460019054906101000a900460ff16155b610790576040517f08c379a000000000000000000000000000000000000000000000000000000000815260040161078790610bb2565b60405180910390fd5b6002544210156107d5576040517f08c379a00000000000000000000000000000000000000000000000000000000081526004016107cc90610b72565b60405180910390fd5b6001600460016101000a81548160ff02191690831515021790555060008054906101000a900473ffffffffffffffffffffffffffffffffffffffff1673ffffffffffffffffffffffffffffffffffffffff166108fc479081150290604051600060405180830381858888f19350505050158015610856573d6000803e3d6000fd5b50565b60008135905061086881610dff565b61087181610c54565b905092915050565b60008135905061088881610e16565b92915050565b60008151905061089d81610e16565b92915050565b6000813590506108b281610e2d565b92915050565b600080600080608085870312156108d2576108d1610d04565b5b60006108e087828801610859565b94505060206108f187828801610859565b935050604061090287828801610879565b9250506060610913878288016108a3565b91505092959194509250565b60006020828403121561093557610934610d04565b5b600061094384828501610879565b91505092915050565b60006020828403121561096257610961610d04565b5b60006109708482850161088e565b91505092915050565b61098281610c54565b82525050565b61099181610c66565b82525050565b6109a081610c72565b82525050565b6109b76109b282610c72565b610cfa565b82525050565b60006109c882610c2d565b6109d28185610c38565b93506109e2818560208601610cc7565b80840191505092915050565b60006109fb600e83610c43565b9150610a0682610d09565b602082019050919050565b6000610a1e601383610c43565b9150610a2982610d32565b602082019050919050565b6000610a41600a83610c43565b9150610a4c82610d5b565b602082019050919050565b6000610a64600f83610c43565b9150610a6f82610d84565b602082019050919050565b6000610a87601383610c43565b9150610a9282610dad565b602082019050919050565b6000610aaa600a83610c43565b9150610ab582610dd6565b602082019050919050565b610ac981610cbd565b82525050565b6000610adb82846109a6565b60208201915081905092915050565b6000610af682846109bd565b915081905092915050565b6000602082019050610b166000830184610979565b92915050565b6000602082019050610b316000830184610988565b92915050565b6000602082019050610b4c6000830184610997565b92915050565b60006020820190508181036000830152610b6b816109ee565b9050919050565b60006020820190508181036000830152610b8b81610a11565b9050919050565b60006020820190508181036000830152610bab81610a34565b9050919050565b60006020820190508181036000830152610bcb81610a57565b9050919050565b60006020820190508181036000830152610beb81610a7a565b9050919050565b60006020820190508181036000830152610c0b81610a9d565b9050919050565b6000602082019050610c276000830184610ac0565b92915050565b600081519050919050565b600081905092915050565b600082825260208201905092915050565b6000610c5f82610c7c565b9050919050565b60008115159050919050565b6000819050919050565b600073ffffffffffffffffffffffffffffffffffffffff82169050919050565b600074ffffffffffffffffffffffffffffffffffffffffff82169050919050565b6000819050919050565b60005b83811015610ce5578082015181840152602081019050610cca565b83811115610cf4576000848401525b50505050565b6000819050919050565b600080fd5b7f496e76616c696420736563726574000000000000000000000000000000000000600082015250565b7f546f6f206561726c7920746f2063616e63656c00000000000000000000000000600082015250565b7f4f6e6c79206d616b657200000000000000000000000000000000000000000000600082015250565b7f457363726f7720696e6163746976650000000000000000000000000000000000600082015250565b7f416c726561647920696e697469616c697a656400000000000000000000000000600082015250565b7f4f6e6c792074616b657200000000000000000000000000000000000000000000600082015250565b610e0881610c9c565b8114610e1357600080fd5b50565b610e1f81610c72565b8114610e2a57600080fd5b50565b610e3681610cbd565b8114610e4157600080fd5b5056fea26474726f6e58221220f9537c61961132d9cd2228e447c19084bdd41d6cd633a96ef7cb6ece5cc5707a64736f6c63430008060033",
  "source": "// SPDX-License-Identifier: MIT\npragma solidity ^0.8.6;\n\ncontract EscrowSrc {\n    address public maker;\n    address public taker;\n    uint256 public timelock;\n    bytes32 public hashlock;\n    bool public withdrawn;\n    bool public canceled;\n    bool private initialized;\n\n    modifier onlyTaker() {\n        require(msg.sender == taker, \"Only taker\");\n        _;\n    }\n\n    modifier onlyMaker() {\n        require(msg.sender == maker, \"Only maker\");\n        _;\n    }\n\n    modifier notInactive() {\n        require(!withdrawn && !canceled, \"Escrow inactive\");\n        _;\n    }\n\n    function initialize(address _maker, address _taker, bytes32 _hashlock, uint256 _timelock) external {\n        require(!initialized, \"Already initialized\");\n        maker = _maker;\n        taker = _taker;\n        hashlock = _hashlock;\n        timelock = _timelock;\n        initialized = true;\n    }\n\n    function withdraw(bytes32 secret) external onlyTaker notInactive {\n        require(sha256(abi.encodePacked(secret)) == hashlock, \"Invalid secret\");\n        withdrawn = true;\n        payable(taker).transfer(address(this).balance);\n    }\n\n    function cancel() external onlyMaker notInactive {\n        require(block.timestamp >= timelock, \"Too early to cancel\");\n        canceled = true;\n        payable(maker).transfer(address(this).balance);\n    }\n\n    receive() external payable {}\n}\n",
  "sourcePath": "/Users/deepakrathore/1inch/troninch/troninch/tron-contracts/contracts/EscrowSrc.sol",
  "compiler": {
    "name": "solc",
    "version": "0.8.6+commit.0e36fba0.mod.Emscripten.clang"
  },
  "schemaVersion": "2.0.1",
  "updatedAt": "2025-08-02T18:28:49.927Z"
}