{
  "contractName": "EscrowDst",
  "abi": [
    {
      "inputs": [
        {
          "internalType": "address",
          "name": "_maker",
          "type": "address"
        },
        {
          "internalType": "address",
          "name": "_taker",
          "type": "address"
        },
        {
          "internalType": "bytes32",
          "name": "_hashlock",
          "type": "bytes32"
        },
        {
          "internalType": "uint256",
          "name": "_timelock",
          "type": "uint256"
        },
        {
          "internalType": "address",
          "name": "_tokenAddress",
          "type": "address"
        },
        {
          "internalType": "uint256",
          "name": "_amount",
          "type": "uint256"
        }
      ],
      "stateMutability": "nonpayable",
      "type": "constructor"
    },
    {
      "inputs": [],
      "name": "amount",
      "outputs": [
        {
          "internalType": "uint256",
          "name": "",
          "type": "uint256"
        }
      ],
      "stateMutability": "view",
      "type": "function"
    },
    {
      "inputs": [],
      "name": "cancel",
      "outputs": [],
      "stateMutability": "nonpayable",
      "type": "function"
    },
    {
      "inputs": [],
      "name": "canceled",
      "outputs": [
        {
          "internalType": "bool",
          "name": "",
          "type": "bool"
        }
      ],
      "stateMutability": "view",
      "type": "function"
    },
    {
      "inputs": [],
      "name": "hashlock",
      "outputs": [
        {
          "internalType": "bytes32",
          "name": "",
          "type": "bytes32"
        }
      ],
      "stateMutability": "view",
      "type": "function"
    },
    {
      "inputs": [],
      "name": "maker",
      "outputs": [
        {
          "internalType": "address",
          "name": "",
          "type": "address"
        }
      ],
      "stateMutability": "view",
      "type": "function"
    },
    {
      "inputs": [],
      "name": "taker",
      "outputs": [
        {
          "internalType": "address",
          "name": "",
          "type": "address"
        }
      ],
      "stateMutability": "view",
      "type": "function"
    },
    {
      "inputs": [],
      "name": "timelock",
      "outputs": [
        {
          "internalType": "uint256",
          "name": "",
          "type": "uint256"
        }
      ],
      "stateMutability": "view",
      "type": "function"
    },
    {
      "inputs": [],
      "name": "tokenAddress",
      "outputs": [
        {
          "internalType": "address",
          "name": "",
          "type": "address"
        }
      ],
      "stateMutability": "view",
      "type": "function"
    },
    {
      "inputs": [
        {
          "internalType": "bytes32",
          "name": "secret",
          "type": "bytes32"
        }
      ],
      "name": "withdraw",
      "outputs": [],
      "stateMutability": "nonpayable",
      "type": "function"
    },
    {
      "inputs": [],
      "name": "withdrawn",
      "outputs": [
        {
          "internalType": "bool",
          "name": "",
          "type": "bool"
        }
      ],
      "stateMutability": "view",
      "type": "function"
    }
  ],
  "bytecode": "0x60806040523480156200001157600080fd5b50d380156200001f57600080fd5b50d280156200002d57600080fd5b50604051620010df380380620010df833981810160405281019062000053919062000188565b856000806101000a81548173ffffffffffffffffffffffffffffffffffffffff021916908373ffffffffffffffffffffffffffffffffffffffff16021790555084600160006101000a81548173ffffffffffffffffffffffffffffffffffffffff021916908373ffffffffffffffffffffffffffffffffffffffff160217905550836005819055508260038190555081600260006101000a81548173ffffffffffffffffffffffffffffffffffffffff021916908373ffffffffffffffffffffffffffffffffffffffff16021790555080600481905550505050505050620002e0565b600081519050620001478162000292565b620001528162000224565b905092915050565b6000815190506200016b81620002ac565b92915050565b6000815190506200018281620002c6565b92915050565b60008060008060008060c08789031215620001a857620001a76200028d565b5b6000620001b889828a0162000136565b9650506020620001cb89828a0162000136565b9550506040620001de89828a016200015a565b9450506060620001f189828a0162000171565b93505060806200020489828a0162000136565b92505060a06200021789828a0162000171565b9150509295509295509295565b6000620002318262000242565b9050919050565b6000819050919050565b600073ffffffffffffffffffffffffffffffffffffffff82169050919050565b600074ffffffffffffffffffffffffffffffffffffffffff82169050919050565b6000819050919050565b600080fd5b6200029d8162000262565b8114620002a957600080fd5b50565b620002b78162000238565b8114620002c357600080fd5b50565b620002d18162000283565b8114620002dd57600080fd5b50565b610def80620002f06000396000f3fe608060405234801561001057600080fd5b50d3801561001d57600080fd5b50d2801561002a57600080fd5b50600436106100b85760003560e01c8063a782086e11610080578063a782086e14610151578063aa8c217c1461016f578063c80ec5221461018d578063d33219b4146101ab578063ea8a1af0146101c9576100b8565b80633f9942ff146100bd57806350655d8c146100db578063782b3602146100f95780638e19899e146101175780639d76ea5814610133575b600080fd5b6100c56101d3565b6040516100d29190610a80565b60405180910390f35b6100e36101e6565b6040516100f09190610a3c565b60405180910390f35b61010161020a565b60405161010e9190610a3c565b60405180910390f35b610131600480360381019061012c9190610837565b610230565b005b61013b610511565b6040516101489190610a3c565b60405180910390f35b610159610537565b6040516101669190610a9b565b60405180910390f35b61017761053d565b6040516101849190610b96565b60405180910390f35b610195610543565b6040516101a29190610a80565b60405180910390f35b6101b3610556565b6040516101c09190610b96565b60405180910390f35b6101d161055c565b005b600660019054906101000a900460ff1681565b60008054906101000a900473ffffffffffffffffffffffffffffffffffffffff1681565b600160009054906101000a900473ffffffffffffffffffffffffffffffffffffffff1681565b600160009054906101000a900473ffffffffffffffffffffffffffffffffffffffff1673ffffffffffffffffffffffffffffffffffffffff163373ffffffffffffffffffffffffffffffffffffffff16146102c0576040517f08c379a00000000000000000000000000000000000000000000000000000000081526004016102b790610b76565b60405180910390fd5b600660009054906101000a900460ff161580156102ea5750600660019054906101000a900460ff16155b610329576040517f08c379a000000000000000000000000000000000000000000000000000000000815260040161032090610b36565b60405180910390fd5b60055460028260405160200161033f9190610a0a565b60405160208183030381529060405260405161035b9190610a25565b602060405180830381855afa158015610378573d6000803e3d6000fd5b5050506040513d601f19601f8201168201806040525081019061039b9190610864565b146103db576040517f08c379a00000000000000000000000000000000000000000000000000000000081526004016103d290610ab6565b60405180910390fd5b6001600660006101000a81548160ff0219169083151502179055506000600260009054906101000a900473ffffffffffffffffffffffffffffffffffffffff1673ffffffffffffffffffffffffffffffffffffffff1663a9059cbb600160009054906101000a900473ffffffffffffffffffffffffffffffffffffffff166004546040518363ffffffff1660e01b8152600401610479929190610a57565b602060405180830381600087803b15801561049357600080fd5b505af11580156104a7573d6000803e3d6000fd5b505050506040513d601f19601f820116820180604052508101906104cb919061080a565b90508061050d576040517f08c379a000000000000000000000000000000000000000000000000000000000815260040161050490610af6565b60405180910390fd5b5050565b600260009054906101000a900473ffffffffffffffffffffffffffffffffffffffff1681565b60055481565b60045481565b600660009054906101000a900460ff1681565b60035481565b60008054906101000a900473ffffffffffffffffffffffffffffffffffffffff1673ffffffffffffffffffffffffffffffffffffffff163373ffffffffffffffffffffffffffffffffffffffff16146105ea576040517f08c379a00000000000000000000000000000000000000000000000000000000081526004016105e190610b16565b60405180910390fd5b600660009054906101000a900460ff161580156106145750600660019054906101000a900460ff16155b610653576040517f08c379a000000000000000000000000000000000000000000000000000000000815260040161064a90610b36565b60405180910390fd5b600354421015610698576040517f08c379a000000000000000000000000000000000000000000000000000000000815260040161068f90610ad6565b60405180910390fd5b6001600660016101000a81548160ff0219169083151502179055506000600260009054906101000a900473ffffffffffffffffffffffffffffffffffffffff1673ffffffffffffffffffffffffffffffffffffffff1663a9059cbb60008054906101000a900473ffffffffffffffffffffffffffffffffffffffff166004546040518363ffffffff1660e01b8152600401610734929190610a57565b602060405180830381600087803b15801561074e57600080fd5b505af1158015610762573d6000803e3d6000fd5b505050506040513d601f19601f82011682018060405250810190610786919061080a565b9050806107c8576040517f08c379a00000000000000000000000000000000000000000000000000000000081526004016107bf90610b56565b60405180910390fd5b50565b6000815190506107da81610d8b565b92915050565b6000813590506107ef81610da2565b92915050565b60008151905061080481610da2565b92915050565b6000602082840312156108205761081f610c67565b5b600061082e848285016107cb565b91505092915050565b60006020828403121561084d5761084c610c67565b5b600061085b848285016107e0565b91505092915050565b60006020828403121561087a57610879610c67565b5b6000610888848285016107f5565b91505092915050565b61089a81610bd8565b82525050565b6108a981610bea565b82525050565b6108b881610bf6565b82525050565b6108cf6108ca82610bf6565b610c5d565b82525050565b60006108e082610bb1565b6108ea8185610bbc565b93506108fa818560208601610c2a565b80840191505092915050565b6000610913600e83610bc7565b915061091e82610c6c565b602082019050919050565b6000610936601383610bc7565b915061094182610c95565b602082019050919050565b6000610959601583610bc7565b915061096482610cbe565b602082019050919050565b600061097c600a83610bc7565b915061098782610ce7565b602082019050919050565b600061099f600f83610bc7565b91506109aa82610d10565b602082019050919050565b60006109c2601683610bc7565b91506109cd82610d39565b602082019050919050565b60006109e5600a83610bc7565b91506109f082610d62565b602082019050919050565b610a0481610c20565b82525050565b6000610a1682846108be565b60208201915081905092915050565b6000610a3182846108d5565b915081905092915050565b6000602082019050610a516000830184610891565b92915050565b6000604082019050610a6c6000830185610891565b610a7960208301846109fb565b9392505050565b6000602082019050610a9560008301846108a0565b92915050565b6000602082019050610ab060008301846108af565b92915050565b60006020820190508181036000830152610acf81610906565b9050919050565b60006020820190508181036000830152610aef81610929565b9050919050565b60006020820190508181036000830152610b0f8161094c565b9050919050565b60006020820190508181036000830152610b2f8161096f565b9050919050565b60006020820190508181036000830152610b4f81610992565b9050919050565b60006020820190508181036000830152610b6f816109b5565b9050919050565b60006020820190508181036000830152610b8f816109d8565b9050919050565b6000602082019050610bab60008301846109fb565b92915050565b600081519050919050565b600081905092915050565b600082825260208201905092915050565b6000610be382610c00565b9050919050565b60008115159050919050565b6000819050919050565b600073ffffffffffffffffffffffffffffffffffffffff82169050919050565b6000819050919050565b60005b83811015610c48578082015181840152602081019050610c2d565b83811115610c57576000848401525b50505050565b6000819050919050565b600080fd5b7f496e76616c696420736563726574000000000000000000000000000000000000600082015250565b7f546f6f206561726c7920746f2063616e63656c00000000000000000000000000600082015250565b7f546f6b656e207472616e73666572206661696c65640000000000000000000000600082015250565b7f4f6e6c79206d616b657200000000000000000000000000000000000000000000600082015250565b7f457363726f7720696e6163746976650000000000000000000000000000000000600082015250565b7f526566756e6420746f206d616b6572206661696c656400000000000000000000600082015250565b7f4f6e6c792074616b657200000000000000000000000000000000000000000000600082015250565b610d9481610bea565b8114610d9f57600080fd5b50565b610dab81610bf6565b8114610db657600080fd5b5056fea26474726f6e582212209c82e0f759024de5f6180d10710f8acb9b4447c3862df97e7107f28c6dd177b464736f6c63430008060033",
  "source": "// SPDX-License-Identifier: MIT\npragma solidity ^0.8.6;\n\nimport \"./IERC20.sol\";\n\ncontract EscrowDst {\n    address public maker;\n    address public taker;\n    address public tokenAddress;\n    uint256 public timelock;\n    uint256 public amount;\n    bytes32 public hashlock;\n    bool public withdrawn;\n    bool public canceled;\n\n    constructor(\n        address _maker,\n        address _taker,\n        bytes32 _hashlock,\n        uint256 _timelock,\n        address _tokenAddress,\n        uint256 _amount\n    ) {\n        maker = _maker;\n        taker = _taker;\n        hashlock = _hashlock;\n        timelock = _timelock;\n        tokenAddress = _tokenAddress;\n        amount = _amount;\n    }\n\n    modifier onlyTaker() {\n        require(msg.sender == taker, \"Only taker\");\n        _;\n    }\n\n    modifier onlyMaker() {\n        require(msg.sender == maker, \"Only maker\");\n        _;\n    }\n\n    modifier notInactive() {\n        require(!withdrawn && !canceled, \"Escrow inactive\");\n        _;\n    }\n\n    function withdraw(bytes32 secret) external onlyTaker notInactive {\n        require(sha256(abi.encodePacked(secret)) == hashlock, \"Invalid secret\");\n        withdrawn = true;\n\n        // Transfer the tokens to the taker\n        bool success = IERC20(tokenAddress).transfer(taker, amount);\n        require(success, \"Token transfer failed\");\n    }\n\n    function cancel() external onlyMaker notInactive {\n        require(block.timestamp >= timelock, \"Too early to cancel\");\n        canceled = true;\n\n        // Refund tokens to maker\n        bool success = IERC20(tokenAddress).transfer(maker, amount);\n        require(success, \"Refund to maker failed\");\n    }\n}\n",
  "sourcePath": "/Users/deepakrathore/1inch/troninch/troninch/tron-contracts/contracts/EscrowDst.sol",
  "compiler": {
    "name": "solc",
    "version": "0.8.6+commit.0e36fba0.mod.Emscripten.clang"
  },
  "schemaVersion": "2.0.1",
  "updatedAt": "2025-08-02T19:40:59.815Z"
}