{
  "contractName": "Resolver",
  "abi": [
    {
      "inputs": [
        {
          "internalType": "address",
          "name": "_factory",
          "type": "address"
        }
      ],
      "stateMutability": "nonpayable",
      "type": "constructor"
    },
    {
      "inputs": [
        {
          "internalType": "address",
          "name": "escrow",
          "type": "address"
        }
      ],
      "name": "cancelEscrow",
      "outputs": [],
      "stateMutability": "nonpayable",
      "type": "function"
    },
    {
      "inputs": [
        {
          "internalType": "address",
          "name": "newOwner",
          "type": "address"
        }
      ],
      "name": "changeOwner",
      "outputs": [],
      "stateMutability": "nonpayable",
      "type": "function"
    },
    {
      "inputs": [
        {
          "internalType": "address",
          "name": "maker",
          "type": "address"
        },
        {
          "internalType": "address",
          "name": "taker",
          "type": "address"
        },
        {
          "internalType": "bytes32",
          "name": "hashlock",
          "type": "bytes32"
        },
        {
          "internalType": "uint256",
          "name": "timelock",
          "type": "uint256"
        }
      ],
      "name": "deployDstEscrow",
      "outputs": [
        {
          "internalType": "address",
          "name": "",
          "type": "address"
        }
      ],
      "stateMutability": "payable",
      "type": "function"
    },
    {
      "inputs": [
        {
          "internalType": "address",
          "name": "taker",
          "type": "address"
        },
        {
          "internalType": "bytes32",
          "name": "hashlock",
          "type": "bytes32"
        },
        {
          "internalType": "uint256",
          "name": "timelock",
          "type": "uint256"
        }
      ],
      "name": "deploySrcEscrow",
      "outputs": [
        {
          "internalType": "address",
          "name": "",
          "type": "address"
        }
      ],
      "stateMutability": "payable",
      "type": "function"
    },
    {
      "inputs": [],
      "name": "factory",
      "outputs": [
        {
          "internalType": "contract EscrowFactory",
          "name": "",
          "type": "address"
        }
      ],
      "stateMutability": "view",
      "type": "function"
    },
    {
      "inputs": [],
      "name": "owner",
      "outputs": [
        {
          "internalType": "address",
          "name": "",
          "type": "address"
        }
      ],
      "stateMutability": "view",
      "type": "function"
    },
    {
      "inputs": [
        {
          "internalType": "address",
          "name": "escrow",
          "type": "address"
        },
        {
          "internalType": "bytes32",
          "name": "secret",
          "type": "bytes32"
        }
      ],
      "name": "withdrawFromEscrow",
      "outputs": [],
      "stateMutability": "nonpayable",
      "type": "function"
    },
    {
      "stateMutability": "payable",
      "type": "receive"
    }
  ],
  "bytecode": "0x608060405234801561001057600080fd5b50d3801561001d57600080fd5b50d2801561002a57600080fd5b5060405162000dc738038062000dc7833981810160405281019061004e91906100f5565b336000806101000a81548173ffffffffffffffffffffffffffffffffffffffff021916908373ffffffffffffffffffffffffffffffffffffffff16021790555080600160006101000a81548173ffffffffffffffffffffffffffffffffffffffff021916908373ffffffffffffffffffffffffffffffffffffffff16021790555050610191565b6000815190506100e48161017a565b6100ed81610122565b905092915050565b60006020828403121561010b5761010a610175565b5b6000610119848285016100d5565b91505092915050565b600061012d82610134565b9050919050565b600073ffffffffffffffffffffffffffffffffffffffff82169050919050565b600074ffffffffffffffffffffffffffffffffffffffffff82169050919050565b600080fd5b61018381610154565b811461018e57600080fd5b50565b610c2680620001a16000396000f3fe6080604052600436106100745760003560e01c8063bebb9d8e1161004e578063bebb9d8e1461014b578063c45a01551461017b578063f971b160146101c0578063fe7a56d3146101f05761007b565b806326663203146100805780638da5cb5b146100c3578063a6f9dae1146101085761007b565b3661007b57005b600080fd5b34801561008c57600080fd5b50d3801561009957600080fd5b50d280156100a657600080fd5b506100c160048036038101906100bc9190610902565b610233565b005b3480156100cf57600080fd5b50d380156100dc57600080fd5b50d280156100e957600080fd5b506100f2610330565b6040516100ff91906109f4565b60405180910390f35b34801561011457600080fd5b50d3801561012157600080fd5b50d2801561012e57600080fd5b5061014960048036038101906101449190610841565b610354565b005b61016560048036038101906101609190610942565b610425565b60405161017291906109f4565b60405180910390f35b34801561018757600080fd5b50d3801561019457600080fd5b50d280156101a157600080fd5b506101aa610571565b6040516101b79190610aa6565b60405180910390f35b6101da60048036038101906101d5919061089b565b610597565b6040516101e791906109f4565b60405180910390f35b3480156101fc57600080fd5b50d3801561020957600080fd5b50d2801561021657600080fd5b50610231600480360381019061022c9190610841565b6106e6565b005b60008054906101000a900473ffffffffffffffffffffffffffffffffffffffff1673ffffffffffffffffffffffffffffffffffffffff163373ffffffffffffffffffffffffffffffffffffffff16146102c1576040517f08c379a00000000000000000000000000000000000000000000000000000000081526004016102b890610ac1565b60405180910390fd5b8173ffffffffffffffffffffffffffffffffffffffff16638e19899e826040518263ffffffff1660e01b81526004016102fa9190610a8b565b600060405180830381600087803b15801561031457600080fd5b505af1158015610328573d6000803e3d6000fd5b505050505050565b60008054906101000a900473ffffffffffffffffffffffffffffffffffffffff1681565b60008054906101000a900473ffffffffffffffffffffffffffffffffffffffff1673ffffffffffffffffffffffffffffffffffffffff163373ffffffffffffffffffffffffffffffffffffffff16146103e2576040517f08c379a00000000000000000000000000000000000000000000000000000000081526004016103d990610ac1565b60405180910390fd5b806000806101000a81548173ffffffffffffffffffffffffffffffffffffffff021916908373ffffffffffffffffffffffffffffffffffffffff16021790555050565b60008060009054906101000a900473ffffffffffffffffffffffffffffffffffffffff1673ffffffffffffffffffffffffffffffffffffffff163373ffffffffffffffffffffffffffffffffffffffff16146104b6576040517f08c379a00000000000000000000000000000000000000000000000000000000081526004016104ad90610ac1565b60405180910390fd5b600160009054906101000a900473ffffffffffffffffffffffffffffffffffffffff1673ffffffffffffffffffffffffffffffffffffffff16634d159038348686866040518563ffffffff1660e01b815260040161051693929190610a54565b6020604051808303818588803b15801561052f57600080fd5b505af1158015610543573d6000803e3d6000fd5b50505050506040513d601f19601f82011682018060405250810190610568919061086e565b90509392505050565b600160009054906101000a900473ffffffffffffffffffffffffffffffffffffffff1681565b60008060009054906101000a900473ffffffffffffffffffffffffffffffffffffffff1673ffffffffffffffffffffffffffffffffffffffff163373ffffffffffffffffffffffffffffffffffffffff1614610628576040517f08c379a000000000000000000000000000000000000000000000000000000000815260040161061f90610ac1565b60405180910390fd5b600160009054906101000a900473ffffffffffffffffffffffffffffffffffffffff1673ffffffffffffffffffffffffffffffffffffffff1663f035b2ea34878787876040518663ffffffff1660e01b815260040161068a9493929190610a0f565b6020604051808303818588803b1580156106a357600080fd5b505af11580156106b7573d6000803e3d6000fd5b50505050506040513d601f19601f820116820180604052508101906106dc919061086e565b9050949350505050565b60008054906101000a900473ffffffffffffffffffffffffffffffffffffffff1673ffffffffffffffffffffffffffffffffffffffff163373ffffffffffffffffffffffffffffffffffffffff1614610774576040517f08c379a000000000000000000000000000000000000000000000000000000000815260040161076b90610ac1565b60405180910390fd5b8073ffffffffffffffffffffffffffffffffffffffff1663ea8a1af06040518163ffffffff1660e01b8152600401600060405180830381600087803b1580156107bc57600080fd5b505af11580156107d0573d6000803e3d6000fd5b5050505050565b6000813590506107e681610bab565b6107ef81610af2565b905092915050565b60008151905061080681610bab565b61080f81610af2565b905092915050565b60008135905061082681610bc2565b92915050565b60008135905061083b81610bd9565b92915050565b60006020828403121561085757610856610b7d565b5b6000610865848285016107d7565b91505092915050565b60006020828403121561088457610883610b7d565b5b6000610892848285016107f7565b91505092915050565b600080600080608085870312156108b5576108b4610b7d565b5b60006108c3878288016107d7565b94505060206108d4878288016107d7565b93505060406108e587828801610817565b92505060606108f68782880161082c565b91505092959194509250565b6000806040838503121561091957610918610b7d565b5b6000610927858286016107d7565b925050602061093885828601610817565b9150509250929050565b60008060006060848603121561095b5761095a610b7d565b5b6000610969868287016107d7565b935050602061097a86828701610817565b925050604061098b8682870161082c565b9150509250925092565b61099e81610af2565b82525050565b6109ad81610b04565b82525050565b6109bc81610b59565b82525050565b60006109cf600983610ae1565b91506109da82610b82565b602082019050919050565b6109ee81610b4f565b82525050565b6000602082019050610a096000830184610995565b92915050565b6000608082019050610a246000830187610995565b610a316020830186610995565b610a3e60408301856109a4565b610a4b60608301846109e5565b95945050505050565b6000606082019050610a696000830186610995565b610a7660208301856109a4565b610a8360408301846109e5565b949350505050565b6000602082019050610aa060008301846109a4565b92915050565b6000602082019050610abb60008301846109b3565b92915050565b60006020820190508181036000830152610ada816109c2565b9050919050565b600082825260208201905092915050565b6000610afd82610b0e565b9050919050565b6000819050919050565b600073ffffffffffffffffffffffffffffffffffffffff82169050919050565b600074ffffffffffffffffffffffffffffffffffffffffff82169050919050565b6000819050919050565b6000610b6482610b6b565b9050919050565b6000610b7682610b0e565b9050919050565b600080fd5b7f4e6f74206f776e65720000000000000000000000000000000000000000000000600082015250565b610bb481610b2e565b8114610bbf57600080fd5b50565b610bcb81610b04565b8114610bd657600080fd5b50565b610be281610b4f565b8114610bed57600080fd5b5056fea26474726f6e58221220a809e239bebe8480a56a119998d172b8b720e93558cbbd4ad36a76e8ae848b7864736f6c63430008060033",
  "source": "// SPDX-License-Identifier: MIT\npragma solidity ^0.8.6;\n\nimport \"./EscrowFactory.sol\";\nimport \"./EscrowSrc.sol\";\nimport \"./EscrowDst.sol\";\n\ncontract Resolver {\n    address public owner;\n    EscrowFactory public factory;\n\n    modifier onlyOwner() {\n        require(msg.sender == owner, \"Not owner\");\n        _;\n    }\n\n    constructor(address _factory) {\n        owner = msg.sender;\n        factory = EscrowFactory(_factory);\n    }\n\n    function deploySrcEscrow(address taker, bytes32 hashlock, uint256 timelock)\n        external\n        payable\n        onlyOwner\n        returns (address)\n    {\n        return factory.deployEscrowSrc{value: msg.value}(taker, hashlock, timelock);\n    }\n\n    function deployDstEscrow(address maker, address taker, bytes32 hashlock, uint256 timelock)\n        external\n        payable\n        onlyOwner\n        returns (address)\n    {\n        return factory.deployEscrowDst{value: msg.value}(maker, taker, hashlock, timelock);\n    }\n\n    function withdrawFromEscrow(address escrow, bytes32 secret) external onlyOwner {\n        EscrowSrc(payable(escrow)).withdraw(secret);\n    }\n\n    function cancelEscrow(address escrow) external onlyOwner {\n        EscrowSrc(payable(escrow)).cancel();\n    }\n\n    function changeOwner(address newOwner) external onlyOwner {\n        owner = newOwner;\n    }\n\n    receive() external payable {}\n}\n",
  "sourcePath": "/Users/deepakrathore/1inch/troninch/troninch/tron-contracts/contracts/Resolver.sol",
  "compiler": {
    "name": "solc",
    "version": "0.8.6+commit.0e36fba0.mod.Emscripten.clang"
  },
  "schemaVersion": "2.0.1",
  "updatedAt": "2025-08-02T18:29:49.817Z"
}