{
  "contractName": "Resolver",
  "abi": [
    {
      "inputs": [
        {
          "internalType": "address",
          "name": "_factory",
          "type": "address"
        }
      ],
      "stateMutability": "nonpayable",
      "type": "constructor"
    },
    {
      "inputs": [
        {
          "internalType": "address",
          "name": "escrow",
          "type": "address"
        }
      ],
      "name": "cancelEscrow",
      "outputs": [],
      "stateMutability": "nonpayable",
      "type": "function"
    },
    {
      "inputs": [
        {
          "internalType": "address",
          "name": "newOwner",
          "type": "address"
        }
      ],
      "name": "changeOwner",
      "outputs": [],
      "stateMutability": "nonpayable",
      "type": "function"
    },
    {
      "inputs": [
        {
          "internalType": "address",
          "name": "maker",
          "type": "address"
        },
        {
          "internalType": "address",
          "name": "taker",
          "type": "address"
        },
        {
          "internalType": "bytes32",
          "name": "hashlock",
          "type": "bytes32"
        },
        {
          "internalType": "uint256",
          "name": "timelock",
          "type": "uint256"
        },
        {
          "internalType": "address",
          "name": "tokenAddress",
          "type": "address"
        },
        {
          "internalType": "uint256",
          "name": "amount",
          "type": "uint256"
        }
      ],
      "name": "deployDstEscrow",
      "outputs": [
        {
          "internalType": "address",
          "name": "",
          "type": "address"
        }
      ],
      "stateMutability": "nonpayable",
      "type": "function"
    },
    {
      "inputs": [
        {
          "internalType": "address",
          "name": "taker",
          "type": "address"
        },
        {
          "internalType": "bytes32",
          "name": "hashlock",
          "type": "bytes32"
        },
        {
          "internalType": "uint256",
          "name": "timelock",
          "type": "uint256"
        },
        {
          "internalType": "address",
          "name": "tokenAddress",
          "type": "address"
        }
      ],
      "name": "deploySrcEscrow",
      "outputs": [
        {
          "internalType": "address",
          "name": "",
          "type": "address"
        }
      ],
      "stateMutability": "payable",
      "type": "function"
    },
    {
      "inputs": [],
      "name": "factory",
      "outputs": [
        {
          "internalType": "contract EscrowFactory",
          "name": "",
          "type": "address"
        }
      ],
      "stateMutability": "view",
      "type": "function"
    },
    {
      "inputs": [],
      "name": "owner",
      "outputs": [
        {
          "internalType": "address",
          "name": "",
          "type": "address"
        }
      ],
      "stateMutability": "view",
      "type": "function"
    },
    {
      "inputs": [
        {
          "internalType": "address",
          "name": "escrow",
          "type": "address"
        },
        {
          "internalType": "bytes32",
          "name": "secret",
          "type": "bytes32"
        }
      ],
      "name": "withdrawFromEscrow",
      "outputs": [],
      "stateMutability": "nonpayable",
      "type": "function"
    },
    {
      "stateMutability": "payable",
      "type": "receive"
    }
  ],
  "bytecode": "0x60806040523480156200001157600080fd5b50d380156200001f57600080fd5b50d280156200002d57600080fd5b5060405162000e6e38038062000e6e8339818101604052810190620000539190620000ff565b336000806101000a81548173ffffffffffffffffffffffffffffffffffffffff021916908373ffffffffffffffffffffffffffffffffffffffff16021790555080600160006101000a81548173ffffffffffffffffffffffffffffffffffffffff021916908373ffffffffffffffffffffffffffffffffffffffff16021790555050620001a5565b600081519050620000ec816200018b565b620000f78162000131565b905092915050565b60006020828403121562000118576200011762000186565b5b60006200012884828501620000db565b91505092915050565b60006200013e8262000145565b9050919050565b600073ffffffffffffffffffffffffffffffffffffffff82169050919050565b600074ffffffffffffffffffffffffffffffffffffffffff82169050919050565b600080fd5b620001968162000165565b8114620001a257600080fd5b50565b610cb980620001b56000396000f3fe6080604052600436106100745760003560e01c8063a6f9dae11161004e578063a6f9dae114610138578063c45a01551461017b578063e18ec296146101c0578063fe7a56d3146102175761007b565b806326663203146100805780634864d64f146100c35780638da5cb5b146100f35761007b565b3661007b57005b600080fd5b34801561008c57600080fd5b50d3801561009957600080fd5b50d280156100a657600080fd5b506100c160048036038101906100bc9190610957565b61025a565b005b6100dd60048036038101906100d89190610997565b610357565b6040516100ea9190610a5d565b60405180910390f35b3480156100ff57600080fd5b50d3801561010c57600080fd5b50d2801561011957600080fd5b506101226104a6565b60405161012f9190610a5d565b60405180910390f35b34801561014457600080fd5b50d3801561015157600080fd5b50d2801561015e57600080fd5b5061017960048036038101906101749190610870565b6104ca565b005b34801561018757600080fd5b50d3801561019457600080fd5b50d280156101a157600080fd5b506101aa61059b565b6040516101b79190610b39565b60405180910390f35b3480156101cc57600080fd5b50d380156101d957600080fd5b50d280156101e657600080fd5b5061020160048036038101906101fc91906108ca565b6105c1565b60405161020e9190610a5d565b60405180910390f35b34801561022357600080fd5b50d3801561023057600080fd5b50d2801561023d57600080fd5b5061025860048036038101906102539190610870565b610715565b005b60008054906101000a900473ffffffffffffffffffffffffffffffffffffffff1673ffffffffffffffffffffffffffffffffffffffff163373ffffffffffffffffffffffffffffffffffffffff16146102e8576040517f08c379a00000000000000000000000000000000000000000000000000000000081526004016102df90610b54565b60405180910390fd5b8173ffffffffffffffffffffffffffffffffffffffff16638e19899e826040518263ffffffff1660e01b81526004016103219190610b1e565b600060405180830381600087803b15801561033b57600080fd5b505af115801561034f573d6000803e3d6000fd5b505050505050565b60008060009054906101000a900473ffffffffffffffffffffffffffffffffffffffff1673ffffffffffffffffffffffffffffffffffffffff163373ffffffffffffffffffffffffffffffffffffffff16146103e8576040517f08c379a00000000000000000000000000000000000000000000000000000000081526004016103df90610b54565b60405180910390fd5b600160009054906101000a900473ffffffffffffffffffffffffffffffffffffffff1673ffffffffffffffffffffffffffffffffffffffff1663e057742634878787876040518663ffffffff1660e01b815260040161044a9493929190610ad9565b6020604051808303818588803b15801561046357600080fd5b505af1158015610477573d6000803e3d6000fd5b50505050506040513d601f19601f8201168201806040525081019061049c919061089d565b9050949350505050565b60008054906101000a900473ffffffffffffffffffffffffffffffffffffffff1681565b60008054906101000a900473ffffffffffffffffffffffffffffffffffffffff1673ffffffffffffffffffffffffffffffffffffffff163373ffffffffffffffffffffffffffffffffffffffff1614610558576040517f08c379a000000000000000000000000000000000000000000000000000000000815260040161054f90610b54565b60405180910390fd5b806000806101000a81548173ffffffffffffffffffffffffffffffffffffffff021916908373ffffffffffffffffffffffffffffffffffffffff16021790555050565b600160009054906101000a900473ffffffffffffffffffffffffffffffffffffffff1681565b60008060009054906101000a900473ffffffffffffffffffffffffffffffffffffffff1673ffffffffffffffffffffffffffffffffffffffff163373ffffffffffffffffffffffffffffffffffffffff1614610652576040517f08c379a000000000000000000000000000000000000000000000000000000000815260040161064990610b54565b60405180910390fd5b600160009054906101000a900473ffffffffffffffffffffffffffffffffffffffff1673ffffffffffffffffffffffffffffffffffffffff1663f91d812b8888888888886040518763ffffffff1660e01b81526004016106b796959493929190610a78565b602060405180830381600087803b1580156106d157600080fd5b505af11580156106e5573d6000803e3d6000fd5b505050506040513d601f19601f82011682018060405250810190610709919061089d565b90509695505050505050565b60008054906101000a900473ffffffffffffffffffffffffffffffffffffffff1673ffffffffffffffffffffffffffffffffffffffff163373ffffffffffffffffffffffffffffffffffffffff16146107a3576040517f08c379a000000000000000000000000000000000000000000000000000000000815260040161079a90610b54565b60405180910390fd5b8073ffffffffffffffffffffffffffffffffffffffff1663ea8a1af06040518163ffffffff1660e01b8152600401600060405180830381600087803b1580156107eb57600080fd5b505af11580156107ff573d6000803e3d6000fd5b5050505050565b60008135905061081581610c3e565b61081e81610b85565b905092915050565b60008151905061083581610c3e565b61083e81610b85565b905092915050565b60008135905061085581610c55565b92915050565b60008135905061086a81610c6c565b92915050565b60006020828403121561088657610885610c10565b5b600061089484828501610806565b91505092915050565b6000602082840312156108b3576108b2610c10565b5b60006108c184828501610826565b91505092915050565b60008060008060008060c087890312156108e7576108e6610c10565b5b60006108f589828a01610806565b965050602061090689828a01610806565b955050604061091789828a01610846565b945050606061092889828a0161085b565b935050608061093989828a01610806565b92505060a061094a89828a0161085b565b9150509295509295509295565b6000806040838503121561096e5761096d610c10565b5b600061097c85828601610806565b925050602061098d85828601610846565b9150509250929050565b600080600080608085870312156109b1576109b0610c10565b5b60006109bf87828801610806565b94505060206109d087828801610846565b93505060406109e18782880161085b565b92505060606109f287828801610806565b91505092959194509250565b610a0781610b85565b82525050565b610a1681610b97565b82525050565b610a2581610bec565b82525050565b6000610a38600983610b74565b9150610a4382610c15565b602082019050919050565b610a5781610be2565b82525050565b6000602082019050610a7260008301846109fe565b92915050565b600060c082019050610a8d60008301896109fe565b610a9a60208301886109fe565b610aa76040830187610a0d565b610ab46060830186610a4e565b610ac160808301856109fe565b610ace60a0830184610a4e565b979650505050505050565b6000608082019050610aee60008301876109fe565b610afb6020830186610a0d565b610b086040830185610a4e565b610b1560608301846109fe565b95945050505050565b6000602082019050610b336000830184610a0d565b92915050565b6000602082019050610b4e6000830184610a1c565b92915050565b60006020820190508181036000830152610b6d81610a2b565b9050919050565b600082825260208201905092915050565b6000610b9082610ba1565b9050919050565b6000819050919050565b600073ffffffffffffffffffffffffffffffffffffffff82169050919050565b600074ffffffffffffffffffffffffffffffffffffffffff82169050919050565b6000819050919050565b6000610bf782610bfe565b9050919050565b6000610c0982610ba1565b9050919050565b600080fd5b7f4e6f74206f776e65720000000000000000000000000000000000000000000000600082015250565b610c4781610bc1565b8114610c5257600080fd5b50565b610c5e81610b97565b8114610c6957600080fd5b50565b610c7581610be2565b8114610c8057600080fd5b5056fea26474726f6e582212207d26d7754bfc6e729081ac5470b951ec0c0db82512a05d9ef613e630f676dcd864736f6c63430008060033",
  "source": "// SPDX-License-Identifier: MIT\npragma solidity ^0.8.6;\n\nimport \"./EscrowFactory.sol\";\n\ncontract Resolver {\n    address public owner;\n    EscrowFactory public factory;\n\n    modifier onlyOwner() {\n        require(msg.sender == owner, \"Not owner\");\n        _;\n    }\n\n    constructor(address _factory) {\n        owner = msg.sender;\n        factory = EscrowFactory(_factory);\n    }\n\n    function deploySrcEscrow(address taker, bytes32 hashlock, uint256 timelock, address tokenAddress)\n        external\n        payable\n        onlyOwner\n        returns (address)\n    {\n        return factory.deployEscrowSrc{value: msg.value}(taker, hashlock, timelock, tokenAddress);\n    }\n\n    function deployDstEscrow(\n        address maker,\n        address taker,\n        bytes32 hashlock,\n        uint256 timelock,\n        address tokenAddress,\n        uint256 amount\n    ) external onlyOwner returns (address) {\n        return factory.deployEscrowDst(maker, taker, hashlock, timelock, tokenAddress, amount);\n    }\n\n    function withdrawFromEscrow(address escrow, bytes32 secret) external onlyOwner {\n        EscrowSrc(payable(escrow)).withdraw(secret);\n    }\n\n    function cancelEscrow(address escrow) external onlyOwner {\n        EscrowSrc(payable(escrow)).cancel();\n    }\n\n    function changeOwner(address newOwner) external onlyOwner {\n        owner = newOwner;\n    }\n\n    receive() external payable {}\n}\n",
  "sourcePath": "/Users/deepakrathore/1inch/troninch/troninch/tron-contracts/contracts/Resolver.sol",
  "compiler": {
    "name": "solc",
    "version": "0.8.6+commit.0e36fba0.mod.Emscripten.clang"
  },
  "schemaVersion": "2.0.1",
  "updatedAt": "2025-08-02T19:41:34.792Z"
}