{
  "contractName": "USDT",
  "abi": [
    {
      "inputs": [],
      "stateMutability": "nonpayable",
      "type": "constructor"
    },
    {
      "anonymous": false,
      "inputs": [
        {
          "indexed": true,
          "internalType": "address",
          "name": "owner",
          "type": "address"
        },
        {
          "indexed": true,
          "internalType": "address",
          "name": "spender",
          "type": "address"
        },
        {
          "indexed": false,
          "internalType": "uint256",
          "name": "value",
          "type": "uint256"
        }
      ],
      "name": "Approval",
      "type": "event"
    },
    {
      "anonymous": false,
      "inputs": [
        {
          "indexed": true,
          "internalType": "address",
          "name": "from",
          "type": "address"
        },
        {
          "indexed": true,
          "internalType": "address",
          "name": "to",
          "type": "address"
        },
        {
          "indexed": false,
          "internalType": "uint256",
          "name": "value",
          "type": "uint256"
        }
      ],
      "name": "Transfer",
      "type": "event"
    },
    {
      "inputs": [
        {
          "internalType": "address",
          "name": "owner_",
          "type": "address"
        },
        {
          "internalType": "address",
          "name": "spender",
          "type": "address"
        }
      ],
      "name": "allowance",
      "outputs": [
        {
          "internalType": "uint256",
          "name": "",
          "type": "uint256"
        }
      ],
      "stateMutability": "view",
      "type": "function"
    },
    {
      "inputs": [
        {
          "internalType": "address",
          "name": "",
          "type": "address"
        },
        {
          "internalType": "address",
          "name": "",
          "type": "address"
        }
      ],
      "name": "allowed",
      "outputs": [
        {
          "internalType": "uint256",
          "name": "",
          "type": "uint256"
        }
      ],
      "stateMutability": "view",
      "type": "function"
    },
    {
      "inputs": [
        {
          "internalType": "address",
          "name": "spender",
          "type": "address"
        },
        {
          "internalType": "uint256",
          "name": "amount",
          "type": "uint256"
        }
      ],
      "name": "approve",
      "outputs": [
        {
          "internalType": "bool",
          "name": "",
          "type": "bool"
        }
      ],
      "stateMutability": "nonpayable",
      "type": "function"
    },
    {
      "inputs": [
        {
          "internalType": "address",
          "name": "account",
          "type": "address"
        }
      ],
      "name": "balanceOf",
      "outputs": [
        {
          "internalType": "uint256",
          "name": "",
          "type": "uint256"
        }
      ],
      "stateMutability": "view",
      "type": "function"
    },
    {
      "inputs": [
        {
          "internalType": "address",
          "name": "",
          "type": "address"
        }
      ],
      "name": "balances",
      "outputs": [
        {
          "internalType": "uint256",
          "name": "",
          "type": "uint256"
        }
      ],
      "stateMutability": "view",
      "type": "function"
    },
    {
      "inputs": [],
      "name": "decimals",
      "outputs": [
        {
          "internalType": "uint8",
          "name": "",
          "type": "uint8"
        }
      ],
      "stateMutability": "view",
      "type": "function"
    },
    {
      "inputs": [
        {
          "internalType": "address",
          "name": "to",
          "type": "address"
        },
        {
          "internalType": "uint256",
          "name": "amount",
          "type": "uint256"
        }
      ],
      "name": "mint",
      "outputs": [],
      "stateMutability": "nonpayable",
      "type": "function"
    },
    {
      "inputs": [],
      "name": "name",
      "outputs": [
        {
          "internalType": "string",
          "name": "",
          "type": "string"
        }
      ],
      "stateMutability": "view",
      "type": "function"
    },
    {
      "inputs": [],
      "name": "symbol",
      "outputs": [
        {
          "internalType": "string",
          "name": "",
          "type": "string"
        }
      ],
      "stateMutability": "view",
      "type": "function"
    },
    {
      "inputs": [],
      "name": "totalSupply",
      "outputs": [
        {
          "internalType": "uint256",
          "name": "",
          "type": "uint256"
        }
      ],
      "stateMutability": "view",
      "type": "function"
    },
    {
      "inputs": [
        {
          "internalType": "address",
          "name": "to",
          "type": "address"
        },
        {
          "internalType": "uint256",
          "name": "amount",
          "type": "uint256"
        }
      ],
      "name": "transfer",
      "outputs": [
        {
          "internalType": "bool",
          "name": "",
          "type": "bool"
        }
      ],
      "stateMutability": "nonpayable",
      "type": "function"
    },
    {
      "inputs": [
        {
          "internalType": "address",
          "name": "from",
          "type": "address"
        },
        {
          "internalType": "address",
          "name": "to",
          "type": "address"
        },
        {
          "internalType": "uint256",
          "name": "amount",
          "type": "uint256"
        }
      ],
      "name": "transferFrom",
      "outputs": [
        {
          "internalType": "bool",
          "name": "",
          "type": "bool"
        }
      ],
      "stateMutability": "nonpayable",
      "type": "function"
    }
  ],
  "bytecode": "0x60806040526040518060400160405280600a81526020017f54657468657220555344000000000000000000000000000000000000000000008152506000908051906020019062000051929190620001e2565b506040518060400160405280600481526020017f5553445400000000000000000000000000000000000000000000000000000000815250600190805190602001906200009f929190620001e2565b506006600260006101000a81548160ff021916908360ff160217905550348015620000c957600080fd5b50d38015620000d757600080fd5b50d28015620000e557600080fd5b50620000fd336402540be4006200010360201b60201c565b620003bb565b8060036000828254620001179190620002c0565b9250508190555080600460008473ffffffffffffffffffffffffffffffffffffffff1673ffffffffffffffffffffffffffffffffffffffff16815260200190815260200160002060008282546200016f9190620002c0565b925050819055508173ffffffffffffffffffffffffffffffffffffffff16600073ffffffffffffffffffffffffffffffffffffffff167fddf252ad1be2c89b69c2b068fc378daa952ba7f163c4a11628f55a4df523b3ef83604051620001d69190620002a3565b60405180910390a35050565b828054620001f09062000327565b90600052602060002090601f01602090048101928262000214576000855562000260565b82601f106200022f57805160ff191683800117855562000260565b8280016001018555821562000260579182015b828111156200025f57825182559160200191906001019062000242565b5b5090506200026f919062000273565b5090565b5b808211156200028e57600081600090555060010162000274565b5090565b6200029d816200031d565b82525050565b6000602082019050620002ba600083018462000292565b92915050565b6000620002cd826200031d565b9150620002da836200031d565b9250827fffffffffffffffffffffffffffffffffffffffffffffffffffffffffffffffff038211156200031257620003116200035d565b5b828201905092915050565b6000819050919050565b600060028204905060018216806200034057607f821691505b602082108114156200035757620003566200038c565b5b50919050565b7f4e487b7100000000000000000000000000000000000000000000000000000000600052601160045260246000fd5b7f4e487b7100000000000000000000000000000000000000000000000000000000600052602260045260246000fd5b61113580620003cb6000396000f3fe608060405234801561001057600080fd5b50d3801561001d57600080fd5b50d2801561002a57600080fd5b50600436106100ce5760003560e01c806340c10f191161008b57806340c10f19146101bd5780635c658165146101d957806370a082311461020957806395d89b4114610239578063a9059cbb14610257578063dd62ed3e14610287576100ce565b806306fdde03146100d3578063095ea7b3146100f157806318160ddd1461012157806323b872dd1461013f57806327e235e31461016f578063313ce5671461019f575b600080fd5b6100db6102b7565b6040516100e89190610df2565b60405180910390f35b61010b60048036038101906101069190610ceb565b610345565b6040516101189190610dd7565b60405180910390f35b610129610437565b6040516101369190610e54565b60405180910390f35b61015960048036038101906101549190610c98565b61043d565b6040516101669190610dd7565b60405180910390f35b61018960048036038101906101849190610c2b565b6107c2565b6040516101969190610e54565b60405180910390f35b6101a76107da565b6040516101b49190610e6f565b60405180910390f35b6101d760048036038101906101d29190610ceb565b6107ed565b005b6101f360048036038101906101ee9190610c58565b6107fb565b6040516102009190610e54565b60405180910390f35b610223600480360381019061021e9190610c2b565b610820565b6040516102309190610e54565b60405180910390f35b610241610869565b60405161024e9190610df2565b60405180910390f35b610271600480360381019061026c9190610ceb565b6108f7565b60405161027e9190610dd7565b60405180910390f35b6102a1600480360381019061029c9190610c58565b610a96565b6040516102ae9190610e54565b60405180910390f35b600080546102c490610fd9565b80601f01602080910402602001604051908101604052809291908181526020018280546102f090610fd9565b801561033d5780601f106103125761010080835404028352916020019161033d565b820191906000526020600020905b81548152906001019060200180831161032057829003601f168201915b505050505081565b600081600560003373ffffffffffffffffffffffffffffffffffffffff1673ffffffffffffffffffffffffffffffffffffffff16815260200190815260200160002060008573ffffffffffffffffffffffffffffffffffffffff1673ffffffffffffffffffffffffffffffffffffffff168152602001908152602001600020819055508273ffffffffffffffffffffffffffffffffffffffff163373ffffffffffffffffffffffffffffffffffffffff167f8c5be1e5ebec7d5bd14f71427d1e84f3dd0314c0f7b2291e5b200ac8c7c3b925846040516104259190610e54565b60405180910390a36001905092915050565b60035481565b600081600460008673ffffffffffffffffffffffffffffffffffffffff1673ffffffffffffffffffffffffffffffffffffffff1681526020019081526020016000205410156104c1576040517f08c379a00000000000000000000000000000000000000000000000000000000081526004016104b890610e14565b60405180910390fd5b81600560008673ffffffffffffffffffffffffffffffffffffffff1673ffffffffffffffffffffffffffffffffffffffff16815260200190815260200160002060003373ffffffffffffffffffffffffffffffffffffffff1673ffffffffffffffffffffffffffffffffffffffff168152602001908152602001600020541015610580576040517f08c379a000000000000000000000000000000000000000000000000000000000815260040161057790610e34565b60405180910390fd5b81600460008673ffffffffffffffffffffffffffffffffffffffff1673ffffffffffffffffffffffffffffffffffffffff16815260200190815260200160002060008282546105cf9190610efc565b9250508190555081600560008673ffffffffffffffffffffffffffffffffffffffff1673ffffffffffffffffffffffffffffffffffffffff16815260200190815260200160002060003373ffffffffffffffffffffffffffffffffffffffff1673ffffffffffffffffffffffffffffffffffffffff16815260200190815260200160002060008282546106629190610efc565b9250508190555081600460008573ffffffffffffffffffffffffffffffffffffffff1673ffffffffffffffffffffffffffffffffffffffff16815260200190815260200160002060008282546106b89190610ea6565b9250508190555081600560008673ffffffffffffffffffffffffffffffffffffffff1673ffffffffffffffffffffffffffffffffffffffff16815260200190815260200160002060003373ffffffffffffffffffffffffffffffffffffffff1673ffffffffffffffffffffffffffffffffffffffff168152602001908152602001600020600082825461074b9190610efc565b925050819055508273ffffffffffffffffffffffffffffffffffffffff168473ffffffffffffffffffffffffffffffffffffffff167fddf252ad1be2c89b69c2b068fc378daa952ba7f163c4a11628f55a4df523b3ef846040516107af9190610e54565b60405180910390a3600190509392505050565b60046020528060005260406000206000915090505481565b600260009054906101000a900460ff1681565b6107f78282610b1d565b5050565b6005602052816000526040600020602052806000526040600020600091509150505481565b6000600460008373ffffffffffffffffffffffffffffffffffffffff1673ffffffffffffffffffffffffffffffffffffffff168152602001908152602001600020549050919050565b6001805461087690610fd9565b80601f01602080910402602001604051908101604052809291908181526020018280546108a290610fd9565b80156108ef5780601f106108c4576101008083540402835291602001916108ef565b820191906000526020600020905b8154815290600101906020018083116108d257829003601f168201915b505050505081565b600081600460003373ffffffffffffffffffffffffffffffffffffffff1673ffffffffffffffffffffffffffffffffffffffff16815260200190815260200160002054101561097b576040517f08c379a000000000000000000000000000000000000000000000000000000000815260040161097290610e14565b60405180910390fd5b81600460003373ffffffffffffffffffffffffffffffffffffffff1673ffffffffffffffffffffffffffffffffffffffff16815260200190815260200160002060008282546109ca9190610efc565b9250508190555081600460008573ffffffffffffffffffffffffffffffffffffffff1673ffffffffffffffffffffffffffffffffffffffff1681526020019081526020016000206000828254610a209190610ea6565b925050819055508273ffffffffffffffffffffffffffffffffffffffff163373ffffffffffffffffffffffffffffffffffffffff167fddf252ad1be2c89b69c2b068fc378daa952ba7f163c4a11628f55a4df523b3ef84604051610a849190610e54565b60405180910390a36001905092915050565b6000600560008473ffffffffffffffffffffffffffffffffffffffff1673ffffffffffffffffffffffffffffffffffffffff16815260200190815260200160002060008373ffffffffffffffffffffffffffffffffffffffff1673ffffffffffffffffffffffffffffffffffffffff16815260200190815260200160002054905092915050565b8060036000828254610b2f9190610ea6565b9250508190555080600460008473ffffffffffffffffffffffffffffffffffffffff1673ffffffffffffffffffffffffffffffffffffffff1681526020019081526020016000206000828254610b859190610ea6565b925050819055508173ffffffffffffffffffffffffffffffffffffffff16600073ffffffffffffffffffffffffffffffffffffffff167fddf252ad1be2c89b69c2b068fc378daa952ba7f163c4a11628f55a4df523b3ef83604051610bea9190610e54565b60405180910390a35050565b600081359050610c05816110d1565b610c0e81610f30565b905092915050565b600081359050610c25816110e8565b92915050565b600060208284031215610c4157610c40611069565b5b6000610c4f84828501610bf6565b91505092915050565b60008060408385031215610c6f57610c6e611069565b5b6000610c7d85828601610bf6565b9250506020610c8e85828601610bf6565b9150509250929050565b600080600060608486031215610cb157610cb0611069565b5b6000610cbf86828701610bf6565b9350506020610cd086828701610bf6565b9250506040610ce186828701610c16565b9150509250925092565b60008060408385031215610d0257610d01611069565b5b6000610d1085828601610bf6565b9250506020610d2185828601610c16565b9150509250929050565b610d3481610f42565b82525050565b6000610d4582610e8a565b610d4f8185610e95565b9350610d5f818560208601610fa6565b610d688161106e565b840191505092915050565b6000610d80601283610e95565b9150610d8b8261107f565b602082019050919050565b6000610da3600c83610e95565b9150610dae826110a8565b602082019050919050565b610dc281610f8f565b82525050565b610dd181610f99565b82525050565b6000602082019050610dec6000830184610d2b565b92915050565b60006020820190508181036000830152610e0c8184610d3a565b905092915050565b60006020820190508181036000830152610e2d81610d73565b9050919050565b60006020820190508181036000830152610e4d81610d96565b9050919050565b6000602082019050610e696000830184610db9565b92915050565b6000602082019050610e846000830184610dc8565b92915050565b600081519050919050565b600082825260208201905092915050565b6000610eb182610f8f565b9150610ebc83610f8f565b9250827fffffffffffffffffffffffffffffffffffffffffffffffffffffffffffffffff03821115610ef157610ef061100b565b5b828201905092915050565b6000610f0782610f8f565b9150610f1283610f8f565b925082821015610f2557610f2461100b565b5b828203905092915050565b6000610f3b82610f4e565b9050919050565b60008115159050919050565b600073ffffffffffffffffffffffffffffffffffffffff82169050919050565b600074ffffffffffffffffffffffffffffffffffffffffff82169050919050565b6000819050919050565b600060ff82169050919050565b60005b83811015610fc4578082015181840152602081019050610fa9565b83811115610fd3576000848401525b50505050565b60006002820490506001821680610ff157607f821691505b602082108114156110055761100461103a565b5b50919050565b7f4e487b7100000000000000000000000000000000000000000000000000000000600052601160045260246000fd5b7f4e487b7100000000000000000000000000000000000000000000000000000000600052602260045260246000fd5b600080fd5b6000601f19601f8301169050919050565b7f4e6f7420656e6f7567682062616c616e63650000000000000000000000000000600082015250565b7f4e6f7420617070726f7665640000000000000000000000000000000000000000600082015250565b6110da81610f6e565b81146110e557600080fd5b50565b6110f181610f8f565b81146110fc57600080fd5b5056fea26474726f6e58221220241fd1947754d3601dfaeed53d31c00466c23ff8e5b0fdb94d3892ac749c4b4e64736f6c63430008060033",
  "source": "// SPDX-License-Identifier: MIT\npragma solidity ^0.8.6;\n\ncontract USDT {\n    string public name = \"Tether USD\";\n    string public symbol = \"USDT\";\n    uint8 public decimals = 6;\n    uint256 public totalSupply;\n\n    mapping(address => uint256) public balances;\n    mapping(address => mapping(address => uint256)) public allowed;\n\n    constructor() {\n        _mint(msg.sender, 10_000 * 1e6); // Initial mint to deployer\n    }\n\n    function mint(address to, uint256 amount) external {\n        _mint(to, amount);\n    }\n\n    function _mint(address to, uint256 amount) internal {\n        totalSupply += amount;\n        balances[to] += amount;\n        emit Transfer(address(0), to, amount);\n    }\n\n    function balanceOf(address account) external view returns (uint256) {\n        return balances[account];\n    }\n\n    function transfer(address to, uint256 amount) external returns (bool) {\n        require(balances[msg.sender] >= amount, \"Not enough balance\");\n        balances[msg.sender] -= amount;\n        balances[to] += amount;\n        emit Transfer(msg.sender, to, amount);\n        return true;\n    }\n\n    function approve(address spender, uint256 amount) external returns (bool) {\n        allowed[msg.sender][spender] = amount;\n        emit Approval(msg.sender, spender, amount);\n        return true;\n    }\n\n    function transferFrom(address from, address to, uint256 amount) external returns (bool) {\n        require(balances[from] >= amount, \"Not enough balance\");\n        require(allowed[from][msg.sender] >= amount, \"Not approved\");\n        balances[from] -= amount;\n        allowed[from][msg.sender] -= amount;\n        balances[to] += amount;\n        allowed[from][msg.sender] -= amount;\n        emit Transfer(from, to, amount);\n        return true;\n    }\n\n    function allowance(address owner_, address spender) external view returns (uint256) {\n        return allowed[owner_][spender];\n    }\n\n    event Transfer(address indexed from, address indexed to, uint256 value);\n    event Approval(address indexed owner, address indexed spender, uint256 value);\n}\n",
  "sourcePath": "/Users/deepakrathore/1inch/troninch/troninch/tron-contracts/contracts/USDT.sol",
  "compiler": {
    "name": "solc",
    "version": "0.8.6+commit.0e36fba0.mod.Emscripten.clang"
  },
  "schemaVersion": "2.0.1",
  "updatedAt": "2025-08-02T18:48:14.275Z"
}